{
  "contractName": "MathHelp",
  "abi": [
    {
      "constant": true,
      "inputs": [
        {
          "name": "amount",
          "type": "uint256"
        },
        {
          "name": "percentage",
          "type": "uint256"
        },
        {
          "name": "precision",
          "type": "uint256"
        }
      ],
      "name": "getPercentAmount",
      "outputs": [
        {
          "name": "totalAmount",
          "type": "uint256"
        }
      ],
      "payable": false,
      "stateMutability": "view",
      "type": "function"
    },
    {
      "constant": true,
      "inputs": [
        {
          "name": "A",
          "type": "uint256"
        },
        {
          "name": "B",
          "type": "uint256"
        }
      ],
      "name": "power",
      "outputs": [
        {
          "name": "result",
          "type": "uint256"
        }
      ],
      "payable": false,
      "stateMutability": "view",
      "type": "function"
    }
  ],
  "bytecode": "0x608060405234801561001057600080fd5b50610160806100206000396000f30060806040526004361061004c576000357c0100000000000000000000000000000000000000000000000000000000900463ffffffff168063bd4a40db14610051578063c04f01fc146100a6575b600080fd5b34801561005d57600080fd5b506100906004803603810190808035906020019092919080359060200190929190803590602001909291905050506100f1565b6040518082815260200191505060405180910390f35b3480156100b257600080fd5b506100db6004803603810190808035906020019092919080359060200190929190505050610127565b6040518082815260200191505060405180910390f35b60006100fe600a83610127565b6103e802610110600a60018501610127565b8402850281151561011d57fe5b0490509392505050565b600081830a9050929150505600a165627a7a723058201cae4c5b2e3eeb7f6367f5cde534b75f07b62aea07fecc1024e966d029a8e2060029",
  "source": "pragma solidity ^0.4.24;\n\ncontract MathHelp {\n    function getPercentAmount(uint amount, uint percentage, uint precision) public\n    constant returns (uint totalAmount){\n        return ((amount * (percentage * power(10, precision +1)) / (1000 * power(10, precision))));\n    }\n\n    function power(uint256 A, uint256 B) public\n    constant returns (uint result){\n        return A ** B;\n    }\n\n}\n",
  "sourcePath": "/Users/octavonce/Projects/purplecoin_crowdsale/contracts/MathHelp.sol",
  "compiler": {
    "name": "solc",
    "version": "0.4.24+commit.e67f0147.Emscripten.clang"
  },
  "schemaVersion": "3.4.11",
  "updatedAt": "2023-01-11T21:15:31.741Z",
  "devdoc": {
    "methods": {}
  },
  "userdoc": {
    "methods": {}
  }
}