{
  "contractName": "Purplecoin",
  "abi": [
    {
      "constant": true,
      "inputs": [],
      "name": "name",
      "outputs": [
        {
          "name": "",
          "type": "string"
        }
      ],
      "payable": false,
      "stateMutability": "view",
      "type": "function"
    },
    {
      "constant": false,
      "inputs": [
        {
          "name": "spender",
          "type": "address"
        },
        {
          "name": "value",
          "type": "uint256"
        }
      ],
      "name": "approve",
      "outputs": [
        {
          "name": "",
          "type": "bool"
        }
      ],
      "payable": false,
      "stateMutability": "nonpayable",
      "type": "function"
    },
    {
      "constant": true,
      "inputs": [],
      "name": "totalSupply",
      "outputs": [
        {
          "name": "",
          "type": "uint256"
        }
      ],
      "payable": false,
      "stateMutability": "view",
      "type": "function"
    },
    {
      "constant": false,
      "inputs": [
        {
          "name": "from",
          "type": "address"
        },
        {
          "name": "to",
          "type": "address"
        },
        {
          "name": "value",
          "type": "uint256"
        }
      ],
      "name": "transferFrom",
      "outputs": [
        {
          "name": "",
          "type": "bool"
        }
      ],
      "payable": false,
      "stateMutability": "nonpayable",
      "type": "function"
    },
    {
      "constant": true,
      "inputs": [],
      "name": "decimals",
      "outputs": [
        {
          "name": "",
          "type": "uint8"
        }
      ],
      "payable": false,
      "stateMutability": "view",
      "type": "function"
    },
    {
      "constant": false,
      "inputs": [
        {
          "name": "spender",
          "type": "address"
        },
        {
          "name": "addedValue",
          "type": "uint256"
        }
      ],
      "name": "increaseAllowance",
      "outputs": [
        {
          "name": "",
          "type": "bool"
        }
      ],
      "payable": false,
      "stateMutability": "nonpayable",
      "type": "function"
    },
    {
      "constant": false,
      "inputs": [
        {
          "name": "to",
          "type": "address"
        },
        {
          "name": "value",
          "type": "uint256"
        }
      ],
      "name": "mint",
      "outputs": [
        {
          "name": "",
          "type": "bool"
        }
      ],
      "payable": false,
      "stateMutability": "nonpayable",
      "type": "function"
    },
    {
      "constant": true,
      "inputs": [
        {
          "name": "owner",
          "type": "address"
        }
      ],
      "name": "balanceOf",
      "outputs": [
        {
          "name": "",
          "type": "uint256"
        }
      ],
      "payable": false,
      "stateMutability": "view",
      "type": "function"
    },
    {
      "constant": true,
      "inputs": [],
      "name": "symbol",
      "outputs": [
        {
          "name": "",
          "type": "string"
        }
      ],
      "payable": false,
      "stateMutability": "view",
      "type": "function"
    },
    {
      "constant": false,
      "inputs": [
        {
          "name": "account",
          "type": "address"
        }
      ],
      "name": "addMinter",
      "outputs": [],
      "payable": false,
      "stateMutability": "nonpayable",
      "type": "function"
    },
    {
      "constant": false,
      "inputs": [],
      "name": "renounceMinter",
      "outputs": [],
      "payable": false,
      "stateMutability": "nonpayable",
      "type": "function"
    },
    {
      "constant": false,
      "inputs": [
        {
          "name": "spender",
          "type": "address"
        },
        {
          "name": "subtractedValue",
          "type": "uint256"
        }
      ],
      "name": "decreaseAllowance",
      "outputs": [
        {
          "name": "",
          "type": "bool"
        }
      ],
      "payable": false,
      "stateMutability": "nonpayable",
      "type": "function"
    },
    {
      "constant": false,
      "inputs": [
        {
          "name": "to",
          "type": "address"
        },
        {
          "name": "value",
          "type": "uint256"
        }
      ],
      "name": "transfer",
      "outputs": [
        {
          "name": "",
          "type": "bool"
        }
      ],
      "payable": false,
      "stateMutability": "nonpayable",
      "type": "function"
    },
    {
      "constant": true,
      "inputs": [
        {
          "name": "account",
          "type": "address"
        }
      ],
      "name": "isMinter",
      "outputs": [
        {
          "name": "",
          "type": "bool"
        }
      ],
      "payable": false,
      "stateMutability": "view",
      "type": "function"
    },
    {
      "constant": true,
      "inputs": [
        {
          "name": "owner",
          "type": "address"
        },
        {
          "name": "spender",
          "type": "address"
        }
      ],
      "name": "allowance",
      "outputs": [
        {
          "name": "",
          "type": "uint256"
        }
      ],
      "payable": false,
      "stateMutability": "view",
      "type": "function"
    },
    {
      "inputs": [],
      "payable": false,
      "stateMutability": "nonpayable",
      "type": "constructor"
    },
    {
      "anonymous": false,
      "inputs": [
        {
          "indexed": false,
          "name": "burner",
          "type": "address"
        },
        {
          "indexed": false,
          "name": "value",
          "type": "uint256"
        },
        {
          "indexed": false,
          "name": "message",
          "type": "string"
        }
      ],
      "name": "TokenBurn",
      "type": "event"
    },
    {
      "anonymous": false,
      "inputs": [
        {
          "indexed": true,
          "name": "account",
          "type": "address"
        }
      ],
      "name": "MinterAdded",
      "type": "event"
    },
    {
      "anonymous": false,
      "inputs": [
        {
          "indexed": true,
          "name": "account",
          "type": "address"
        }
      ],
      "name": "MinterRemoved",
      "type": "event"
    },
    {
      "anonymous": false,
      "inputs": [
        {
          "indexed": true,
          "name": "from",
          "type": "address"
        },
        {
          "indexed": true,
          "name": "to",
          "type": "address"
        },
        {
          "indexed": false,
          "name": "value",
          "type": "uint256"
        }
      ],
      "name": "Transfer",
      "type": "event"
    },
    {
      "anonymous": false,
      "inputs": [
        {
          "indexed": true,
          "name": "owner",
          "type": "address"
        },
        {
          "indexed": true,
          "name": "spender",
          "type": "address"
        },
        {
          "indexed": false,
          "name": "value",
          "type": "uint256"
        }
      ],
      "name": "Approval",
      "type": "event"
    },
    {
      "constant": false,
      "inputs": [
        {
          "name": "value",
          "type": "uint256"
        }
      ],
      "name": "burn",
      "outputs": [],
      "payable": false,
      "stateMutability": "nonpayable",
      "type": "function"
    },
    {
      "constant": false,
      "inputs": [
        {
          "name": "value",
          "type": "uint256"
        },
        {
          "name": "message",
          "type": "string"
        }
      ],
      "name": "burn",
      "outputs": [],
      "payable": false,
      "stateMutability": "nonpayable",
      "type": "function"
    },
    {
      "constant": false,
      "inputs": [
        {
          "name": "from",
          "type": "address"
        },
        {
          "name": "value",
          "type": "uint256"
        }
      ],
      "name": "burnFrom",
      "outputs": [],
      "payable": false,
      "stateMutability": "nonpayable",
      "type": "function"
    },
    {
      "constant": false,
      "inputs": [
        {
          "name": "account",
          "type": "address"
        },
        {
          "name": "value",
          "type": "uint256"
        },
        {
          "name": "message",
          "type": "string"
        }
      ],
      "name": "burnFrom",
      "outputs": [],
      "payable": false,
      "stateMutability": "nonpayable",
      "type": "function"
    }
  ],
  "bytecode": "0x60806040523480156200001157600080fd5b506040805190810160405280600a81526020017f507572706c65636f696e000000000000000000000000000000000000000000008152506040805190810160405280600381526020017f58505500000000000000000000000000000000000000000000000000000000008152506012826000908051906020019062000098929190620002b2565b508160019080519060200190620000b1929190620002b2565b5080600260006101000a81548160ff021916908360ff160217905550505050620000ea33620000f0640100000000026401000000009004565b62000361565b620001148160066200015a6401000000000262001c19179091906401000000009004565b8073ffffffffffffffffffffffffffffffffffffffff167f6ae172837ea30b801fbfcdd4108aa1d5bf8ff775444fd70256b44e6bf3dfc3f660405160405180910390a250565b600073ffffffffffffffffffffffffffffffffffffffff168173ffffffffffffffffffffffffffffffffffffffff16141515156200019757600080fd5b620001b282826200021d640100000000026401000000009004565b151515620001bf57600080fd5b60018260000160008373ffffffffffffffffffffffffffffffffffffffff1673ffffffffffffffffffffffffffffffffffffffff16815260200190815260200160002060006101000a81548160ff0219169083151502179055505050565b60008073ffffffffffffffffffffffffffffffffffffffff168273ffffffffffffffffffffffffffffffffffffffff16141515156200025b57600080fd5b8260000160008373ffffffffffffffffffffffffffffffffffffffff1673ffffffffffffffffffffffffffffffffffffffff16815260200190815260200160002060009054906101000a900460ff16905092915050565b828054600181600116156101000203166002900490600052602060002090601f016020900481019282601f10620002f557805160ff191683800117855562000326565b8280016001018555821562000326579182015b828111156200032557825182559160200191906001019062000308565b5b50905062000335919062000339565b5090565b6200035e91905b808211156200035a57600081600090555060010162000340565b5090565b90565b611da480620003716000396000f300608060405260043610610107576000357c0100000000000000000000000000000000000000000000000000000000900463ffffffff16806306fdde031461010c578063095ea7b31461019c57806318160ddd1461020157806323b872dd1461022c578063313ce567146102b157806339509351146102e257806340c10f191461034757806342966c68146103ac57806370a08231146103d95780637641e6f31461043057806379cc6790146104a357806395d89b41146104f0578063979430d214610580578063983b2d56146106135780639865027514610656578063a457c2d71461066d578063a9059cbb146106d2578063aa271e1a14610737578063dd62ed3e14610792575b600080fd5b34801561011857600080fd5b50610121610809565b6040518080602001828103825283818151815260200191508051906020019080838360005b83811015610161578082015181840152602081019050610146565b50505050905090810190601f16801561018e5780820380516001836020036101000a031916815260200191505b509250505060405180910390f35b3480156101a857600080fd5b506101e7600480360381019080803573ffffffffffffffffffffffffffffffffffffffff169060200190929190803590602001909291905050506108ab565b604051808215151515815260200191505060405180910390f35b34801561020d57600080fd5b506102166109d8565b6040518082815260200191505060405180910390f35b34801561023857600080fd5b50610297600480360381019080803573ffffffffffffffffffffffffffffffffffffffff169060200190929190803573ffffffffffffffffffffffffffffffffffffffff169060200190929190803590602001909291905050506109e2565b604051808215151515815260200191505060405180910390f35b3480156102bd57600080fd5b506102c6610b94565b604051808260ff1660ff16815260200191505060405180910390f35b3480156102ee57600080fd5b5061032d600480360381019080803573ffffffffffffffffffffffffffffffffffffffff16906020019092919080359060200190929190505050610bab565b604051808215151515815260200191505060405180910390f35b34801561035357600080fd5b50610392600480360381019080803573ffffffffffffffffffffffffffffffffffffffff16906020019092919080359060200190929190505050610de2565b604051808215151515815260200191505060405180910390f35b3480156103b857600080fd5b506103d760048036038101908080359060200190929190505050610e0c565b005b3480156103e557600080fd5b5061041a600480360381019080803573ffffffffffffffffffffffffffffffffffffffff169060200190929190505050610e19565b6040518082815260200191505060405180910390f35b34801561043c57600080fd5b506104a160048036038101908080359060200190929190803590602001908201803590602001908080601f0160208091040260200160405190810160405280939291908181526020018383808284378201915050505050509192919290505050610e62565b005b3480156104af57600080fd5b506104ee600480360381019080803573ffffffffffffffffffffffffffffffffffffffff16906020019092919080359060200190929190505050610f47565b005b3480156104fc57600080fd5b50610505610f55565b6040518080602001828103825283818151815260200191508051906020019080838360005b8381101561054557808201518184015260208101905061052a565b50505050905090810190601f1680156105725780820380516001836020036101000a031916815260200191505b509250505060405180910390f35b34801561058c57600080fd5b50610611600480360381019080803573ffffffffffffffffffffffffffffffffffffffff16906020019092919080359060200190929190803590602001908201803590602001908080601f0160208091040260200160405190810160405280939291908181526020018383808284378201915050505050509192919290505050610ff7565b005b34801561061f57600080fd5b50610654600480360381019080803573ffffffffffffffffffffffffffffffffffffffff1690602001909291905050506110de565b005b34801561066257600080fd5b5061066b6110fe565b005b34801561067957600080fd5b506106b8600480360381019080803573ffffffffffffffffffffffffffffffffffffffff16906020019092919080359060200190929190505050611109565b604051808215151515815260200191505060405180910390f35b3480156106de57600080fd5b5061071d600480360381019080803573ffffffffffffffffffffffffffffffffffffffff16906020019092919080359060200190929190505050611340565b604051808215151515815260200191505060405180910390f35b34801561074357600080fd5b50610778600480360381019080803573ffffffffffffffffffffffffffffffffffffffff169060200190929190505050611357565b604051808215151515815260200191505060405180910390f35b34801561079e57600080fd5b506107f3600480360381019080803573ffffffffffffffffffffffffffffffffffffffff169060200190929190803573ffffffffffffffffffffffffffffffffffffffff169060200190929190505050611374565b6040518082815260200191505060405180910390f35b606060008054600181600116156101000203166002900480601f0160208091040260200160405190810160405280929190818152602001828054600181600116156101000203166002900480156108a15780601f10610876576101008083540402835291602001916108a1565b820191906000526020600020905b81548152906001019060200180831161088457829003601f168201915b5050505050905090565b60008073ffffffffffffffffffffffffffffffffffffffff168373ffffffffffffffffffffffffffffffffffffffff16141515156108e857600080fd5b81600460003373ffffffffffffffffffffffffffffffffffffffff1673ffffffffffffffffffffffffffffffffffffffff16815260200190815260200160002060008573ffffffffffffffffffffffffffffffffffffffff1673ffffffffffffffffffffffffffffffffffffffff168152602001908152602001600020819055508273ffffffffffffffffffffffffffffffffffffffff163373ffffffffffffffffffffffffffffffffffffffff167f8c5be1e5ebec7d5bd14f71427d1e84f3dd0314c0f7b2291e5b200ac8c7c3b925846040518082815260200191505060405180910390a36001905092915050565b6000600554905090565b6000600460008573ffffffffffffffffffffffffffffffffffffffff1673ffffffffffffffffffffffffffffffffffffffff16815260200190815260200160002060003373ffffffffffffffffffffffffffffffffffffffff1673ffffffffffffffffffffffffffffffffffffffff168152602001908152602001600020548211151515610a6f57600080fd5b610afe82600460008773ffffffffffffffffffffffffffffffffffffffff1673ffffffffffffffffffffffffffffffffffffffff16815260200190815260200160002060003373ffffffffffffffffffffffffffffffffffffffff1673ffffffffffffffffffffffffffffffffffffffff168152602001908152602001600020546113fb90919063ffffffff16565b600460008673ffffffffffffffffffffffffffffffffffffffff1673ffffffffffffffffffffffffffffffffffffffff16815260200190815260200160002060003373ffffffffffffffffffffffffffffffffffffffff1673ffffffffffffffffffffffffffffffffffffffff16815260200190815260200160002081905550610b8984848461141c565b600190509392505050565b6000600260009054906101000a900460ff16905090565b60008073ffffffffffffffffffffffffffffffffffffffff168373ffffffffffffffffffffffffffffffffffffffff1614151515610be857600080fd5b610c7782600460003373ffffffffffffffffffffffffffffffffffffffff1673ffffffffffffffffffffffffffffffffffffffff16815260200190815260200160002060008673ffffffffffffffffffffffffffffffffffffffff1673ffffffffffffffffffffffffffffffffffffffff1681526020019081526020016000205461163a90919063ffffffff16565b600460003373ffffffffffffffffffffffffffffffffffffffff1673ffffffffffffffffffffffffffffffffffffffff16815260200190815260200160002060008573ffffffffffffffffffffffffffffffffffffffff1673ffffffffffffffffffffffffffffffffffffffff168152602001908152602001600020819055508273ffffffffffffffffffffffffffffffffffffffff163373ffffffffffffffffffffffffffffffffffffffff167f8c5be1e5ebec7d5bd14f71427d1e84f3dd0314c0f7b2291e5b200ac8c7c3b925600460003373ffffffffffffffffffffffffffffffffffffffff1673ffffffffffffffffffffffffffffffffffffffff16815260200190815260200160002060008773ffffffffffffffffffffffffffffffffffffffff1673ffffffffffffffffffffffffffffffffffffffff168152602001908152602001600020546040518082815260200191505060405180910390a36001905092915050565b6000610ded33611357565b1515610df857600080fd5b610e02838361165b565b6001905092915050565b610e16338261179b565b50565b6000600360008373ffffffffffffffffffffffffffffffffffffffff1673ffffffffffffffffffffffffffffffffffffffff168152602001908152602001600020549050919050565b610e6b82610e0c565b7f3a5b36f3638546a2abdfc3f256eb9e55ed5d264bc918d210d7ac8bb003876417338383604051808473ffffffffffffffffffffffffffffffffffffffff1673ffffffffffffffffffffffffffffffffffffffff16815260200183815260200180602001828103825283818151815260200191508051906020019080838360005b83811015610f07578082015181840152602081019050610eec565b50505050905090810190601f168015610f345780820380516001836020036101000a031916815260200191505b5094505050505060405180910390a15050565b610f518282611929565b5050565b606060018054600181600116156101000203166002900480601f016020809104026020016040519081016040528092919081815260200182805460018160011615610100020316600290048015610fed5780601f10610fc257610100808354040283529160200191610fed565b820191906000526020600020905b815481529060010190602001808311610fd057829003601f168201915b5050505050905090565b6110018383610f47565b7f3a5b36f3638546a2abdfc3f256eb9e55ed5d264bc918d210d7ac8bb003876417838383604051808473ffffffffffffffffffffffffffffffffffffffff1673ffffffffffffffffffffffffffffffffffffffff16815260200183815260200180602001828103825283818151815260200191508051906020019080838360005b8381101561109d578082015181840152602081019050611082565b50505050905090810190601f1680156110ca5780820380516001836020036101000a031916815260200191505b5094505050505060405180910390a1505050565b6110e733611357565b15156110f257600080fd5b6110fb81611ad1565b50565b61110733611b2b565b565b60008073ffffffffffffffffffffffffffffffffffffffff168373ffffffffffffffffffffffffffffffffffffffff161415151561114657600080fd5b6111d582600460003373ffffffffffffffffffffffffffffffffffffffff1673ffffffffffffffffffffffffffffffffffffffff16815260200190815260200160002060008673ffffffffffffffffffffffffffffffffffffffff1673ffffffffffffffffffffffffffffffffffffffff168152602001908152602001600020546113fb90919063ffffffff16565b600460003373ffffffffffffffffffffffffffffffffffffffff1673ffffffffffffffffffffffffffffffffffffffff16815260200190815260200160002060008573ffffffffffffffffffffffffffffffffffffffff1673ffffffffffffffffffffffffffffffffffffffff168152602001908152602001600020819055508273ffffffffffffffffffffffffffffffffffffffff163373ffffffffffffffffffffffffffffffffffffffff167f8c5be1e5ebec7d5bd14f71427d1e84f3dd0314c0f7b2291e5b200ac8c7c3b925600460003373ffffffffffffffffffffffffffffffffffffffff1673ffffffffffffffffffffffffffffffffffffffff16815260200190815260200160002060008773ffffffffffffffffffffffffffffffffffffffff1673ffffffffffffffffffffffffffffffffffffffff168152602001908152602001600020546040518082815260200191505060405180910390a36001905092915050565b600061134d33848461141c565b6001905092915050565b600061136d826006611b8590919063ffffffff16565b9050919050565b6000600460008473ffffffffffffffffffffffffffffffffffffffff1673ffffffffffffffffffffffffffffffffffffffff16815260200190815260200160002060008373ffffffffffffffffffffffffffffffffffffffff1673ffffffffffffffffffffffffffffffffffffffff16815260200190815260200160002054905092915050565b60008083831115151561140d57600080fd5b82840390508091505092915050565b600360008473ffffffffffffffffffffffffffffffffffffffff1673ffffffffffffffffffffffffffffffffffffffff16815260200190815260200160002054811115151561146a57600080fd5b600073ffffffffffffffffffffffffffffffffffffffff168273ffffffffffffffffffffffffffffffffffffffff16141515156114a657600080fd5b6114f881600360008673ffffffffffffffffffffffffffffffffffffffff1673ffffffffffffffffffffffffffffffffffffffff168152602001908152602001600020546113fb90919063ffffffff16565b600360008573ffffffffffffffffffffffffffffffffffffffff1673ffffffffffffffffffffffffffffffffffffffff1681526020019081526020016000208190555061158d81600360008573ffffffffffffffffffffffffffffffffffffffff1673ffffffffffffffffffffffffffffffffffffffff1681526020019081526020016000205461163a90919063ffffffff16565b600360008473ffffffffffffffffffffffffffffffffffffffff1673ffffffffffffffffffffffffffffffffffffffff168152602001908152602001600020819055508173ffffffffffffffffffffffffffffffffffffffff168373ffffffffffffffffffffffffffffffffffffffff167fddf252ad1be2c89b69c2b068fc378daa952ba7f163c4a11628f55a4df523b3ef836040518082815260200191505060405180910390a3505050565b600080828401905083811015151561165157600080fd5b8091505092915050565b60008273ffffffffffffffffffffffffffffffffffffffff161415151561168157600080fd5b6116968160055461163a90919063ffffffff16565b6005819055506116ee81600360008573ffffffffffffffffffffffffffffffffffffffff1673ffffffffffffffffffffffffffffffffffffffff1681526020019081526020016000205461163a90919063ffffffff16565b600360008473ffffffffffffffffffffffffffffffffffffffff1673ffffffffffffffffffffffffffffffffffffffff168152602001908152602001600020819055508173ffffffffffffffffffffffffffffffffffffffff16600073ffffffffffffffffffffffffffffffffffffffff167fddf252ad1be2c89b69c2b068fc378daa952ba7f163c4a11628f55a4df523b3ef836040518082815260200191505060405180910390a35050565b60008273ffffffffffffffffffffffffffffffffffffffff16141515156117c157600080fd5b600360008373ffffffffffffffffffffffffffffffffffffffff1673ffffffffffffffffffffffffffffffffffffffff16815260200190815260200160002054811115151561180f57600080fd5b611824816005546113fb90919063ffffffff16565b60058190555061187c81600360008573ffffffffffffffffffffffffffffffffffffffff1673ffffffffffffffffffffffffffffffffffffffff168152602001908152602001600020546113fb90919063ffffffff16565b600360008473ffffffffffffffffffffffffffffffffffffffff1673ffffffffffffffffffffffffffffffffffffffff16815260200190815260200160002081905550600073ffffffffffffffffffffffffffffffffffffffff168273ffffffffffffffffffffffffffffffffffffffff167fddf252ad1be2c89b69c2b068fc378daa952ba7f163c4a11628f55a4df523b3ef836040518082815260200191505060405180910390a35050565b600460008373ffffffffffffffffffffffffffffffffffffffff1673ffffffffffffffffffffffffffffffffffffffff16815260200190815260200160002060003373ffffffffffffffffffffffffffffffffffffffff1673ffffffffffffffffffffffffffffffffffffffff1681526020019081526020016000205481111515156119b457600080fd5b611a4381600460008573ffffffffffffffffffffffffffffffffffffffff1673ffffffffffffffffffffffffffffffffffffffff16815260200190815260200160002060003373ffffffffffffffffffffffffffffffffffffffff1673ffffffffffffffffffffffffffffffffffffffff168152602001908152602001600020546113fb90919063ffffffff16565b600460008473ffffffffffffffffffffffffffffffffffffffff1673ffffffffffffffffffffffffffffffffffffffff16815260200190815260200160002060003373ffffffffffffffffffffffffffffffffffffffff1673ffffffffffffffffffffffffffffffffffffffff16815260200190815260200160002081905550611acd828261179b565b5050565b611ae5816006611c1990919063ffffffff16565b8073ffffffffffffffffffffffffffffffffffffffff167f6ae172837ea30b801fbfcdd4108aa1d5bf8ff775444fd70256b44e6bf3dfc3f660405160405180910390a250565b611b3f816006611cc990919063ffffffff16565b8073ffffffffffffffffffffffffffffffffffffffff167fe94479a9f7e1952cc78f2d6baab678adc1b772d936c6583def489e524cb6669260405160405180910390a250565b60008073ffffffffffffffffffffffffffffffffffffffff168273ffffffffffffffffffffffffffffffffffffffff1614151515611bc257600080fd5b8260000160008373ffffffffffffffffffffffffffffffffffffffff1673ffffffffffffffffffffffffffffffffffffffff16815260200190815260200160002060009054906101000a900460ff16905092915050565b600073ffffffffffffffffffffffffffffffffffffffff168173ffffffffffffffffffffffffffffffffffffffff1614151515611c5557600080fd5b611c5f8282611b85565b151515611c6b57600080fd5b60018260000160008373ffffffffffffffffffffffffffffffffffffffff1673ffffffffffffffffffffffffffffffffffffffff16815260200190815260200160002060006101000a81548160ff0219169083151502179055505050565b600073ffffffffffffffffffffffffffffffffffffffff168173ffffffffffffffffffffffffffffffffffffffff1614151515611d0557600080fd5b611d0f8282611b85565b1515611d1a57600080fd5b60008260000160008373ffffffffffffffffffffffffffffffffffffffff1673ffffffffffffffffffffffffffffffffffffffff16815260200190815260200160002060006101000a81548160ff02191690831515021790555050505600a165627a7a7230582023427575a1ccd3c80063e9192f9a173ba78f27d7ccdcba3570e607f7046538320029",
  "source": "pragma solidity ^0.4.24;\n\n/// @custom:security-contact security@purpletech.io\n\nimport \"openzeppelin-solidity/contracts/token/ERC20/ERC20Detailed.sol\";\nimport \"openzeppelin-solidity/contracts/token/ERC20/ERC20Mintable.sol\";\nimport \"openzeppelin-solidity/contracts/token/ERC20/ERC20Burnable.sol\";\nimport \"openzeppelin-solidity/contracts/math/SafeMath.sol\";\nimport './MathHelp.sol';\nimport \"./Ownable.sol\";\n\ncontract Purplecoin is ERC20Detailed, ERC20Mintable, ERC20Burnable {\n    constructor() public ERC20Detailed(\"Purplecoin\", \"XPU\", 18) {}\n\n    /**\n     * Event for burning tokens\n     * @param burner The address burning the tokens\n     * @param value amount of tokens burnt\n     * @param message burn additional data\n     */\n    event TokenBurn(\n        address burner,\n        uint256 value,\n        string message\n    );\n\n    /**\n     * @dev Burn tokens with message. Used to transfer coins to the main chain when message is a Purplecoin address.\n     * @param value amount of tokens to be burnt\n     * @param message additional data\n     */\n    function burn(uint256 value, string message) public {\n        super.burn(value);\n        emit TokenBurn(msg.sender, value, message);\n    }\n\n    /**\n     * @dev Burn tokens from address with message. Used to transfer coins to the main chain when message is a Purplecoin address.\n     * @param account account to burn tokens from\n     * @param value amount of tokens to be burnt\n     * @param message additional data\n     */\n    function burnFrom(address account, uint256 value, string message) public {\n        super.burnFrom(account, value);\n        emit TokenBurn(account, value, message);\n    }\n}\n\ncontract PurplecoinCrowdsale is Ownable {\n    using SafeMath for uint256;\n\n    uint256 stage = 0;\n\n    // Mapping of KYC authorisations\n    mapping(address => bool) public kyc_authorised;\n\n    // Mapping of Pending purchases \n    mapping(address => bool) public pending;\n\n    // Mapping of pending Wei\n    mapping(address => uint256) public pending_wei;\n\n    // Mapping of pending psats \n    mapping(address => uint256) public pending_psats;\n\n    // Balances\n    mapping(address => uint256) private _balances;\n\n    // Wei raised per address\n    mapping(address => uint256) private _wei_raised_per_address;\n\n    MathHelp math = new MathHelp();\n\n    // Amount sold, refunded, and in escrow\n    // --------------------------\n    uint256 public totalPsatsInEscrow;\n    uint256 public totalWeiInEscrow;\n    uint256 public totalSoldPsats;\n    uint256 public totalWeiInSettledEscrow;\n\n    // -----------------------\n    uint256 public tokensCap;\n    uint256 public individualTokensCap;\n    uint256 private bonus;\n    uint256[] private WAVE_CAPS;\n    uint256[] private WAVE_BONUSES;\n    bool public isFinalized;\n    ERC20Mintable public token;\n\n    // Address where funds are collected\n    address public wallet;\n\n    // How many token units a buyer gets per wei\n    uint256 public rate;\n\n    // Amount of wei raised\n    uint256 public weiRaised;\n\n    // Minimum buy amount\n    uint256 public minBuy;\n\n    /// @dev counter to allow mutex lock with only one SSTORE operation\n    uint256 private _guardCounter;\n\n    constructor(uint256 _rate, uint256 _coins, uint256[] _waveCaps, uint256[] _waveBonuses, address _wallet) public {\n        wallet = _wallet;\n        uint256 decimals = 10 ** 18; // 18 decimal places\n        tokensCap = _coins * decimals;\n        _waveCaps[0] = 37999000000000000000000000;\n        _waveCaps[1] = 75998000000000000000000000;\n        _waveCaps[2] = 113997001000000000000000000;\n        individualTokensCap = 500000000000000000000000; // Max 500,000 XPU per person \n        minBuy = 10000000000000000; // 0.01 ETH min buy\n        rate = _rate;\n        token = createTokenContract();\n        WAVE_CAPS = _waveCaps;\n        WAVE_BONUSES = _waveBonuses;\n        setCrowdsaleStage(0); //set in pre Sale stage\n\n        // Init balances\n        _balances[0x25E320b95316bAA3d300155aD82A0aEBEE400E66] = 1821600000000000000000; // https://etherscan.io/tx/0x7ae5653adfdeb4f0ec8c7d1e3de11edbc84cac4c0a6fbf5141a9c49b5481497b\n\n        // Dev fund, 0.5% of the supply\n        _balances[0x130fCeAD624C57aB46EF073bd1a940ACF8Bf2c85] = 11399700000000000000000000;\n\n        // The counter starts at one to prevent changing it from zero to a non-zero\n        // value, which is a more expensive operation.\n        _guardCounter = 1;\n    }\n\n    // ==============================\n\n    // Events\n    // ---------------------\n    event EthTransferred(uint256 amount);\n    event PurchaseCancelled(address indexed beneficiary);\n    event KycAuthorised(address indexed beneficiary);\n    event IncrementWave(uint256 newWave);\n    event TokenMint(address indexed beneficiary, uint256 amount);\n    event CrowdsaleFinalized();\n\n    /**\n     * Event for token purchase logging\n     * @param purchaser who paid for the tokens\n     * @param beneficiary who got the tokens\n     * @param value weis paid for purchase\n     * @param amount amount of tokens purchased\n     */\n    event TokenPurchase(\n        address indexed purchaser,\n        address indexed beneficiary,\n        bool authorised,\n        uint256 value,\n        uint256 amount\n    );\n\n    /**\n     * @dev fallback function ***DO NOT OVERRIDE***\n     * Note that other contracts will transfer fund with a base gas stipend\n     * of 2300, which is not enough to call buyTokens. Consider calling\n     * buyTokens directly when purchasing tokens from a contract.\n     */\n    function () external payable {\n        buyTokens(msg.sender);\n    }\n\n    /**\n     * @dev Reverts if beneficiary is not authorized. Can be used when extending this contract.\n     * @param _beneficiary beneficiary address\n     */\n    modifier isAuthorised(address _beneficiary) {\n        require(kyc_authorised[_beneficiary]);\n        _;\n    }\n\n    /**\n     * @dev Reverts if beneficiary is not pending. Can be used when extending this contract.\n     */\n    modifier isPending(address _beneficiary) {\n        require(pending[_beneficiary]);\n        _;\n    }\n\n    // Reentrancy Guard\n    // -----------------------\n\n    /**\n     * @dev Prevents a contract from calling itself, directly or indirectly.\n     * Calling a `nonReentrant` function from another `nonReentrant`\n     * function is not supported. It is possible to prevent this from happening\n     * by making the `nonReentrant` function external, and make it call a\n     * `private` function that does the actual work.\n     */\n    modifier nonReentrant() {\n        _guardCounter += 1;\n        uint256 localCounter = _guardCounter;\n        _;\n        require(localCounter == _guardCounter);\n    }\n\n    // Post delivery\n    // -----------------------\n\n    /**\n     * @dev Withdraw tokens only after crowdsale ends.\n     * @param _beneficiary Whose tokens will be withdrawn.\n     */\n    function withdrawTokens(address _beneficiary) nonReentrant public {\n        require(isFinalized);\n        uint256 amount = _balances[_beneficiary];\n        require(amount > 0);\n        _balances[_beneficiary] = 0;\n        _deliverTokens(_beneficiary, amount);\n    }\n\n    /**\n     * @return the balance of an account.\n     */\n    function balanceOf(address account) public view returns(uint256) {\n        return _balances[account];\n    }\n\n    // Crowdsale Stages\n    // -----------------------\n\n    // Change Crowdsale Stage.\n    function setCrowdsaleStage(uint256 _stage) private {\n        setCurrentBonus(WAVE_BONUSES[_stage]);\n        stage = _stage;\n    }\n\n    function getCurrentStage() public constant returns (uint256){\n        return stage;\n    }\n\n\n    function currentWaveCap() public constant returns (uint256) {\n        return WAVE_CAPS[stage];\n    }\n\n    function incrementWave() private {\n        stage = stage + 1;\n        emit IncrementWave(stage);\n        return;\n    }\n\n    // Change the current bonus\n    function setCurrentBonus(uint256 _bonus) private {\n        bonus = _bonus;\n        return;\n    }\n\n    //---------------------------end stages----------------------------------\n\n    // creates the token to be sold.\n    // override this method to have crowdsale of a specific ERC20Mintable token.\n    function createTokenContract() internal returns (ERC20Mintable) {\n        return new Purplecoin();\n    }\n\n    function _shouldIncrementWave(uint256 _currentWaveCap) constant internal returns (bool){\n        return totalSoldPsats.add(totalPsatsInEscrow) >= _currentWaveCap;\n    }\n\n    // Override to execute any logic once the crowdsale finalizes\n    // Requires a call to the public finalize method\n    function finalization() internal {\n        // mint the rest of the tokens\n        // if (token.totalSupply() < tokensCap) {\n        //     mintTokens(remainingTokensWallet, tokensCap.sub(token.totalSupply()));\n        // }\n        //no more tokens from now on\n        //token.finishMinting();\n        emit CrowdsaleFinalized();\n    }\n\n    function finalize() public onlyOwner {\n        require(!isFinalized);\n        finalization();\n        isFinalized = true;\n    }\n\n    function clearWeiInSettledEscrow() public onlyOwner {\n        require(totalWeiInSettledEscrow > 0);\n        wallet.transfer(totalWeiInSettledEscrow);\n        emit EthTransferred(totalWeiInSettledEscrow);\n        totalWeiInSettledEscrow = 0;\n    }\n\n\n    function mintTokens(address _beneficiary, uint256 tokens) internal {\n        require(_beneficiary != 0x0);\n        // Cannot mint before sale is closed\n        require(isFinalized);\n        token.mint(_beneficiary, tokens);\n        emit TokenMint(_beneficiary, tokens);\n    }\n\n    /**\n     * @dev Update the rate\n     * @param _rate new rate\n     */\n    function updateRate(uint256 _rate) public onlyOwner {\n        require(!isFinalized);\n        rate = _rate;\n    }\n\n    /**\n     * @dev Update the minBuy\n     * @param _minBuy new minBuy\n     */\n    function updateMinBuy(uint256 _minBuy) public onlyOwner {\n        require(!isFinalized);\n        minBuy = _minBuy;\n    }\n\n    /**\n     * @dev Update the individualTokensCap\n     * @param _individualTokensCap new individualTokensCap\n     */\n    function updateIndividualTokensCap(uint256 _individualTokensCap) public onlyOwner {\n        require(!isFinalized);\n        individualTokensCap = _individualTokensCap;\n    }\n\n    // KYC\n    // -----------------------\n\n    /**\n     * @dev Authorise token transfer for address.\n     * @param _beneficiary beneficiary address\n     */\n    function authorise(address _beneficiary) public nonReentrant isPending(_beneficiary) onlyOwner {\n        emit KycAuthorised(_beneficiary);\n        _forwardPendingFunds(_beneficiary);\n    }\n\n    /**\n     * @dev Authorise token transfers for a batch of addresses.\n     * @param _beneficiaries Beneficiaries array\n     */\n    function authoriseMany(address[] _beneficiaries) external nonReentrant onlyOwner {\n        for(uint256 i=0; i < _beneficiaries.length; i++) {\n            authorise(_beneficiaries[i]);\n        }\n    }\n\n    function withdrawalAllowed(address _beneficiary) public view returns(bool) {\n        return kyc_authorised[_beneficiary];\n    }\n\n    // Crowdsale overrides\n    // -----------------------\n\n    // Override this method to have a way to add business logic to your crowdsale when buying\n    // Returns weiAmount times rate by default\n    function _getTokenAmount(uint256 weiAmount) internal view returns (uint256) {\n        return rate.mul(weiAmount.add(math.getPercentAmount(weiAmount, bonus, 18)));\n    }\n\n    function cancelPurchase() public nonReentrant isPending(msg.sender) {\n        require(pending_wei[msg.sender] != 0);\n        uint256 to_refund = pending_wei[msg.sender];\n        totalWeiInEscrow = totalWeiInEscrow.sub(pending_wei[msg.sender]);\n        totalPsatsInEscrow = totalPsatsInEscrow.sub(pending_psats[msg.sender]);\n        pending[msg.sender] = false;\n        pending_wei[msg.sender] = 0;\n        pending_psats[msg.sender] = 0;\n        msg.sender.transfer(to_refund);\n        emit PurchaseCancelled(msg.sender);\n    }\n\n    function cancelPurchaseFor(address _beneficiary) public nonReentrant isPending(_beneficiary) onlyOwner {\n        require(pending_wei[_beneficiary] != 0);\n        uint256 to_refund = pending_wei[_beneficiary];\n        totalWeiInEscrow = totalWeiInEscrow.sub(pending_wei[_beneficiary]);\n        totalPsatsInEscrow = totalPsatsInEscrow.sub(pending_psats[_beneficiary]);\n        pending[_beneficiary] = false;\n        pending_wei[_beneficiary] = 0;\n        pending_psats[_beneficiary] = 0;\n        _beneficiary.transfer(to_refund);\n        emit PurchaseCancelled(_beneficiary);\n    }\n\n    /**\n     * @dev low level token purchase ***DO NOT OVERRIDE***\n     * @param _beneficiary Address performing the token purchase\n     */\n    function buyTokens(address _beneficiary) public nonReentrant payable {\n        uint256 weiAmount = msg.value;\n        _preValidatePurchase(_beneficiary, weiAmount);\n\n        // calculate token amount to be created\n        uint256 tokens = _getTokenAmount(weiAmount);\n\n        _processPurchase(_beneficiary, tokens);\n        emit TokenPurchase(msg.sender, _beneficiary, kyc_authorised[_beneficiary], weiAmount, tokens);\n\n        _forwardFunds(_beneficiary);\n    }\n\n    /**\n     * @dev Validation of an incoming purchase. Use require statements to revert state when conditions are not met. Use `super` in contracts that inherit from Crowdsale to extend their validations.\n     * Example from CappedCrowdsale.sol's _preValidatePurchase method:\n     *   super._preValidatePurchase(beneficiary, weiAmount);\n     *   require(weiRaised().add(weiAmount) <= cap);\n     * @param beneficiary Address performing the token purchase\n     * @param weiAmount Value in wei involved in the purchase\n    */\n    function _preValidatePurchase(\n        address beneficiary,\n        uint256 weiAmount\n    )\n        internal\n        view\n    {\n        uint256 tokenAmount = _getTokenAmount(weiAmount);\n        require(beneficiary != address(0));\n        require(_wei_raised_per_address[beneficiary].add(pending_wei[beneficiary]).add(weiAmount) >= minBuy);    // Min buy\n        require(!isFinalized);\n        require(_balances[beneficiary].add(pending_psats[beneficiary]).add(tokenAmount) <= individualTokensCap); // Individual cap\n        require(tokenAmount.add(totalSoldPsats).add(totalPsatsInEscrow) <= tokensCap);                           // Sale cap\n    }\n\n    /**\n     * @dev Source of tokens. Override this method to modify the way in which the crowdsale ultimately gets and sends its tokens.\n     * @param _beneficiary Address performing the token purchase\n     * @param _tokenAmount Number of tokens to be emitted\n     */\n    function _deliverTokens(address _beneficiary, uint256 _tokenAmount) \n        internal \n        isAuthorised(_beneficiary) \n    {\n        mintTokens(_beneficiary, _tokenAmount);\n    }\n\n    /**\n     * @dev Executed when a purchase has been validated and is ready to be executed. Not necessarily emits/sends tokens.\n     * @param _beneficiary Address receiving the tokens\n     * @param _tokenAmount Number of tokens to be purchased\n     */\n    function _processPurchase(address _beneficiary, uint256 _tokenAmount)\n        internal\n    {\n        if (kyc_authorised[_beneficiary]) {\n            weiRaised = weiRaised.add(msg.value);\n            _wei_raised_per_address[_beneficiary] = _wei_raised_per_address[_beneficiary].add(msg.value);\n            _balances[_beneficiary] = _balances[_beneficiary].add(_tokenAmount);\n            totalSoldPsats = totalSoldPsats.add(_tokenAmount);\n        } else {\n            kyc_authorised[_beneficiary] = false;\n            pending[_beneficiary] = true;\n            pending_psats[_beneficiary] = pending_psats[_beneficiary].add(_tokenAmount);\n            totalPsatsInEscrow = totalPsatsInEscrow.add(_tokenAmount);\n            if (_shouldIncrementWave(currentWaveCap())) {\n                incrementWave();\n            }\n        }\n    }\n\n    // Override to create custom fund forwarding mechanisms\n    // Forwards funds to the specified wallet by default\n    function _forwardFunds(address _beneficiary) internal {\n        if (kyc_authorised[_beneficiary]) {\n            if (_shouldIncrementWave(currentWaveCap())) {\n                incrementWave();\n            }\n            totalWeiInSettledEscrow = totalWeiInSettledEscrow.add(msg.value);\n        } else {\n            pending_wei[_beneficiary] = pending_wei[_beneficiary].add(msg.value);\n            totalWeiInEscrow = totalWeiInEscrow.add(msg.value);\n        }\n    }\n\n    // Override to create custom pending fund forwarding mechanisms\n    // Forwards funds to the specified wallet by default\n    function _forwardPendingFunds(address _beneficiary) internal {\n        weiRaised = weiRaised.add(pending_wei[_beneficiary]);\n        _wei_raised_per_address[_beneficiary] = _wei_raised_per_address[_beneficiary].add(pending_wei[_beneficiary]);\n        totalWeiInEscrow = totalWeiInEscrow.sub(pending_wei[_beneficiary]);\n        totalSoldPsats = totalSoldPsats.add(pending_psats[_beneficiary]);\n        totalPsatsInEscrow = totalPsatsInEscrow.sub(pending_psats[_beneficiary]);\n        \n        _balances[_beneficiary] = _balances[_beneficiary].add(pending_psats[_beneficiary]);\n        wallet.transfer(pending_wei[_beneficiary]);\n        emit EthTransferred(pending_wei[_beneficiary]);\n\n        pending_wei[_beneficiary] = 0;\n        pending_psats[_beneficiary] = 0;\n        kyc_authorised[_beneficiary] = true;\n        pending[_beneficiary] = false;\n    }\n}",
  "sourcePath": "/Users/octavonce/Projects/purplecoin_crowdsale/contracts/PurplecoinCrowdsale.sol",
  "compiler": {
    "name": "solc",
    "version": "0.4.24+commit.e67f0147.Emscripten.clang"
  },
  "schemaVersion": "3.4.11",
  "updatedAt": "2023-05-18T20:31:55.571Z",
  "devdoc": {
    "methods": {
      "allowance(address,address)": {
        "details": "Function to check the amount of tokens that an owner allowed to a spender.",
        "params": {
          "owner": "address The address which owns the funds.",
          "spender": "address The address which will spend the funds."
        },
        "return": "A uint256 specifying the amount of tokens still available for the spender."
      },
      "approve(address,uint256)": {
        "details": "Approve the passed address to spend the specified amount of tokens on behalf of msg.sender. Beware that changing an allowance with this method brings the risk that someone may use both the old and the new allowance by unfortunate transaction ordering. One possible solution to mitigate this race condition is to first reduce the spender's allowance to 0 and set the desired value afterwards: https://github.com/ethereum/EIPs/issues/20#issuecomment-263524729",
        "params": {
          "spender": "The address which will spend the funds.",
          "value": "The amount of tokens to be spent."
        }
      },
      "balanceOf(address)": {
        "details": "Gets the balance of the specified address.",
        "params": {
          "owner": "The address to query the balance of."
        },
        "return": "An uint256 representing the amount owned by the passed address."
      },
      "burn(uint256)": {
        "details": "Burns a specific amount of tokens.",
        "params": {
          "value": "The amount of token to be burned."
        }
      },
      "burn(uint256,string)": {
        "details": "Burn tokens with message. Used to transfer coins to the main chain when message is a Purplecoin address.",
        "params": {
          "message": "additional data",
          "value": "amount of tokens to be burnt"
        }
      },
      "burnFrom(address,uint256)": {
        "details": "Burns a specific amount of tokens from the target address and decrements allowance",
        "params": {
          "from": "address The address which you want to send tokens from",
          "value": "uint256 The amount of token to be burned"
        }
      },
      "burnFrom(address,uint256,string)": {
        "details": "Burn tokens from address with message. Used to transfer coins to the main chain when message is a Purplecoin address.",
        "params": {
          "account": "account to burn tokens from",
          "message": "additional data",
          "value": "amount of tokens to be burnt"
        }
      },
      "decimals()": {
        "return": "the number of decimals of the token."
      },
      "decreaseAllowance(address,uint256)": {
        "details": "Decrease the amount of tokens that an owner allowed to a spender. approve should be called when allowed_[_spender] == 0. To decrement allowed value is better to use this function to avoid 2 calls (and wait until the first transaction is mined) From MonolithDAO Token.sol",
        "params": {
          "spender": "The address which will spend the funds.",
          "subtractedValue": "The amount of tokens to decrease the allowance by."
        }
      },
      "increaseAllowance(address,uint256)": {
        "details": "Increase the amount of tokens that an owner allowed to a spender. approve should be called when allowed_[_spender] == 0. To increment allowed value is better to use this function to avoid 2 calls (and wait until the first transaction is mined) From MonolithDAO Token.sol",
        "params": {
          "addedValue": "The amount of tokens to increase the allowance by.",
          "spender": "The address which will spend the funds."
        }
      },
      "mint(address,uint256)": {
        "details": "Function to mint tokens",
        "params": {
          "to": "The address that will receive the minted tokens.",
          "value": "The amount of tokens to mint."
        },
        "return": "A boolean that indicates if the operation was successful."
      },
      "name()": {
        "return": "the name of the token."
      },
      "symbol()": {
        "return": "the symbol of the token."
      },
      "totalSupply()": {
        "details": "Total number of tokens in existence"
      },
      "transfer(address,uint256)": {
        "details": "Transfer token for a specified address",
        "params": {
          "to": "The address to transfer to.",
          "value": "The amount to be transferred."
        }
      },
      "transferFrom(address,address,uint256)": {
        "details": "Transfer tokens from one address to another",
        "params": {
          "from": "address The address which you want to send tokens from",
          "to": "address The address which you want to transfer to",
          "value": "uint256 the amount of tokens to be transferred"
        }
      }
    }
  },
  "userdoc": {
    "methods": {}
  }
}