{
  "contractName": "PurplecoinCrowdsale",
  "abi": [
    {
      "constant": true,
      "inputs": [],
      "name": "tokensCap",
      "outputs": [
        {
          "name": "",
          "type": "uint256"
        }
      ],
      "payable": false,
      "stateMutability": "view",
      "type": "function"
    },
    {
      "constant": true,
      "inputs": [],
      "name": "totalWeiInSettledEscrow",
      "outputs": [
        {
          "name": "",
          "type": "uint256"
        }
      ],
      "payable": false,
      "stateMutability": "view",
      "type": "function"
    },
    {
      "constant": true,
      "inputs": [],
      "name": "totalSoldPsats",
      "outputs": [
        {
          "name": "",
          "type": "uint256"
        }
      ],
      "payable": false,
      "stateMutability": "view",
      "type": "function"
    },
    {
      "constant": true,
      "inputs": [],
      "name": "rate",
      "outputs": [
        {
          "name": "",
          "type": "uint256"
        }
      ],
      "payable": false,
      "stateMutability": "view",
      "type": "function"
    },
    {
      "constant": true,
      "inputs": [
        {
          "name": "",
          "type": "address"
        }
      ],
      "name": "pending_psats",
      "outputs": [
        {
          "name": "",
          "type": "uint256"
        }
      ],
      "payable": false,
      "stateMutability": "view",
      "type": "function"
    },
    {
      "constant": true,
      "inputs": [],
      "name": "weiRaised",
      "outputs": [
        {
          "name": "",
          "type": "uint256"
        }
      ],
      "payable": false,
      "stateMutability": "view",
      "type": "function"
    },
    {
      "constant": true,
      "inputs": [],
      "name": "wallet",
      "outputs": [
        {
          "name": "",
          "type": "address"
        }
      ],
      "payable": false,
      "stateMutability": "view",
      "type": "function"
    },
    {
      "constant": true,
      "inputs": [
        {
          "name": "",
          "type": "address"
        }
      ],
      "name": "pending",
      "outputs": [
        {
          "name": "",
          "type": "bool"
        }
      ],
      "payable": false,
      "stateMutability": "view",
      "type": "function"
    },
    {
      "constant": true,
      "inputs": [],
      "name": "totalPsatsInEscrow",
      "outputs": [
        {
          "name": "",
          "type": "uint256"
        }
      ],
      "payable": false,
      "stateMutability": "view",
      "type": "function"
    },
    {
      "constant": false,
      "inputs": [],
      "name": "renounceOwnership",
      "outputs": [],
      "payable": false,
      "stateMutability": "nonpayable",
      "type": "function"
    },
    {
      "constant": true,
      "inputs": [],
      "name": "isFinalized",
      "outputs": [
        {
          "name": "",
          "type": "bool"
        }
      ],
      "payable": false,
      "stateMutability": "view",
      "type": "function"
    },
    {
      "constant": true,
      "inputs": [],
      "name": "owner",
      "outputs": [
        {
          "name": "",
          "type": "address"
        }
      ],
      "payable": false,
      "stateMutability": "view",
      "type": "function"
    },
    {
      "constant": true,
      "inputs": [
        {
          "name": "",
          "type": "address"
        }
      ],
      "name": "banned",
      "outputs": [
        {
          "name": "",
          "type": "bool"
        }
      ],
      "payable": false,
      "stateMutability": "view",
      "type": "function"
    },
    {
      "constant": true,
      "inputs": [],
      "name": "totalWeiInEscrow",
      "outputs": [
        {
          "name": "",
          "type": "uint256"
        }
      ],
      "payable": false,
      "stateMutability": "view",
      "type": "function"
    },
    {
      "constant": true,
      "inputs": [
        {
          "name": "",
          "type": "address"
        }
      ],
      "name": "pending_wei",
      "outputs": [
        {
          "name": "",
          "type": "uint256"
        }
      ],
      "payable": false,
      "stateMutability": "view",
      "type": "function"
    },
    {
      "constant": true,
      "inputs": [
        {
          "name": "",
          "type": "address"
        }
      ],
      "name": "kyc_authorised",
      "outputs": [
        {
          "name": "",
          "type": "bool"
        }
      ],
      "payable": false,
      "stateMutability": "view",
      "type": "function"
    },
    {
      "constant": true,
      "inputs": [],
      "name": "individualTokensCap",
      "outputs": [
        {
          "name": "",
          "type": "uint256"
        }
      ],
      "payable": false,
      "stateMutability": "view",
      "type": "function"
    },
    {
      "constant": false,
      "inputs": [
        {
          "name": "newOwner",
          "type": "address"
        }
      ],
      "name": "transferOwnership",
      "outputs": [],
      "payable": false,
      "stateMutability": "nonpayable",
      "type": "function"
    },
    {
      "constant": true,
      "inputs": [],
      "name": "token",
      "outputs": [
        {
          "name": "",
          "type": "address"
        }
      ],
      "payable": false,
      "stateMutability": "view",
      "type": "function"
    },
    {
      "inputs": [
        {
          "name": "_rate",
          "type": "uint256"
        },
        {
          "name": "_coins",
          "type": "uint256"
        },
        {
          "name": "_waveCaps",
          "type": "uint256[]"
        },
        {
          "name": "_waveBonuses",
          "type": "uint256[]"
        },
        {
          "name": "_wallet",
          "type": "address"
        }
      ],
      "payable": false,
      "stateMutability": "nonpayable",
      "type": "constructor"
    },
    {
      "payable": true,
      "stateMutability": "payable",
      "type": "fallback"
    },
    {
      "anonymous": false,
      "inputs": [
        {
          "indexed": false,
          "name": "amount",
          "type": "uint256"
        }
      ],
      "name": "EthTransferred",
      "type": "event"
    },
    {
      "anonymous": false,
      "inputs": [
        {
          "indexed": true,
          "name": "beneficiary",
          "type": "address"
        }
      ],
      "name": "PurchaseCancelled",
      "type": "event"
    },
    {
      "anonymous": false,
      "inputs": [
        {
          "indexed": true,
          "name": "beneficiary",
          "type": "address"
        }
      ],
      "name": "KycAuthorised",
      "type": "event"
    },
    {
      "anonymous": false,
      "inputs": [
        {
          "indexed": false,
          "name": "newWave",
          "type": "uint256"
        }
      ],
      "name": "IncrementWave",
      "type": "event"
    },
    {
      "anonymous": false,
      "inputs": [
        {
          "indexed": true,
          "name": "beneficiary",
          "type": "address"
        },
        {
          "indexed": false,
          "name": "amount",
          "type": "uint256"
        }
      ],
      "name": "TokenMint",
      "type": "event"
    },
    {
      "anonymous": false,
      "inputs": [],
      "name": "CrowdsaleFinalized",
      "type": "event"
    },
    {
      "anonymous": false,
      "inputs": [
        {
          "indexed": true,
          "name": "purchaser",
          "type": "address"
        },
        {
          "indexed": true,
          "name": "beneficiary",
          "type": "address"
        },
        {
          "indexed": false,
          "name": "authorised",
          "type": "bool"
        },
        {
          "indexed": false,
          "name": "value",
          "type": "uint256"
        },
        {
          "indexed": false,
          "name": "amount",
          "type": "uint256"
        }
      ],
      "name": "TokenPurchase",
      "type": "event"
    },
    {
      "anonymous": false,
      "inputs": [
        {
          "indexed": true,
          "name": "previousOwner",
          "type": "address"
        }
      ],
      "name": "OwnershipRenounced",
      "type": "event"
    },
    {
      "anonymous": false,
      "inputs": [
        {
          "indexed": true,
          "name": "previousOwner",
          "type": "address"
        },
        {
          "indexed": true,
          "name": "newOwner",
          "type": "address"
        }
      ],
      "name": "OwnershipTransferred",
      "type": "event"
    },
    {
      "constant": false,
      "inputs": [
        {
          "name": "_beneficiary",
          "type": "address"
        }
      ],
      "name": "withdrawTokens",
      "outputs": [],
      "payable": false,
      "stateMutability": "nonpayable",
      "type": "function"
    },
    {
      "constant": true,
      "inputs": [
        {
          "name": "account",
          "type": "address"
        }
      ],
      "name": "balanceOf",
      "outputs": [
        {
          "name": "",
          "type": "uint256"
        }
      ],
      "payable": false,
      "stateMutability": "view",
      "type": "function"
    },
    {
      "constant": true,
      "inputs": [],
      "name": "getCurrentStage",
      "outputs": [
        {
          "name": "",
          "type": "uint256"
        }
      ],
      "payable": false,
      "stateMutability": "view",
      "type": "function"
    },
    {
      "constant": true,
      "inputs": [],
      "name": "currentWaveCap",
      "outputs": [
        {
          "name": "",
          "type": "uint256"
        }
      ],
      "payable": false,
      "stateMutability": "view",
      "type": "function"
    },
    {
      "constant": false,
      "inputs": [],
      "name": "finalize",
      "outputs": [],
      "payable": false,
      "stateMutability": "nonpayable",
      "type": "function"
    },
    {
      "constant": false,
      "inputs": [
        {
          "name": "_beneficiary",
          "type": "address"
        }
      ],
      "name": "ban",
      "outputs": [],
      "payable": false,
      "stateMutability": "nonpayable",
      "type": "function"
    },
    {
      "constant": false,
      "inputs": [],
      "name": "clearWeiInSettledEscrow",
      "outputs": [],
      "payable": false,
      "stateMutability": "nonpayable",
      "type": "function"
    },
    {
      "constant": false,
      "inputs": [
        {
          "name": "_rate",
          "type": "uint256"
        }
      ],
      "name": "updateRate",
      "outputs": [],
      "payable": false,
      "stateMutability": "nonpayable",
      "type": "function"
    },
    {
      "constant": false,
      "inputs": [
        {
          "name": "_beneficiary",
          "type": "address"
        }
      ],
      "name": "authorise",
      "outputs": [],
      "payable": false,
      "stateMutability": "nonpayable",
      "type": "function"
    },
    {
      "constant": false,
      "inputs": [
        {
          "name": "_beneficiaries",
          "type": "address[]"
        }
      ],
      "name": "authoriseMany",
      "outputs": [],
      "payable": false,
      "stateMutability": "nonpayable",
      "type": "function"
    },
    {
      "constant": true,
      "inputs": [
        {
          "name": "_beneficiary",
          "type": "address"
        }
      ],
      "name": "withdrawalAllowed",
      "outputs": [
        {
          "name": "",
          "type": "bool"
        }
      ],
      "payable": false,
      "stateMutability": "view",
      "type": "function"
    },
    {
      "constant": false,
      "inputs": [],
      "name": "cancelPurchase",
      "outputs": [],
      "payable": false,
      "stateMutability": "nonpayable",
      "type": "function"
    },
    {
      "constant": false,
      "inputs": [
        {
          "name": "_beneficiary",
          "type": "address"
        }
      ],
      "name": "cancelPurchaseFor",
      "outputs": [],
      "payable": false,
      "stateMutability": "nonpayable",
      "type": "function"
    },
    {
      "constant": false,
      "inputs": [
        {
          "name": "_beneficiary",
          "type": "address"
        }
      ],
      "name": "buyTokens",
      "outputs": [],
      "payable": true,
      "stateMutability": "payable",
      "type": "function"
    }
  ],
  "bytecode": "0x608060405260006001556200001362000356565b604051809103906000f08015801562000030573d6000803e3d6000fd5b50600860006101000a81548173ffffffffffffffffffffffffffffffffffffffff021916908373ffffffffffffffffffffffffffffffffffffffff1602179055503480156200007e57600080fd5b50604051620051ff380380620051ff83398101806040528101908080519060200190929190805190602001909291908051820192919060200180518201929190602001805190602001909291905050506000336000806101000a81548173ffffffffffffffffffffffffffffffffffffffff021916908373ffffffffffffffffffffffffffffffffffffffff16021790555081601360006101000a81548173ffffffffffffffffffffffffffffffffffffffff021916908373ffffffffffffffffffffffffffffffffffffffff160217905550670de0b6b3a76400009050808502600d81905550808460008151811015156200017657fe5b90602001906020020151028460008151811015156200019157fe5b906020019060200201818152505080846001815181101515620001b057fe5b9060200190602002015102846001815181101515620001cb57fe5b906020019060200201818152505080846002815181101515620001ea57fe5b90602001906020020151028460028151811015156200020557fe5b90602001906020020181815250508061c35002600e81905550856014819055506200023e620002df640100000000026401000000009004565b601260016101000a81548173ffffffffffffffffffffffffffffffffffffffff021916908373ffffffffffffffffffffffffffffffffffffffff16021790555083601090805190602001906200029692919062000367565b508260119080519060200190620002af92919062000367565b50620002cb60006200030e640100000000026401000000009004565b6001601681905550505050505050620003f2565b6000620002eb620003b9565b604051809103906000f08015801562000308573d6000803e3d6000fd5b50905090565b620003426011828154811015156200032257fe5b90600052602060002001546200034c640100000000026401000000009004565b8060018190555050565b80600f8190555050565b6040516101808062002f6a83390190565b828054828255906000526020600020908101928215620003a6579160200282015b82811115620003a557825182559160200191906001019062000388565b5b509050620003b59190620003ca565b5090565b60405161211580620030ea83390190565b620003ef91905b80821115620003eb576000816000905550600101620003d1565b5090565b90565b612b6880620004026000396000f3006080604052600436106101a1576000357c0100000000000000000000000000000000000000000000000000000000900463ffffffff168063039fb726146101ac578063085ceb30146101ef57806323f947ef1461021a57806327be6e12146102455780632c4e722e1461027057806332ec4d441461029b5780633ef1d556146102b25780634042b66f1461030957806349df728c146103345780634bb278f314610377578063521eb2731461038e5780635eebea20146103e557806366e6c8af14610440578063685ca19414610483578063698cd050146104de57806369ea17711461050957806370a0823114610536578063715018a61461058d5780638d4e4083146105a45780638da5cb5b146105d35780639527fbff1461062a57806397c3ccd8146106655780639c8d83bb146106a8578063a453600814610703578063a62599f51461072e578063ab460a2614610759578063c54604ed14610770578063ec6b73a3146107c7578063ec8ac4d814610822578063eedbe31d14610858578063ef1d0b7714610883578063f2fde38b146108ae578063fc0c546a146108f1575b6101aa33610948565b005b3480156101b857600080fd5b506101ed600480360381019080803573ffffffffffffffffffffffffffffffffffffffff169060200190929190505050610a7d565b005b3480156101fb57600080fd5b50610204610e11565b6040518082815260200191505060405180910390f35b34801561022657600080fd5b5061022f610e17565b6040518082815260200191505060405180910390f35b34801561025157600080fd5b5061025a610e1d565b6040518082815260200191505060405180910390f35b34801561027c57600080fd5b50610285610e23565b6040518082815260200191505060405180910390f35b3480156102a757600080fd5b506102b0610e29565b005b3480156102be57600080fd5b506102f3600480360381019080803573ffffffffffffffffffffffffffffffffffffffff169060200190929190505050610f43565b6040518082815260200191505060405180910390f35b34801561031557600080fd5b5061031e610f5b565b6040518082815260200191505060405180910390f35b34801561034057600080fd5b50610375600480360381019080803573ffffffffffffffffffffffffffffffffffffffff169060200190929190505050610f61565b005b34801561038357600080fd5b5061038c61104a565b005b34801561039a57600080fd5b506103a36110e6565b604051808273ffffffffffffffffffffffffffffffffffffffff1673ffffffffffffffffffffffffffffffffffffffff16815260200191505060405180910390f35b3480156103f157600080fd5b50610426600480360381019080803573ffffffffffffffffffffffffffffffffffffffff16906020019092919050505061110c565b604051808215151515815260200191505060405180910390f35b34801561044c57600080fd5b50610481600480360381019080803573ffffffffffffffffffffffffffffffffffffffff16906020019092919050505061112c565b005b34801561048f57600080fd5b506104c4600480360381019080803573ffffffffffffffffffffffffffffffffffffffff169060200190929190505050611259565b604051808215151515815260200191505060405180910390f35b3480156104ea57600080fd5b506104f36112af565b6040518082815260200191505060405180910390f35b34801561051557600080fd5b50610534600480360381019080803590602001909291905050506112b5565b005b34801561054257600080fd5b50610577600480360381019080803573ffffffffffffffffffffffffffffffffffffffff169060200190929190505050611336565b6040518082815260200191505060405180910390f35b34801561059957600080fd5b506105a261137f565b005b3480156105b057600080fd5b506105b9611481565b604051808215151515815260200191505060405180910390f35b3480156105df57600080fd5b506105e8611494565b604051808273ffffffffffffffffffffffffffffffffffffffff1673ffffffffffffffffffffffffffffffffffffffff16815260200191505060405180910390f35b34801561063657600080fd5b506106636004803603810190808035906020019082018035906020019190919293919293905050506114b9565b005b34801561067157600080fd5b506106a6600480360381019080803573ffffffffffffffffffffffffffffffffffffffff169060200190929190505050611634565b005b3480156106b457600080fd5b506106e9600480360381019080803573ffffffffffffffffffffffffffffffffffffffff169060200190929190505050611743565b604051808215151515815260200191505060405180910390f35b34801561070f57600080fd5b50610718611763565b6040518082815260200191505060405180910390f35b34801561073a57600080fd5b50610743611769565b6040518082815260200191505060405180910390f35b34801561076557600080fd5b5061076e61178c565b005b34801561077c57600080fd5b506107b1600480360381019080803573ffffffffffffffffffffffffffffffffffffffff169060200190929190505050611ac4565b6040518082815260200191505060405180910390f35b3480156107d357600080fd5b50610808600480360381019080803573ffffffffffffffffffffffffffffffffffffffff169060200190929190505050611adc565b604051808215151515815260200191505060405180910390f35b610856600480360381019080803573ffffffffffffffffffffffffffffffffffffffff169060200190929190505050610948565b005b34801561086457600080fd5b5061086d611afc565b6040518082815260200191505060405180910390f35b34801561088f57600080fd5b50610898611b06565b6040518082815260200191505060405180910390f35b3480156108ba57600080fd5b506108ef600480360381019080803573ffffffffffffffffffffffffffffffffffffffff169060200190929190505050611b0c565b005b3480156108fd57600080fd5b50610906611c61565b604051808273ffffffffffffffffffffffffffffffffffffffff1673ffffffffffffffffffffffffffffffffffffffff16815260200191505060405180910390f35b6000806000600160166000828254019250508190555060165490503492506109708484611c87565b61097983611e39565b91506109858483611f47565b8373ffffffffffffffffffffffffffffffffffffffff163373ffffffffffffffffffffffffffffffffffffffff167fec26397d55afb0d1d41d8dbc288027ddb7880e323e629246dc0aecbe1c41709a600260008873ffffffffffffffffffffffffffffffffffffffff1673ffffffffffffffffffffffffffffffffffffffff16815260200190815260200160002060009054906101000a900460ff1686866040518084151515158152602001838152602001828152602001935050505060405180910390a3610a5484846121ec565b610a5d846121f0565b610a67848461238e565b60165481141515610a7757600080fd5b50505050565b6000806001601660008282540192505081905550601654905082600460008273ffffffffffffffffffffffffffffffffffffffff1673ffffffffffffffffffffffffffffffffffffffff16815260200190815260200160002060009054906101000a900460ff161515610aef57600080fd5b6000809054906101000a900473ffffffffffffffffffffffffffffffffffffffff1673ffffffffffffffffffffffffffffffffffffffff163373ffffffffffffffffffffffffffffffffffffffff16141515610b4a57600080fd5b6000600560008673ffffffffffffffffffffffffffffffffffffffff1673ffffffffffffffffffffffffffffffffffffffff1681526020019081526020016000205414151515610b9957600080fd5b600560008573ffffffffffffffffffffffffffffffffffffffff1673ffffffffffffffffffffffffffffffffffffffff168152602001908152602001600020549250610c2f600560008673ffffffffffffffffffffffffffffffffffffffff1673ffffffffffffffffffffffffffffffffffffffff16815260200190815260200160002054600a5461239290919063ffffffff16565b600a81905550610c89600660008673ffffffffffffffffffffffffffffffffffffffff1673ffffffffffffffffffffffffffffffffffffffff1681526020019081526020016000205460095461239290919063ffffffff16565b6009819055506000600460008673ffffffffffffffffffffffffffffffffffffffff1673ffffffffffffffffffffffffffffffffffffffff16815260200190815260200160002060006101000a81548160ff0219169083151502179055506000600560008673ffffffffffffffffffffffffffffffffffffffff1673ffffffffffffffffffffffffffffffffffffffff168152602001908152602001600020819055506000600660008673ffffffffffffffffffffffffffffffffffffffff1673ffffffffffffffffffffffffffffffffffffffff168152602001908152602001600020819055508373ffffffffffffffffffffffffffffffffffffffff166108fc849081150290604051600060405180830381858888f19350505050158015610db7573d6000803e3d6000fd5b508373ffffffffffffffffffffffffffffffffffffffff167fdfd111cde119aaaf3e6ca7bc9aa3ef8526ec42bc6a05289c59410df8263b114560405160405180910390a25060165481141515610e0c57600080fd5b505050565b600d5481565b600c5481565b600b5481565b60145481565b6000809054906101000a900473ffffffffffffffffffffffffffffffffffffffff1673ffffffffffffffffffffffffffffffffffffffff163373ffffffffffffffffffffffffffffffffffffffff16141515610e8457600080fd5b6000600c54111515610e9557600080fd5b601360009054906101000a900473ffffffffffffffffffffffffffffffffffffffff1673ffffffffffffffffffffffffffffffffffffffff166108fc600c549081150290604051600060405180830381858888f19350505050158015610eff573d6000803e3d6000fd5b507f4aaa918a6038190af8d4a166a2a7be78c04f9d0cc90aed882354d6933a9689b7600c546040518082815260200191505060405180910390a16000600c81905550565b60066020528060005260406000206000915090505481565b60155481565b60008060016016600082825401925050819055506016549050601260009054906101000a900460ff161515610f9557600080fd5b600760008473ffffffffffffffffffffffffffffffffffffffff1673ffffffffffffffffffffffffffffffffffffffff168152602001908152602001600020549150600082111515610fe657600080fd5b6000600760008573ffffffffffffffffffffffffffffffffffffffff1673ffffffffffffffffffffffffffffffffffffffff1681526020019081526020016000208190555061103583836123b3565b6016548114151561104557600080fd5b505050565b6000809054906101000a900473ffffffffffffffffffffffffffffffffffffffff1673ffffffffffffffffffffffffffffffffffffffff163373ffffffffffffffffffffffffffffffffffffffff161415156110a557600080fd5b601260009054906101000a900460ff161515156110c157600080fd5b6110c961241b565b6001601260006101000a81548160ff021916908315150217905550565b601360009054906101000a900473ffffffffffffffffffffffffffffffffffffffff1681565b60046020528060005260406000206000915054906101000a900460ff1681565b60006001601660008282540192505081905550601654905081600460008273ffffffffffffffffffffffffffffffffffffffff1673ffffffffffffffffffffffffffffffffffffffff16815260200190815260200160002060009054906101000a900460ff16151561119d57600080fd5b6000809054906101000a900473ffffffffffffffffffffffffffffffffffffffff1673ffffffffffffffffffffffffffffffffffffffff163373ffffffffffffffffffffffffffffffffffffffff161415156111f857600080fd5b8273ffffffffffffffffffffffffffffffffffffffff167f01857893712f549081848186fed1463c4d3880a5dd67ab6a47916bbc077cebce60405160405180910390a261124483612449565b506016548114151561125557600080fd5b5050565b6000600260008373ffffffffffffffffffffffffffffffffffffffff1673ffffffffffffffffffffffffffffffffffffffff16815260200190815260200160002060009054906101000a900460ff169050919050565b60095481565b6000809054906101000a900473ffffffffffffffffffffffffffffffffffffffff1673ffffffffffffffffffffffffffffffffffffffff163373ffffffffffffffffffffffffffffffffffffffff1614151561131057600080fd5b601260009054906101000a900460ff1615151561132c57600080fd5b8060148190555050565b6000600760008373ffffffffffffffffffffffffffffffffffffffff1673ffffffffffffffffffffffffffffffffffffffff168152602001908152602001600020549050919050565b6000809054906101000a900473ffffffffffffffffffffffffffffffffffffffff1673ffffffffffffffffffffffffffffffffffffffff163373ffffffffffffffffffffffffffffffffffffffff161415156113da57600080fd5b6000809054906101000a900473ffffffffffffffffffffffffffffffffffffffff1673ffffffffffffffffffffffffffffffffffffffff167ff8df31144d9c2f0f6b59d69b8b98abd5459d07f2742c4df920b25aae33c6482060405160405180910390a260008060006101000a81548173ffffffffffffffffffffffffffffffffffffffff021916908373ffffffffffffffffffffffffffffffffffffffff160217905550565b601260009054906101000a900460ff1681565b6000809054906101000a900473ffffffffffffffffffffffffffffffffffffffff1681565b6000806000600160166000828254019250508190555060165490506000809054906101000a900473ffffffffffffffffffffffffffffffffffffffff1673ffffffffffffffffffffffffffffffffffffffff163373ffffffffffffffffffffffffffffffffffffffff1614151561152f57600080fd5b600092505b8484905083101561161d57848484818110151561154d57fe5b9050602002013573ffffffffffffffffffffffffffffffffffffffff169150600460008373ffffffffffffffffffffffffffffffffffffffff1673ffffffffffffffffffffffffffffffffffffffff16815260200190815260200160002060009054906101000a900460ff1615156115c457600080fd5b8173ffffffffffffffffffffffffffffffffffffffff167f01857893712f549081848186fed1463c4d3880a5dd67ab6a47916bbc077cebce60405160405180910390a261161082612449565b8280600101935050611534565b6016548114151561162d57600080fd5b5050505050565b6000809054906101000a900473ffffffffffffffffffffffffffffffffffffffff1673ffffffffffffffffffffffffffffffffffffffff163373ffffffffffffffffffffffffffffffffffffffff1614151561168f57600080fd5b600360008273ffffffffffffffffffffffffffffffffffffffff1673ffffffffffffffffffffffffffffffffffffffff16815260200190815260200160002060009054906101000a900460ff161515156116e857600080fd5b6001600360008373ffffffffffffffffffffffffffffffffffffffff1673ffffffffffffffffffffffffffffffffffffffff16815260200190815260200160002060006101000a81548160ff02191690831515021790555050565b60036020528060005260406000206000915054906101000a900460ff1681565b600a5481565b6000601060015481548110151561177c57fe5b9060005260206000200154905090565b6000806001601660008282540192505081905550601654905033600460008273ffffffffffffffffffffffffffffffffffffffff1673ffffffffffffffffffffffffffffffffffffffff16815260200190815260200160002060009054906101000a900460ff1615156117fe57600080fd5b6000600560003373ffffffffffffffffffffffffffffffffffffffff1673ffffffffffffffffffffffffffffffffffffffff168152602001908152602001600020541415151561184d57600080fd5b600560003373ffffffffffffffffffffffffffffffffffffffff1673ffffffffffffffffffffffffffffffffffffffff1681526020019081526020016000205492506118e3600560003373ffffffffffffffffffffffffffffffffffffffff1673ffffffffffffffffffffffffffffffffffffffff16815260200190815260200160002054600a5461239290919063ffffffff16565b600a8190555061193d600660003373ffffffffffffffffffffffffffffffffffffffff1673ffffffffffffffffffffffffffffffffffffffff1681526020019081526020016000205460095461239290919063ffffffff16565b6009819055506000600460003373ffffffffffffffffffffffffffffffffffffffff1673ffffffffffffffffffffffffffffffffffffffff16815260200190815260200160002060006101000a81548160ff0219169083151502179055506000600560003373ffffffffffffffffffffffffffffffffffffffff1673ffffffffffffffffffffffffffffffffffffffff168152602001908152602001600020819055506000600660003373ffffffffffffffffffffffffffffffffffffffff1673ffffffffffffffffffffffffffffffffffffffff168152602001908152602001600020819055503373ffffffffffffffffffffffffffffffffffffffff166108fc849081150290604051600060405180830381858888f19350505050158015611a6b573d6000803e3d6000fd5b503373ffffffffffffffffffffffffffffffffffffffff167fdfd111cde119aaaf3e6ca7bc9aa3ef8526ec42bc6a05289c59410df8263b114560405160405180910390a25060165481141515611ac057600080fd5b5050565b60056020528060005260406000206000915090505481565b60026020528060005260406000206000915054906101000a900460ff1681565b6000600154905090565b600e5481565b6000809054906101000a900473ffffffffffffffffffffffffffffffffffffffff1673ffffffffffffffffffffffffffffffffffffffff163373ffffffffffffffffffffffffffffffffffffffff16141515611b6757600080fd5b600073ffffffffffffffffffffffffffffffffffffffff168173ffffffffffffffffffffffffffffffffffffffff1614151515611ba357600080fd5b8073ffffffffffffffffffffffffffffffffffffffff166000809054906101000a900473ffffffffffffffffffffffffffffffffffffffff1673ffffffffffffffffffffffffffffffffffffffff167f8be0079c531659141344cd1fd0a4f28419497f9722a3daafe3b4186f6b6457e060405160405180910390a3806000806101000a81548173ffffffffffffffffffffffffffffffffffffffff021916908373ffffffffffffffffffffffffffffffffffffffff16021790555050565b601260019054906101000a900473ffffffffffffffffffffffffffffffffffffffff1681565b6000611c9282611e39565b9050600073ffffffffffffffffffffffffffffffffffffffff168373ffffffffffffffffffffffffffffffffffffffff1614151515611cd057600080fd5b6703782dace9d900008210151515611ce757600080fd5b601260009054906101000a900460ff16151515611d0357600080fd5b600360008473ffffffffffffffffffffffffffffffffffffffff1673ffffffffffffffffffffffffffffffffffffffff16815260200190815260200160002060009054906101000a900460ff16151515611d5c57600080fd5b600e54611e0282611df4600660008873ffffffffffffffffffffffffffffffffffffffff1673ffffffffffffffffffffffffffffffffffffffff16815260200190815260200160002054600760008973ffffffffffffffffffffffffffffffffffffffff1673ffffffffffffffffffffffffffffffffffffffff168152602001908152602001600020546128e090919063ffffffff16565b6128e090919063ffffffff16565b11151515611e0f57600080fd5b600d54611e27600b54836128e090919063ffffffff16565b11151515611e3457600080fd5b505050565b6000611f40611f2f600860009054906101000a900473ffffffffffffffffffffffffffffffffffffffff1673ffffffffffffffffffffffffffffffffffffffff1663bd4a40db85600f5460126040518463ffffffff167c0100000000000000000000000000000000000000000000000000000000028152600401808481526020018381526020018281526020019350505050602060405180830381600087803b158015611ee557600080fd5b505af1158015611ef9573d6000803e3d6000fd5b505050506040513d6020811015611f0f57600080fd5b8101908080519060200190929190505050846128e090919063ffffffff16565b60145461290190919063ffffffff16565b9050919050565b600260008373ffffffffffffffffffffffffffffffffffffffff1673ffffffffffffffffffffffffffffffffffffffff16815260200190815260200160002060009054906101000a900460ff161561206957611fae346015546128e090919063ffffffff16565b60158190555061200681600760008573ffffffffffffffffffffffffffffffffffffffff1673ffffffffffffffffffffffffffffffffffffffff168152602001908152602001600020546128e090919063ffffffff16565b600760008473ffffffffffffffffffffffffffffffffffffffff1673ffffffffffffffffffffffffffffffffffffffff1681526020019081526020016000208190555061205e81600b546128e090919063ffffffff16565b600b819055506121e8565b6000600260008473ffffffffffffffffffffffffffffffffffffffff1673ffffffffffffffffffffffffffffffffffffffff16815260200190815260200160002060006101000a81548160ff0219169083151502179055506001600460008473ffffffffffffffffffffffffffffffffffffffff1673ffffffffffffffffffffffffffffffffffffffff16815260200190815260200160002060006101000a81548160ff02191690831515021790555061216b81600660008573ffffffffffffffffffffffffffffffffffffffff1673ffffffffffffffffffffffffffffffffffffffff168152602001908152602001600020546128e090919063ffffffff16565b600660008473ffffffffffffffffffffffffffffffffffffffff1673ffffffffffffffffffffffffffffffffffffffff168152602001908152602001600020819055506121c3816009546128e090919063ffffffff16565b6009819055506121d96121d4611769565b61293f565b156121e7576121e6612962565b5b5b5050565b5050565b600260008273ffffffffffffffffffffffffffffffffffffffff1673ffffffffffffffffffffffffffffffffffffffff16815260200190815260200160002060009054906101000a900460ff16156122da57612296600560008373ffffffffffffffffffffffffffffffffffffffff1673ffffffffffffffffffffffffffffffffffffffff168152602001908152602001600020546015546128e090919063ffffffff16565b6015819055506122ac6122a7611769565b61293f565b156122ba576122b9612962565b5b6122cf34600c546128e090919063ffffffff16565b600c8190555061238b565b61232c34600560008473ffffffffffffffffffffffffffffffffffffffff1673ffffffffffffffffffffffffffffffffffffffff168152602001908152602001600020546128e090919063ffffffff16565b600560008373ffffffffffffffffffffffffffffffffffffffff1673ffffffffffffffffffffffffffffffffffffffff1681526020019081526020016000208190555061238434600a546128e090919063ffffffff16565b600a819055505b50565b5050565b6000808383111515156123a457600080fd5b82840390508091505092915050565b81600260008273ffffffffffffffffffffffffffffffffffffffff1673ffffffffffffffffffffffffffffffffffffffff16815260200190815260200160002060009054906101000a900460ff16151561240c57600080fd5b61241683836129a8565b505050565b7f9270cc390c096600a1c17c44345a1ba689fafd99d97487b10cfccf86cf73183660405160405180910390a1565b61249d600560008373ffffffffffffffffffffffffffffffffffffffff1673ffffffffffffffffffffffffffffffffffffffff168152602001908152602001600020546015546128e090919063ffffffff16565b6015819055506124f7600560008373ffffffffffffffffffffffffffffffffffffffff1673ffffffffffffffffffffffffffffffffffffffff16815260200190815260200160002054600a5461239290919063ffffffff16565b600a81905550612551600660008373ffffffffffffffffffffffffffffffffffffffff1673ffffffffffffffffffffffffffffffffffffffff16815260200190815260200160002054600b546128e090919063ffffffff16565b600b819055506125ab600660008373ffffffffffffffffffffffffffffffffffffffff1673ffffffffffffffffffffffffffffffffffffffff1681526020019081526020016000205460095461239290919063ffffffff16565b600981905550612642600660008373ffffffffffffffffffffffffffffffffffffffff1673ffffffffffffffffffffffffffffffffffffffff16815260200190815260200160002054600760008473ffffffffffffffffffffffffffffffffffffffff1673ffffffffffffffffffffffffffffffffffffffff168152602001908152602001600020546128e090919063ffffffff16565b600760008373ffffffffffffffffffffffffffffffffffffffff1673ffffffffffffffffffffffffffffffffffffffff16815260200190815260200160002081905550601360009054906101000a900473ffffffffffffffffffffffffffffffffffffffff1673ffffffffffffffffffffffffffffffffffffffff166108fc600560008473ffffffffffffffffffffffffffffffffffffffff1673ffffffffffffffffffffffffffffffffffffffff168152602001908152602001600020549081150290604051600060405180830381858888f1935050505015801561272c573d6000803e3d6000fd5b507f4aaa918a6038190af8d4a166a2a7be78c04f9d0cc90aed882354d6933a9689b7600560008373ffffffffffffffffffffffffffffffffffffffff1673ffffffffffffffffffffffffffffffffffffffff168152602001908152602001600020546040518082815260200191505060405180910390a16000600560008373ffffffffffffffffffffffffffffffffffffffff1673ffffffffffffffffffffffffffffffffffffffff168152602001908152602001600020819055506000600660008373ffffffffffffffffffffffffffffffffffffffff1673ffffffffffffffffffffffffffffffffffffffff168152602001908152602001600020819055506001600260008373ffffffffffffffffffffffffffffffffffffffff1673ffffffffffffffffffffffffffffffffffffffff16815260200190815260200160002060006101000a81548160ff0219169083151502179055506000600460008373ffffffffffffffffffffffffffffffffffffffff1673ffffffffffffffffffffffffffffffffffffffff16815260200190815260200160002060006101000a81548160ff02191690831515021790555050565b60008082840190508381101515156128f757600080fd5b8091505092915050565b60008060008414156129165760009150612938565b828402905082848281151561292757fe5b0414151561293457600080fd5b8091505b5092915050565b600081612959600954600b546128e090919063ffffffff16565b10159050919050565b60018054016001819055507f63f66204680e55f6232fbba109063e889b9fd1d4fec00117a4984145e71759726001546040518082815260200191505060405180910390a1565b60008273ffffffffffffffffffffffffffffffffffffffff16141515156129ce57600080fd5b601260009054906101000a900460ff1615156129e957600080fd5b601260019054906101000a900473ffffffffffffffffffffffffffffffffffffffff1673ffffffffffffffffffffffffffffffffffffffff166340c10f1983836040518363ffffffff167c0100000000000000000000000000000000000000000000000000000000028152600401808373ffffffffffffffffffffffffffffffffffffffff1673ffffffffffffffffffffffffffffffffffffffff16815260200182815260200192505050602060405180830381600087803b158015612aae57600080fd5b505af1158015612ac2573d6000803e3d6000fd5b505050506040513d6020811015612ad857600080fd5b8101908080519060200190929190505050508173ffffffffffffffffffffffffffffffffffffffff167f36bf5aa3964be01dbd95a0154a8930793fe68353bdc580871ffb2c911366bbc7826040518082815260200191505060405180910390a250505600a165627a7a72305820397c95e1d4c945d8672c9a54a5bf03be1a463ebb4bf5cfb83a1be46b76d9f9340029608060405234801561001057600080fd5b50610160806100206000396000f30060806040526004361061004c576000357c0100000000000000000000000000000000000000000000000000000000900463ffffffff168063bd4a40db14610051578063c04f01fc146100a6575b600080fd5b34801561005d57600080fd5b506100906004803603810190808035906020019092919080359060200190929190803590602001909291905050506100f1565b6040518082815260200191505060405180910390f35b3480156100b257600080fd5b506100db6004803603810190808035906020019092919080359060200190929190505050610127565b6040518082815260200191505060405180910390f35b60006100fe600a83610127565b6103e802610110600a60018501610127565b8402850281151561011d57fe5b0490509392505050565b600081830a9050929150505600a165627a7a723058201cae4c5b2e3eeb7f6367f5cde534b75f07b62aea07fecc1024e966d029a8e206002960806040523480156200001157600080fd5b506040805190810160405280600a81526020017f507572706c65636f696e000000000000000000000000000000000000000000008152506040805190810160405280600381526020017f58505500000000000000000000000000000000000000000000000000000000008152506012826000908051906020019062000098929190620002b2565b508160019080519060200190620000b1929190620002b2565b5080600260006101000a81548160ff021916908360ff160217905550505050620000ea33620000f0640100000000026401000000009004565b62000361565b620001148160066200015a6401000000000262001c19179091906401000000009004565b8073ffffffffffffffffffffffffffffffffffffffff167f6ae172837ea30b801fbfcdd4108aa1d5bf8ff775444fd70256b44e6bf3dfc3f660405160405180910390a250565b600073ffffffffffffffffffffffffffffffffffffffff168173ffffffffffffffffffffffffffffffffffffffff16141515156200019757600080fd5b620001b282826200021d640100000000026401000000009004565b151515620001bf57600080fd5b60018260000160008373ffffffffffffffffffffffffffffffffffffffff1673ffffffffffffffffffffffffffffffffffffffff16815260200190815260200160002060006101000a81548160ff0219169083151502179055505050565b60008073ffffffffffffffffffffffffffffffffffffffff168273ffffffffffffffffffffffffffffffffffffffff16141515156200025b57600080fd5b8260000160008373ffffffffffffffffffffffffffffffffffffffff1673ffffffffffffffffffffffffffffffffffffffff16815260200190815260200160002060009054906101000a900460ff16905092915050565b828054600181600116156101000203166002900490600052602060002090601f016020900481019282601f10620002f557805160ff191683800117855562000326565b8280016001018555821562000326579182015b828111156200032557825182559160200191906001019062000308565b5b50905062000335919062000339565b5090565b6200035e91905b808211156200035a57600081600090555060010162000340565b5090565b90565b611da480620003716000396000f300608060405260043610610107576000357c0100000000000000000000000000000000000000000000000000000000900463ffffffff16806306fdde031461010c578063095ea7b31461019c57806318160ddd1461020157806323b872dd1461022c578063313ce567146102b157806339509351146102e257806340c10f191461034757806342966c68146103ac57806370a08231146103d95780637641e6f31461043057806379cc6790146104a357806395d89b41146104f0578063979430d214610580578063983b2d56146106135780639865027514610656578063a457c2d71461066d578063a9059cbb146106d2578063aa271e1a14610737578063dd62ed3e14610792575b600080fd5b34801561011857600080fd5b50610121610809565b6040518080602001828103825283818151815260200191508051906020019080838360005b83811015610161578082015181840152602081019050610146565b50505050905090810190601f16801561018e5780820380516001836020036101000a031916815260200191505b509250505060405180910390f35b3480156101a857600080fd5b506101e7600480360381019080803573ffffffffffffffffffffffffffffffffffffffff169060200190929190803590602001909291905050506108ab565b604051808215151515815260200191505060405180910390f35b34801561020d57600080fd5b506102166109d8565b6040518082815260200191505060405180910390f35b34801561023857600080fd5b50610297600480360381019080803573ffffffffffffffffffffffffffffffffffffffff169060200190929190803573ffffffffffffffffffffffffffffffffffffffff169060200190929190803590602001909291905050506109e2565b604051808215151515815260200191505060405180910390f35b3480156102bd57600080fd5b506102c6610b94565b604051808260ff1660ff16815260200191505060405180910390f35b3480156102ee57600080fd5b5061032d600480360381019080803573ffffffffffffffffffffffffffffffffffffffff16906020019092919080359060200190929190505050610bab565b604051808215151515815260200191505060405180910390f35b34801561035357600080fd5b50610392600480360381019080803573ffffffffffffffffffffffffffffffffffffffff16906020019092919080359060200190929190505050610de2565b604051808215151515815260200191505060405180910390f35b3480156103b857600080fd5b506103d760048036038101908080359060200190929190505050610e0c565b005b3480156103e557600080fd5b5061041a600480360381019080803573ffffffffffffffffffffffffffffffffffffffff169060200190929190505050610e19565b6040518082815260200191505060405180910390f35b34801561043c57600080fd5b506104a160048036038101908080359060200190929190803590602001908201803590602001908080601f0160208091040260200160405190810160405280939291908181526020018383808284378201915050505050509192919290505050610e62565b005b3480156104af57600080fd5b506104ee600480360381019080803573ffffffffffffffffffffffffffffffffffffffff16906020019092919080359060200190929190505050610f47565b005b3480156104fc57600080fd5b50610505610f55565b6040518080602001828103825283818151815260200191508051906020019080838360005b8381101561054557808201518184015260208101905061052a565b50505050905090810190601f1680156105725780820380516001836020036101000a031916815260200191505b509250505060405180910390f35b34801561058c57600080fd5b50610611600480360381019080803573ffffffffffffffffffffffffffffffffffffffff16906020019092919080359060200190929190803590602001908201803590602001908080601f0160208091040260200160405190810160405280939291908181526020018383808284378201915050505050509192919290505050610ff7565b005b34801561061f57600080fd5b50610654600480360381019080803573ffffffffffffffffffffffffffffffffffffffff1690602001909291905050506110de565b005b34801561066257600080fd5b5061066b6110fe565b005b34801561067957600080fd5b506106b8600480360381019080803573ffffffffffffffffffffffffffffffffffffffff16906020019092919080359060200190929190505050611109565b604051808215151515815260200191505060405180910390f35b3480156106de57600080fd5b5061071d600480360381019080803573ffffffffffffffffffffffffffffffffffffffff16906020019092919080359060200190929190505050611340565b604051808215151515815260200191505060405180910390f35b34801561074357600080fd5b50610778600480360381019080803573ffffffffffffffffffffffffffffffffffffffff169060200190929190505050611357565b604051808215151515815260200191505060405180910390f35b34801561079e57600080fd5b506107f3600480360381019080803573ffffffffffffffffffffffffffffffffffffffff169060200190929190803573ffffffffffffffffffffffffffffffffffffffff169060200190929190505050611374565b6040518082815260200191505060405180910390f35b606060008054600181600116156101000203166002900480601f0160208091040260200160405190810160405280929190818152602001828054600181600116156101000203166002900480156108a15780601f10610876576101008083540402835291602001916108a1565b820191906000526020600020905b81548152906001019060200180831161088457829003601f168201915b5050505050905090565b60008073ffffffffffffffffffffffffffffffffffffffff168373ffffffffffffffffffffffffffffffffffffffff16141515156108e857600080fd5b81600460003373ffffffffffffffffffffffffffffffffffffffff1673ffffffffffffffffffffffffffffffffffffffff16815260200190815260200160002060008573ffffffffffffffffffffffffffffffffffffffff1673ffffffffffffffffffffffffffffffffffffffff168152602001908152602001600020819055508273ffffffffffffffffffffffffffffffffffffffff163373ffffffffffffffffffffffffffffffffffffffff167f8c5be1e5ebec7d5bd14f71427d1e84f3dd0314c0f7b2291e5b200ac8c7c3b925846040518082815260200191505060405180910390a36001905092915050565b6000600554905090565b6000600460008573ffffffffffffffffffffffffffffffffffffffff1673ffffffffffffffffffffffffffffffffffffffff16815260200190815260200160002060003373ffffffffffffffffffffffffffffffffffffffff1673ffffffffffffffffffffffffffffffffffffffff168152602001908152602001600020548211151515610a6f57600080fd5b610afe82600460008773ffffffffffffffffffffffffffffffffffffffff1673ffffffffffffffffffffffffffffffffffffffff16815260200190815260200160002060003373ffffffffffffffffffffffffffffffffffffffff1673ffffffffffffffffffffffffffffffffffffffff168152602001908152602001600020546113fb90919063ffffffff16565b600460008673ffffffffffffffffffffffffffffffffffffffff1673ffffffffffffffffffffffffffffffffffffffff16815260200190815260200160002060003373ffffffffffffffffffffffffffffffffffffffff1673ffffffffffffffffffffffffffffffffffffffff16815260200190815260200160002081905550610b8984848461141c565b600190509392505050565b6000600260009054906101000a900460ff16905090565b60008073ffffffffffffffffffffffffffffffffffffffff168373ffffffffffffffffffffffffffffffffffffffff1614151515610be857600080fd5b610c7782600460003373ffffffffffffffffffffffffffffffffffffffff1673ffffffffffffffffffffffffffffffffffffffff16815260200190815260200160002060008673ffffffffffffffffffffffffffffffffffffffff1673ffffffffffffffffffffffffffffffffffffffff1681526020019081526020016000205461163a90919063ffffffff16565b600460003373ffffffffffffffffffffffffffffffffffffffff1673ffffffffffffffffffffffffffffffffffffffff16815260200190815260200160002060008573ffffffffffffffffffffffffffffffffffffffff1673ffffffffffffffffffffffffffffffffffffffff168152602001908152602001600020819055508273ffffffffffffffffffffffffffffffffffffffff163373ffffffffffffffffffffffffffffffffffffffff167f8c5be1e5ebec7d5bd14f71427d1e84f3dd0314c0f7b2291e5b200ac8c7c3b925600460003373ffffffffffffffffffffffffffffffffffffffff1673ffffffffffffffffffffffffffffffffffffffff16815260200190815260200160002060008773ffffffffffffffffffffffffffffffffffffffff1673ffffffffffffffffffffffffffffffffffffffff168152602001908152602001600020546040518082815260200191505060405180910390a36001905092915050565b6000610ded33611357565b1515610df857600080fd5b610e02838361165b565b6001905092915050565b610e16338261179b565b50565b6000600360008373ffffffffffffffffffffffffffffffffffffffff1673ffffffffffffffffffffffffffffffffffffffff168152602001908152602001600020549050919050565b610e6b82610e0c565b7f3a5b36f3638546a2abdfc3f256eb9e55ed5d264bc918d210d7ac8bb003876417338383604051808473ffffffffffffffffffffffffffffffffffffffff1673ffffffffffffffffffffffffffffffffffffffff16815260200183815260200180602001828103825283818151815260200191508051906020019080838360005b83811015610f07578082015181840152602081019050610eec565b50505050905090810190601f168015610f345780820380516001836020036101000a031916815260200191505b5094505050505060405180910390a15050565b610f518282611929565b5050565b606060018054600181600116156101000203166002900480601f016020809104026020016040519081016040528092919081815260200182805460018160011615610100020316600290048015610fed5780601f10610fc257610100808354040283529160200191610fed565b820191906000526020600020905b815481529060010190602001808311610fd057829003601f168201915b5050505050905090565b6110018383610f47565b7f3a5b36f3638546a2abdfc3f256eb9e55ed5d264bc918d210d7ac8bb003876417838383604051808473ffffffffffffffffffffffffffffffffffffffff1673ffffffffffffffffffffffffffffffffffffffff16815260200183815260200180602001828103825283818151815260200191508051906020019080838360005b8381101561109d578082015181840152602081019050611082565b50505050905090810190601f1680156110ca5780820380516001836020036101000a031916815260200191505b5094505050505060405180910390a1505050565b6110e733611357565b15156110f257600080fd5b6110fb81611ad1565b50565b61110733611b2b565b565b60008073ffffffffffffffffffffffffffffffffffffffff168373ffffffffffffffffffffffffffffffffffffffff161415151561114657600080fd5b6111d582600460003373ffffffffffffffffffffffffffffffffffffffff1673ffffffffffffffffffffffffffffffffffffffff16815260200190815260200160002060008673ffffffffffffffffffffffffffffffffffffffff1673ffffffffffffffffffffffffffffffffffffffff168152602001908152602001600020546113fb90919063ffffffff16565b600460003373ffffffffffffffffffffffffffffffffffffffff1673ffffffffffffffffffffffffffffffffffffffff16815260200190815260200160002060008573ffffffffffffffffffffffffffffffffffffffff1673ffffffffffffffffffffffffffffffffffffffff168152602001908152602001600020819055508273ffffffffffffffffffffffffffffffffffffffff163373ffffffffffffffffffffffffffffffffffffffff167f8c5be1e5ebec7d5bd14f71427d1e84f3dd0314c0f7b2291e5b200ac8c7c3b925600460003373ffffffffffffffffffffffffffffffffffffffff1673ffffffffffffffffffffffffffffffffffffffff16815260200190815260200160002060008773ffffffffffffffffffffffffffffffffffffffff1673ffffffffffffffffffffffffffffffffffffffff168152602001908152602001600020546040518082815260200191505060405180910390a36001905092915050565b600061134d33848461141c565b6001905092915050565b600061136d826006611b8590919063ffffffff16565b9050919050565b6000600460008473ffffffffffffffffffffffffffffffffffffffff1673ffffffffffffffffffffffffffffffffffffffff16815260200190815260200160002060008373ffffffffffffffffffffffffffffffffffffffff1673ffffffffffffffffffffffffffffffffffffffff16815260200190815260200160002054905092915050565b60008083831115151561140d57600080fd5b82840390508091505092915050565b600360008473ffffffffffffffffffffffffffffffffffffffff1673ffffffffffffffffffffffffffffffffffffffff16815260200190815260200160002054811115151561146a57600080fd5b600073ffffffffffffffffffffffffffffffffffffffff168273ffffffffffffffffffffffffffffffffffffffff16141515156114a657600080fd5b6114f881600360008673ffffffffffffffffffffffffffffffffffffffff1673ffffffffffffffffffffffffffffffffffffffff168152602001908152602001600020546113fb90919063ffffffff16565b600360008573ffffffffffffffffffffffffffffffffffffffff1673ffffffffffffffffffffffffffffffffffffffff1681526020019081526020016000208190555061158d81600360008573ffffffffffffffffffffffffffffffffffffffff1673ffffffffffffffffffffffffffffffffffffffff1681526020019081526020016000205461163a90919063ffffffff16565b600360008473ffffffffffffffffffffffffffffffffffffffff1673ffffffffffffffffffffffffffffffffffffffff168152602001908152602001600020819055508173ffffffffffffffffffffffffffffffffffffffff168373ffffffffffffffffffffffffffffffffffffffff167fddf252ad1be2c89b69c2b068fc378daa952ba7f163c4a11628f55a4df523b3ef836040518082815260200191505060405180910390a3505050565b600080828401905083811015151561165157600080fd5b8091505092915050565b60008273ffffffffffffffffffffffffffffffffffffffff161415151561168157600080fd5b6116968160055461163a90919063ffffffff16565b6005819055506116ee81600360008573ffffffffffffffffffffffffffffffffffffffff1673ffffffffffffffffffffffffffffffffffffffff1681526020019081526020016000205461163a90919063ffffffff16565b600360008473ffffffffffffffffffffffffffffffffffffffff1673ffffffffffffffffffffffffffffffffffffffff168152602001908152602001600020819055508173ffffffffffffffffffffffffffffffffffffffff16600073ffffffffffffffffffffffffffffffffffffffff167fddf252ad1be2c89b69c2b068fc378daa952ba7f163c4a11628f55a4df523b3ef836040518082815260200191505060405180910390a35050565b60008273ffffffffffffffffffffffffffffffffffffffff16141515156117c157600080fd5b600360008373ffffffffffffffffffffffffffffffffffffffff1673ffffffffffffffffffffffffffffffffffffffff16815260200190815260200160002054811115151561180f57600080fd5b611824816005546113fb90919063ffffffff16565b60058190555061187c81600360008573ffffffffffffffffffffffffffffffffffffffff1673ffffffffffffffffffffffffffffffffffffffff168152602001908152602001600020546113fb90919063ffffffff16565b600360008473ffffffffffffffffffffffffffffffffffffffff1673ffffffffffffffffffffffffffffffffffffffff16815260200190815260200160002081905550600073ffffffffffffffffffffffffffffffffffffffff168273ffffffffffffffffffffffffffffffffffffffff167fddf252ad1be2c89b69c2b068fc378daa952ba7f163c4a11628f55a4df523b3ef836040518082815260200191505060405180910390a35050565b600460008373ffffffffffffffffffffffffffffffffffffffff1673ffffffffffffffffffffffffffffffffffffffff16815260200190815260200160002060003373ffffffffffffffffffffffffffffffffffffffff1673ffffffffffffffffffffffffffffffffffffffff1681526020019081526020016000205481111515156119b457600080fd5b611a4381600460008573ffffffffffffffffffffffffffffffffffffffff1673ffffffffffffffffffffffffffffffffffffffff16815260200190815260200160002060003373ffffffffffffffffffffffffffffffffffffffff1673ffffffffffffffffffffffffffffffffffffffff168152602001908152602001600020546113fb90919063ffffffff16565b600460008473ffffffffffffffffffffffffffffffffffffffff1673ffffffffffffffffffffffffffffffffffffffff16815260200190815260200160002060003373ffffffffffffffffffffffffffffffffffffffff1673ffffffffffffffffffffffffffffffffffffffff16815260200190815260200160002081905550611acd828261179b565b5050565b611ae5816006611c1990919063ffffffff16565b8073ffffffffffffffffffffffffffffffffffffffff167f6ae172837ea30b801fbfcdd4108aa1d5bf8ff775444fd70256b44e6bf3dfc3f660405160405180910390a250565b611b3f816006611cc990919063ffffffff16565b8073ffffffffffffffffffffffffffffffffffffffff167fe94479a9f7e1952cc78f2d6baab678adc1b772d936c6583def489e524cb6669260405160405180910390a250565b60008073ffffffffffffffffffffffffffffffffffffffff168273ffffffffffffffffffffffffffffffffffffffff1614151515611bc257600080fd5b8260000160008373ffffffffffffffffffffffffffffffffffffffff1673ffffffffffffffffffffffffffffffffffffffff16815260200190815260200160002060009054906101000a900460ff16905092915050565b600073ffffffffffffffffffffffffffffffffffffffff168173ffffffffffffffffffffffffffffffffffffffff1614151515611c5557600080fd5b611c5f8282611b85565b151515611c6b57600080fd5b60018260000160008373ffffffffffffffffffffffffffffffffffffffff1673ffffffffffffffffffffffffffffffffffffffff16815260200190815260200160002060006101000a81548160ff0219169083151502179055505050565b600073ffffffffffffffffffffffffffffffffffffffff168173ffffffffffffffffffffffffffffffffffffffff1614151515611d0557600080fd5b611d0f8282611b85565b1515611d1a57600080fd5b60008260000160008373ffffffffffffffffffffffffffffffffffffffff1673ffffffffffffffffffffffffffffffffffffffff16815260200190815260200160002060006101000a81548160ff02191690831515021790555050505600a165627a7a723058202e2107262071e555e6e8d451d5fd2a87bc3452c74774c491ece20beb5ca2c3180029",
  "source": "pragma solidity ^0.4.24;\n\n/// @custom:security-contact security@purpletech.io\n\nimport \"openzeppelin-solidity/contracts/token/ERC20/ERC20Detailed.sol\";\nimport \"openzeppelin-solidity/contracts/token/ERC20/ERC20Mintable.sol\";\nimport \"openzeppelin-solidity/contracts/token/ERC20/ERC20Burnable.sol\";\nimport \"openzeppelin-solidity/contracts/math/SafeMath.sol\";\nimport './MathHelp.sol';\nimport \"./Ownable.sol\";\n\ncontract Purplecoin is ERC20Detailed, ERC20Mintable, ERC20Burnable {\n    constructor() public ERC20Detailed(\"Purplecoin\", \"XPU\", 18) {}\n\n    /**\n     * Event for burning tokens\n     * @param burner The address burning the tokens\n     * @param value amount of tokens burnt\n     * @param message burn additional data\n     */\n    event TokenBurn(\n        address burner,\n        uint256 value,\n        string message\n    );\n\n    /**\n     * @dev Burn tokens with message. Used to transfer coins to the main chain when message is a Purplecoin address.\n     * @param value amount of tokens to be burnt\n     * @param message additional data\n     */\n    function burn(uint256 value, string message) public {\n        super.burn(value);\n        emit TokenBurn(msg.sender, value, message);\n    }\n\n    /**\n     * @dev Burn tokens from address with message. Used to transfer coins to the main chain when message is a Purplecoin address.\n     * @param account account to burn tokens from\n     * @param value amount of tokens to be burnt\n     * @param message additional data\n     */\n    function burnFrom(address account, uint256 value, string message) public {\n        super.burnFrom(account, value);\n        emit TokenBurn(account, value, message);\n    }\n}\n\ncontract PurplecoinCrowdsale is Ownable {\n    using SafeMath for uint256;\n\n    uint256 stage = 0;\n\n    // Mapping of KYC authorisations\n    mapping(address => bool) public kyc_authorised;\n\n    // Banned addresses\n    mapping(address => bool) public banned;\n\n    // Mapping of Pending purchases \n    mapping(address => bool) public pending;\n\n    // Mapping of pending Wei\n    mapping(address => uint256) public pending_wei;\n\n    // Mapping of pending psats \n    mapping(address => uint256) public pending_psats;\n\n    // Balances\n    mapping(address => uint256) private _balances;\n\n    MathHelp math = new MathHelp();\n\n    // Amount sold, refunded, and in escrow\n    // --------------------------\n    uint256 public totalPsatsInEscrow;\n    uint256 public totalWeiInEscrow;\n    uint256 public totalSoldPsats;\n    uint256 public totalWeiInSettledEscrow;\n\n    // -----------------------\n    uint256 public tokensCap;\n    uint256 public individualTokensCap;\n    uint256 private bonus;\n    uint256[] private WAVE_CAPS;\n    uint256[] private WAVE_BONUSES;\n    bool public isFinalized;\n    ERC20Mintable public token;\n\n    // Address where funds are collected\n    address public wallet;\n\n    // How many token units a buyer gets per wei\n    uint256 public rate;\n\n    // Amount of wei raised\n    uint256 public weiRaised;\n\n    /// @dev counter to allow mutex lock with only one SSTORE operation\n    uint256 private _guardCounter;\n\n    constructor(uint256 _rate, uint256 _coins, uint256[] _waveCaps, uint256[] _waveBonuses, address _wallet) public {\n        wallet = _wallet;\n        uint256 decimals = 10 ** 18; // 18 decimal places\n        tokensCap = _coins * decimals;\n        _waveCaps[0] = _waveCaps[0] * decimals;\n        _waveCaps[1] = _waveCaps[1] * decimals;\n        _waveCaps[2] = _waveCaps[2] * decimals;\n        individualTokensCap = 50000 * decimals; // Max 50,000 XPU per person \n        rate = _rate;\n        token = createTokenContract();\n        WAVE_CAPS = _waveCaps;\n        WAVE_BONUSES = _waveBonuses;\n        setCrowdsaleStage(0);//set in pre Sale stage\n\n        // The counter starts at one to prevent changing it from zero to a non-zero\n        // value, which is a more expensive operation.\n        _guardCounter = 1;\n    }\n\n    // ==============================\n\n    // Events\n    // ---------------------\n    event EthTransferred(uint256 amount);\n    event PurchaseCancelled(address indexed beneficiary);\n    event KycAuthorised(address indexed beneficiary);\n    event IncrementWave(uint256 newWave);\n    event TokenMint(address indexed beneficiary, uint256 amount);\n    event CrowdsaleFinalized();\n\n    /**\n     * Event for token purchase logging\n     * @param purchaser who paid for the tokens\n     * @param beneficiary who got the tokens\n     * @param value weis paid for purchase\n     * @param amount amount of tokens purchased\n     */\n    event TokenPurchase(\n        address indexed purchaser,\n        address indexed beneficiary,\n        bool authorised,\n        uint256 value,\n        uint256 amount\n    );\n\n    /**\n     * @dev fallback function ***DO NOT OVERRIDE***\n     * Note that other contracts will transfer fund with a base gas stipend\n     * of 2300, which is not enough to call buyTokens. Consider calling\n     * buyTokens directly when purchasing tokens from a contract.\n     */\n    function () external payable {\n        buyTokens(msg.sender);\n    }\n\n    /**\n     * @dev Reverts if beneficiary is not authorized. Can be used when extending this contract.\n     * @param _beneficiary beneficiary address\n     */\n    modifier isAuthorised(address _beneficiary) {\n        require(kyc_authorised[_beneficiary]);\n        _;\n    }\n\n    /**\n     * @dev Reverts if beneficiary is not pending. Can be used when extending this contract.\n     */\n    modifier isPending(address _beneficiary) {\n        require(pending[_beneficiary]);\n        _;\n    }\n\n    // Reentrancy Guard\n    // -----------------------\n\n    /**\n     * @dev Prevents a contract from calling itself, directly or indirectly.\n     * Calling a `nonReentrant` function from another `nonReentrant`\n     * function is not supported. It is possible to prevent this from happening\n     * by making the `nonReentrant` function external, and make it call a\n     * `private` function that does the actual work.\n     */\n    modifier nonReentrant() {\n        _guardCounter += 1;\n        uint256 localCounter = _guardCounter;\n        _;\n        require(localCounter == _guardCounter);\n    }\n\n    // Post delivery\n    // -----------------------\n\n    /**\n     * @dev Withdraw tokens only after crowdsale ends.\n     * @param _beneficiary Whose tokens will be withdrawn.\n     */\n    function withdrawTokens(address _beneficiary) nonReentrant public {\n        require(isFinalized);\n        uint256 amount = _balances[_beneficiary];\n        require(amount > 0);\n        _balances[_beneficiary] = 0;\n        _deliverTokens(_beneficiary, amount);\n    }\n\n    /**\n     * @return the balance of an account.\n     */\n    function balanceOf(address account) public view returns(uint256) {\n        return _balances[account];\n    }\n\n    // Crowdsale Stages\n    // -----------------------\n\n    // Change Crowdsale Stage.\n    function setCrowdsaleStage(uint256 _stage) private {\n        setCurrentBonus(WAVE_BONUSES[_stage]);\n        stage = _stage;\n    }\n\n    function getCurrentStage() public constant returns (uint256){\n        return stage;\n    }\n\n\n    function currentWaveCap() public constant returns (uint256) {\n        return WAVE_CAPS[stage];\n    }\n\n    function incrementWave() private {\n        stage = stage + 1;\n        emit IncrementWave(stage);\n        return;\n    }\n\n    // Change the current bonus\n    function setCurrentBonus(uint256 _bonus) private {\n        bonus = _bonus;\n        return;\n    }\n\n    //---------------------------end stages----------------------------------\n\n    // creates the token to be sold.\n    // override this method to have crowdsale of a specific ERC20Mintable token.\n    function createTokenContract() internal returns (ERC20Mintable) {\n        return new Purplecoin();\n    }\n\n    function _shouldIncrementWave(uint256 _currentWaveCap) constant internal returns (bool){\n        return totalSoldPsats.add(totalPsatsInEscrow) >= _currentWaveCap;\n    }\n\n    // Override to execute any logic once the crowdsale finalizes\n    // Requires a call to the public finalize method\n    function finalization() internal {\n        // mint the rest of the tokens\n        // if (token.totalSupply() < tokensCap) {\n        //     mintTokens(remainingTokensWallet, tokensCap.sub(token.totalSupply()));\n        // }\n        //no more tokens from now on\n        //token.finishMinting();\n        emit CrowdsaleFinalized();\n    }\n\n    function finalize() public onlyOwner {\n        require(!isFinalized);\n        finalization();\n        isFinalized = true;\n    }\n\n    function ban(address _beneficiary) public onlyOwner {\n        require(!banned[_beneficiary]);\n        banned[_beneficiary] = true;\n    }\n\n    function clearWeiInSettledEscrow() public onlyOwner {\n        require(totalWeiInSettledEscrow > 0);\n        wallet.transfer(totalWeiInSettledEscrow);\n        emit EthTransferred(totalWeiInSettledEscrow);\n        totalWeiInSettledEscrow = 0;\n    }\n\n\n    function mintTokens(address _beneficiary, uint256 tokens) internal {\n        require(_beneficiary != 0x0);\n        // Cannot mint before sale is closed\n        require(isFinalized);\n        token.mint(_beneficiary, tokens);\n        emit TokenMint(_beneficiary, tokens);\n    }\n\n    /**\n     * @dev Update the rate\n     * @param _rate new rate\n     */\n    function updateRate(uint256 _rate) public onlyOwner {\n        require(!isFinalized);\n        rate = _rate;\n    }\n\n    // KYC\n    // -----------------------\n\n    /**\n     * @dev Authorise token transfer for address.\n     * @param _beneficiary beneficiary address\n     */\n    function authorise(address _beneficiary) public nonReentrant isPending(_beneficiary) onlyOwner {\n        emit KycAuthorised(_beneficiary);\n        _forwardPendingFunds(_beneficiary);\n    }\n\n    /**\n     * @dev Authorise token transfers for a batch of addresses.\n     * @param _beneficiaries Beneficiaries array\n     */\n    function authoriseMany(address[] _beneficiaries) external nonReentrant onlyOwner {\n        for(uint256 i=0; i < _beneficiaries.length; i++) {\n            address _beneficiary = _beneficiaries[i];\n            require(pending[_beneficiary]);\n            emit KycAuthorised(_beneficiary);\n            _forwardPendingFunds(_beneficiary);\n        }\n    }\n\n    function withdrawalAllowed(address _beneficiary) public view returns(bool) {\n        return kyc_authorised[_beneficiary];\n    }\n\n    // Crowdsale overrides\n    // -----------------------\n\n    // Override this method to have a way to add business logic to your crowdsale when buying\n    // Returns weiAmount times rate by default\n    function _getTokenAmount(uint256 weiAmount) internal view returns (uint256) {\n        return rate.mul(weiAmount.add(math.getPercentAmount(weiAmount, bonus, 18)));\n    }\n\n    function cancelPurchase() public nonReentrant isPending(msg.sender) {\n        require(pending_wei[msg.sender] != 0);\n        uint256 to_refund = pending_wei[msg.sender];\n        totalWeiInEscrow = totalWeiInEscrow.sub(pending_wei[msg.sender]);\n        totalPsatsInEscrow = totalPsatsInEscrow.sub(pending_psats[msg.sender]);\n        pending[msg.sender] = false;\n        pending_wei[msg.sender] = 0;\n        pending_psats[msg.sender] = 0;\n        msg.sender.transfer(to_refund);\n        emit PurchaseCancelled(msg.sender);\n    }\n\n    function cancelPurchaseFor(address _beneficiary) public nonReentrant isPending(_beneficiary) onlyOwner {\n        require(pending_wei[_beneficiary] != 0);\n        uint256 to_refund = pending_wei[_beneficiary];\n        totalWeiInEscrow = totalWeiInEscrow.sub(pending_wei[_beneficiary]);\n        totalPsatsInEscrow = totalPsatsInEscrow.sub(pending_psats[_beneficiary]);\n        pending[_beneficiary] = false;\n        pending_wei[_beneficiary] = 0;\n        pending_psats[_beneficiary] = 0;\n        _beneficiary.transfer(to_refund);\n        emit PurchaseCancelled(_beneficiary);\n    }\n\n    /**\n     * @dev low level token purchase ***DO NOT OVERRIDE***\n     * @param _beneficiary Address performing the token purchase\n     */\n    function buyTokens(address _beneficiary) public nonReentrant payable {\n        uint256 weiAmount = msg.value;\n        _preValidatePurchase(_beneficiary, weiAmount);\n\n        // calculate token amount to be created\n        uint256 tokens = _getTokenAmount(weiAmount);\n\n        _processPurchase(_beneficiary, tokens);\n        emit TokenPurchase(msg.sender, _beneficiary, kyc_authorised[_beneficiary], weiAmount, tokens);\n\n        _updatePurchasingState(_beneficiary, weiAmount);\n\n        _forwardFunds(_beneficiary);\n        _postValidatePurchase(_beneficiary, weiAmount);\n    }\n\n    /**\n     * @dev Validation of an incoming purchase. Use require statements to revert state when conditions are not met. Use `super` in contracts that inherit from Crowdsale to extend their validations.\n     * Example from CappedCrowdsale.sol's _preValidatePurchase method:\n     *   super._preValidatePurchase(beneficiary, weiAmount);\n     *   require(weiRaised().add(weiAmount) <= cap);\n     * @param beneficiary Address performing the token purchase\n     * @param weiAmount Value in wei involved in the purchase\n    */\n    function _preValidatePurchase(\n        address beneficiary,\n        uint256 weiAmount\n    )\n        internal\n        view\n    {\n        uint256 tokenAmount = _getTokenAmount(weiAmount);\n        require(beneficiary != address(0));\n        require(weiAmount >= 250000000000000000); // 0.25 ETH minimum purchase\n        require(!isFinalized);\n        require(!banned[beneficiary]);\n        require(_balances[beneficiary].add(pending_psats[beneficiary]).add(tokenAmount) <= individualTokensCap); // Individual cap\n        require(tokenAmount.add(totalSoldPsats) <= tokensCap);                                                   // Sale cap\n    }\n\n    /**\n     * @dev Validation of an executed purchase. Observe state and use revert statements to undo rollback when valid conditions are not met.\n     * @param _beneficiary Address performing the token purchase\n     * @param _weiAmount Value in wei involved in the purchase\n     */\n    function _postValidatePurchase(\n        address _beneficiary,\n        uint256 _weiAmount\n    )\n        internal\n        view\n    {\n        // optional override\n    }\n\n    /**\n     * @dev Override for extensions that require an internal state to check for validity (current user contributions, etc.)\n     * @param _beneficiary Address receiving the tokens\n     * @param _weiAmount Value in wei involved in the purchase\n     */\n    function _updatePurchasingState(\n        address _beneficiary,\n        uint256 _weiAmount\n    )\n        internal\n    {\n        // optional override\n    }\n\n    /**\n     * @dev Source of tokens. Override this method to modify the way in which the crowdsale ultimately gets and sends its tokens.\n     * @param _beneficiary Address performing the token purchase\n     * @param _tokenAmount Number of tokens to be emitted\n     */\n    function _deliverTokens(address _beneficiary, uint256 _tokenAmount) \n        internal \n        isAuthorised(_beneficiary) \n    {\n        mintTokens(_beneficiary, _tokenAmount);\n    }\n\n    /**\n     * @dev Executed when a purchase has been validated and is ready to be executed. Not necessarily emits/sends tokens.\n     * @param _beneficiary Address receiving the tokens\n     * @param _tokenAmount Number of tokens to be purchased\n     */\n    function _processPurchase(address _beneficiary, uint256 _tokenAmount)\n        internal\n    {\n        if (kyc_authorised[_beneficiary]) {\n            weiRaised = weiRaised.add(msg.value);\n            _balances[_beneficiary] = _balances[_beneficiary].add(_tokenAmount);\n            totalSoldPsats = totalSoldPsats.add(_tokenAmount);\n        } else {\n            kyc_authorised[_beneficiary] = false;\n            pending[_beneficiary] = true;\n            pending_psats[_beneficiary] = pending_psats[_beneficiary].add(_tokenAmount);\n            totalPsatsInEscrow = totalPsatsInEscrow.add(_tokenAmount);\n            if (_shouldIncrementWave(currentWaveCap())) {\n                incrementWave();\n            }\n        }\n    }\n\n    // Override to create custom fund forwarding mechanisms\n    // Forwards funds to the specified wallet by default\n    function _forwardFunds(address _beneficiary) internal {\n        if (kyc_authorised[_beneficiary]) {\n            weiRaised = weiRaised.add(pending_wei[_beneficiary]);\n            if (_shouldIncrementWave(currentWaveCap())) {\n                incrementWave();\n            }\n            totalWeiInSettledEscrow = totalWeiInSettledEscrow.add(msg.value);\n        } else {\n            pending_wei[_beneficiary] = pending_wei[_beneficiary].add(msg.value);\n            totalWeiInEscrow = totalWeiInEscrow.add(msg.value);\n        }\n    }\n\n    // Override to create custom pending fund forwarding mechanisms\n    // Forwards funds to the specified wallet by default\n    function _forwardPendingFunds(address _beneficiary) internal {\n        weiRaised = weiRaised.add(pending_wei[_beneficiary]);\n        totalWeiInEscrow = totalWeiInEscrow.sub(pending_wei[_beneficiary]);\n        totalSoldPsats = totalSoldPsats.add(pending_psats[_beneficiary]);\n        totalPsatsInEscrow = totalPsatsInEscrow.sub(pending_psats[_beneficiary]);\n        \n        _balances[_beneficiary] = _balances[_beneficiary].add(pending_psats[_beneficiary]);\n        wallet.transfer(pending_wei[_beneficiary]);\n        emit EthTransferred(pending_wei[_beneficiary]);\n\n        pending_wei[_beneficiary] = 0;\n        pending_psats[_beneficiary] = 0;\n        kyc_authorised[_beneficiary] = true;\n        pending[_beneficiary] = false;\n    }\n}",
  "sourcePath": "/Users/octavonce/Projects/purplecoin_crowdsale/contracts/PurplecoinCrowdsale.sol",
  "compiler": {
    "name": "solc",
    "version": "0.4.24+commit.e67f0147.Emscripten.clang"
  },
  "schemaVersion": "3.4.11",
  "updatedAt": "2023-01-22T13:52:39.994Z",
  "devdoc": {
    "methods": {
      "authorise(address)": {
        "details": "Authorise token transfer for address.",
        "params": {
          "_beneficiary": "beneficiary address"
        }
      },
      "authoriseMany(address[])": {
        "details": "Authorise token transfers for a batch of addresses.",
        "params": {
          "_beneficiaries": "Beneficiaries array"
        }
      },
      "balanceOf(address)": {
        "return": "the balance of an account."
      },
      "buyTokens(address)": {
        "details": "low level token purchase ***DO NOT OVERRIDE***",
        "params": {
          "_beneficiary": "Address performing the token purchase"
        }
      },
      "renounceOwnership()": {
        "details": "Allows the current owner to relinquish control of the contract."
      },
      "transferOwnership(address)": {
        "details": "Allows the current owner to transfer control of the contract to a newOwner.",
        "params": {
          "newOwner": "The address to transfer ownership to."
        }
      },
      "updateRate(uint256)": {
        "details": "Update the rate",
        "params": {
          "_rate": "new rate"
        }
      },
      "withdrawTokens(address)": {
        "details": "Withdraw tokens only after crowdsale ends.",
        "params": {
          "_beneficiary": "Whose tokens will be withdrawn."
        }
      }
    }
  },
  "userdoc": {
    "methods": {}
  }
}