{
  "contractName": "PurplecoinCrowdsale",
  "abi": [
    {
      "constant": true,
      "inputs": [],
      "name": "tokensCap",
      "outputs": [
        {
          "name": "",
          "type": "uint256"
        }
      ],
      "payable": false,
      "stateMutability": "view",
      "type": "function"
    },
    {
      "constant": true,
      "inputs": [],
      "name": "totalWeiInSettledEscrow",
      "outputs": [
        {
          "name": "",
          "type": "uint256"
        }
      ],
      "payable": false,
      "stateMutability": "view",
      "type": "function"
    },
    {
      "constant": true,
      "inputs": [],
      "name": "totalSoldPsats",
      "outputs": [
        {
          "name": "",
          "type": "uint256"
        }
      ],
      "payable": false,
      "stateMutability": "view",
      "type": "function"
    },
    {
      "constant": true,
      "inputs": [],
      "name": "rate",
      "outputs": [
        {
          "name": "",
          "type": "uint256"
        }
      ],
      "payable": false,
      "stateMutability": "view",
      "type": "function"
    },
    {
      "constant": true,
      "inputs": [
        {
          "name": "",
          "type": "address"
        }
      ],
      "name": "pending_psats",
      "outputs": [
        {
          "name": "",
          "type": "uint256"
        }
      ],
      "payable": false,
      "stateMutability": "view",
      "type": "function"
    },
    {
      "constant": true,
      "inputs": [],
      "name": "weiRaised",
      "outputs": [
        {
          "name": "",
          "type": "uint256"
        }
      ],
      "payable": false,
      "stateMutability": "view",
      "type": "function"
    },
    {
      "constant": true,
      "inputs": [],
      "name": "wallet",
      "outputs": [
        {
          "name": "",
          "type": "address"
        }
      ],
      "payable": false,
      "stateMutability": "view",
      "type": "function"
    },
    {
      "constant": true,
      "inputs": [
        {
          "name": "",
          "type": "address"
        }
      ],
      "name": "pending",
      "outputs": [
        {
          "name": "",
          "type": "bool"
        }
      ],
      "payable": false,
      "stateMutability": "view",
      "type": "function"
    },
    {
      "constant": true,
      "inputs": [],
      "name": "totalPsatsInEscrow",
      "outputs": [
        {
          "name": "",
          "type": "uint256"
        }
      ],
      "payable": false,
      "stateMutability": "view",
      "type": "function"
    },
    {
      "constant": true,
      "inputs": [],
      "name": "minBuy",
      "outputs": [
        {
          "name": "",
          "type": "uint256"
        }
      ],
      "payable": false,
      "stateMutability": "view",
      "type": "function"
    },
    {
      "constant": false,
      "inputs": [],
      "name": "renounceOwnership",
      "outputs": [],
      "payable": false,
      "stateMutability": "nonpayable",
      "type": "function"
    },
    {
      "constant": true,
      "inputs": [],
      "name": "isFinalized",
      "outputs": [
        {
          "name": "",
          "type": "bool"
        }
      ],
      "payable": false,
      "stateMutability": "view",
      "type": "function"
    },
    {
      "constant": true,
      "inputs": [],
      "name": "owner",
      "outputs": [
        {
          "name": "",
          "type": "address"
        }
      ],
      "payable": false,
      "stateMutability": "view",
      "type": "function"
    },
    {
      "constant": true,
      "inputs": [],
      "name": "totalWeiInEscrow",
      "outputs": [
        {
          "name": "",
          "type": "uint256"
        }
      ],
      "payable": false,
      "stateMutability": "view",
      "type": "function"
    },
    {
      "constant": true,
      "inputs": [
        {
          "name": "",
          "type": "address"
        }
      ],
      "name": "pending_wei",
      "outputs": [
        {
          "name": "",
          "type": "uint256"
        }
      ],
      "payable": false,
      "stateMutability": "view",
      "type": "function"
    },
    {
      "constant": true,
      "inputs": [
        {
          "name": "",
          "type": "address"
        }
      ],
      "name": "kyc_authorised",
      "outputs": [
        {
          "name": "",
          "type": "bool"
        }
      ],
      "payable": false,
      "stateMutability": "view",
      "type": "function"
    },
    {
      "constant": true,
      "inputs": [],
      "name": "individualTokensCap",
      "outputs": [
        {
          "name": "",
          "type": "uint256"
        }
      ],
      "payable": false,
      "stateMutability": "view",
      "type": "function"
    },
    {
      "constant": false,
      "inputs": [
        {
          "name": "newOwner",
          "type": "address"
        }
      ],
      "name": "transferOwnership",
      "outputs": [],
      "payable": false,
      "stateMutability": "nonpayable",
      "type": "function"
    },
    {
      "constant": true,
      "inputs": [],
      "name": "token",
      "outputs": [
        {
          "name": "",
          "type": "address"
        }
      ],
      "payable": false,
      "stateMutability": "view",
      "type": "function"
    },
    {
      "inputs": [
        {
          "name": "_rate",
          "type": "uint256"
        },
        {
          "name": "_coins",
          "type": "uint256"
        },
        {
          "name": "_waveCaps",
          "type": "uint256[]"
        },
        {
          "name": "_waveBonuses",
          "type": "uint256[]"
        },
        {
          "name": "_wallet",
          "type": "address"
        }
      ],
      "payable": false,
      "stateMutability": "nonpayable",
      "type": "constructor"
    },
    {
      "payable": true,
      "stateMutability": "payable",
      "type": "fallback"
    },
    {
      "anonymous": false,
      "inputs": [
        {
          "indexed": false,
          "name": "amount",
          "type": "uint256"
        }
      ],
      "name": "EthTransferred",
      "type": "event"
    },
    {
      "anonymous": false,
      "inputs": [
        {
          "indexed": true,
          "name": "beneficiary",
          "type": "address"
        }
      ],
      "name": "PurchaseCancelled",
      "type": "event"
    },
    {
      "anonymous": false,
      "inputs": [
        {
          "indexed": true,
          "name": "beneficiary",
          "type": "address"
        }
      ],
      "name": "KycAuthorised",
      "type": "event"
    },
    {
      "anonymous": false,
      "inputs": [
        {
          "indexed": false,
          "name": "newWave",
          "type": "uint256"
        }
      ],
      "name": "IncrementWave",
      "type": "event"
    },
    {
      "anonymous": false,
      "inputs": [
        {
          "indexed": true,
          "name": "beneficiary",
          "type": "address"
        },
        {
          "indexed": false,
          "name": "amount",
          "type": "uint256"
        }
      ],
      "name": "TokenMint",
      "type": "event"
    },
    {
      "anonymous": false,
      "inputs": [],
      "name": "CrowdsaleFinalized",
      "type": "event"
    },
    {
      "anonymous": false,
      "inputs": [
        {
          "indexed": true,
          "name": "purchaser",
          "type": "address"
        },
        {
          "indexed": true,
          "name": "beneficiary",
          "type": "address"
        },
        {
          "indexed": false,
          "name": "authorised",
          "type": "bool"
        },
        {
          "indexed": false,
          "name": "value",
          "type": "uint256"
        },
        {
          "indexed": false,
          "name": "amount",
          "type": "uint256"
        }
      ],
      "name": "TokenPurchase",
      "type": "event"
    },
    {
      "anonymous": false,
      "inputs": [
        {
          "indexed": true,
          "name": "previousOwner",
          "type": "address"
        }
      ],
      "name": "OwnershipRenounced",
      "type": "event"
    },
    {
      "anonymous": false,
      "inputs": [
        {
          "indexed": true,
          "name": "previousOwner",
          "type": "address"
        },
        {
          "indexed": true,
          "name": "newOwner",
          "type": "address"
        }
      ],
      "name": "OwnershipTransferred",
      "type": "event"
    },
    {
      "constant": false,
      "inputs": [
        {
          "name": "_beneficiary",
          "type": "address"
        }
      ],
      "name": "withdrawTokens",
      "outputs": [],
      "payable": false,
      "stateMutability": "nonpayable",
      "type": "function"
    },
    {
      "constant": true,
      "inputs": [
        {
          "name": "account",
          "type": "address"
        }
      ],
      "name": "balanceOf",
      "outputs": [
        {
          "name": "",
          "type": "uint256"
        }
      ],
      "payable": false,
      "stateMutability": "view",
      "type": "function"
    },
    {
      "constant": true,
      "inputs": [],
      "name": "getCurrentStage",
      "outputs": [
        {
          "name": "",
          "type": "uint256"
        }
      ],
      "payable": false,
      "stateMutability": "view",
      "type": "function"
    },
    {
      "constant": true,
      "inputs": [],
      "name": "currentWaveCap",
      "outputs": [
        {
          "name": "",
          "type": "uint256"
        }
      ],
      "payable": false,
      "stateMutability": "view",
      "type": "function"
    },
    {
      "constant": false,
      "inputs": [],
      "name": "finalize",
      "outputs": [],
      "payable": false,
      "stateMutability": "nonpayable",
      "type": "function"
    },
    {
      "constant": false,
      "inputs": [],
      "name": "clearWeiInSettledEscrow",
      "outputs": [],
      "payable": false,
      "stateMutability": "nonpayable",
      "type": "function"
    },
    {
      "constant": false,
      "inputs": [
        {
          "name": "_rate",
          "type": "uint256"
        }
      ],
      "name": "updateRate",
      "outputs": [],
      "payable": false,
      "stateMutability": "nonpayable",
      "type": "function"
    },
    {
      "constant": false,
      "inputs": [
        {
          "name": "_minBuy",
          "type": "uint256"
        }
      ],
      "name": "updateMinBuy",
      "outputs": [],
      "payable": false,
      "stateMutability": "nonpayable",
      "type": "function"
    },
    {
      "constant": false,
      "inputs": [
        {
          "name": "_individualTokensCap",
          "type": "uint256"
        }
      ],
      "name": "updateIndividualTokensCap",
      "outputs": [],
      "payable": false,
      "stateMutability": "nonpayable",
      "type": "function"
    },
    {
      "constant": false,
      "inputs": [
        {
          "name": "_beneficiary",
          "type": "address"
        }
      ],
      "name": "authorise",
      "outputs": [],
      "payable": false,
      "stateMutability": "nonpayable",
      "type": "function"
    },
    {
      "constant": false,
      "inputs": [
        {
          "name": "_beneficiaries",
          "type": "address[]"
        }
      ],
      "name": "authoriseMany",
      "outputs": [],
      "payable": false,
      "stateMutability": "nonpayable",
      "type": "function"
    },
    {
      "constant": true,
      "inputs": [
        {
          "name": "_beneficiary",
          "type": "address"
        }
      ],
      "name": "withdrawalAllowed",
      "outputs": [
        {
          "name": "",
          "type": "bool"
        }
      ],
      "payable": false,
      "stateMutability": "view",
      "type": "function"
    },
    {
      "constant": false,
      "inputs": [],
      "name": "cancelPurchase",
      "outputs": [],
      "payable": false,
      "stateMutability": "nonpayable",
      "type": "function"
    },
    {
      "constant": false,
      "inputs": [
        {
          "name": "_beneficiary",
          "type": "address"
        }
      ],
      "name": "cancelPurchaseFor",
      "outputs": [],
      "payable": false,
      "stateMutability": "nonpayable",
      "type": "function"
    },
    {
      "constant": false,
      "inputs": [
        {
          "name": "_beneficiary",
          "type": "address"
        }
      ],
      "name": "buyTokens",
      "outputs": [],
      "payable": true,
      "stateMutability": "payable",
      "type": "function"
    }
  ],
  "bytecode": "0x6080604052600060015562000013620003fe565b604051809103906000f08015801562000030573d6000803e3d6000fd5b50600860006101000a81548173ffffffffffffffffffffffffffffffffffffffff021916908373ffffffffffffffffffffffffffffffffffffffff1602179055503480156200007e57600080fd5b506040516200531b3803806200531b83398101806040528101908080519060200190929190805190602001909291908051820192919060200180518201929190602001805190602001909291905050506000336000806101000a81548173ffffffffffffffffffffffffffffffffffffffff021916908373ffffffffffffffffffffffffffffffffffffffff16021790555081601360006101000a81548173ffffffffffffffffffffffffffffffffffffffff021916908373ffffffffffffffffffffffffffffffffffffffff160217905550670de0b6b3a76400009050808502600d819055506a1f6e99eae8bd80076000008460008151811015156200018157fe5b90602001906020020181815250506a3edd33d5d17b000ec00000846001815181101515620001ab57fe5b90602001906020020181815250506a5e4bcdce9aef33bd840000846002815181101515620001d557fe5b90602001906020020181815250506969e10de76676d0800000600e81905550662386f26fc10000601681905550856014819055506200022262000387640100000000026401000000009004565b601260016101000a81548173ffffffffffffffffffffffffffffffffffffffff021916908373ffffffffffffffffffffffffffffffffffffffff16021790555083601090805190602001906200027a9291906200040f565b508260119080519060200190620002939291906200040f565b50620002af6000620003b6640100000000026401000000009004565b6862bfc73cbfe3900000600660007325e320b95316baa3d300155ad82a0aebee400e6673ffffffffffffffffffffffffffffffffffffffff1673ffffffffffffffffffffffffffffffffffffffff168152602001908152602001600020819055506a096dfaf9ac38d99bd000006006600073130fcead624c57ab46ef073bd1a940acf8bf2c8573ffffffffffffffffffffffffffffffffffffffff1673ffffffffffffffffffffffffffffffffffffffff1681526020019081526020016000208190555060016017819055505050505050506200049a565b60006200039362000461565b604051809103906000f080158015620003b0573d6000803e3d6000fd5b50905090565b620003ea601182815481101515620003ca57fe5b9060005260206000200154620003f4640100000000026401000000009004565b8060018190555050565b80600f8190555050565b604051610180806200308683390190565b8280548282559060005260206000209081019282156200044e579160200282015b828111156200044d57825182559160200191906001019062000430565b5b5090506200045d919062000472565b5090565b604051612115806200320683390190565b6200049791905b808211156200049357600081600090555060010162000479565b5090565b90565b612bdc80620004aa6000396000f3006080604052600436106101ac576000357c0100000000000000000000000000000000000000000000000000000000900463ffffffff168063039fb726146101b7578063085ceb30146101fa57806323f947ef1461022557806327be6e12146102505780632c4e722e1461027b57806332ec4d44146102a65780633ef1d556146102bd5780634042b66f1461031457806349df728c1461033f5780634bb278f314610382578063521eb273146103995780635eebea20146103f057806366e6c8af1461044b578063685ca1941461048e578063698cd050146104e957806369ea17711461051457806370a08231146105415780637107d7a614610598578063715018a6146105c35780638d4e4083146105da5780638da5cb5b146106095780639527fbff14610660578063a45360081461069b578063a62599f5146106c6578063ab460a26146106f1578063c54604ed14610708578063d0627cf21461075f578063d0fd52fb1461078c578063ec6b73a3146107b9578063ec8ac4d814610814578063eedbe31d1461084a578063ef1d0b7714610875578063f2fde38b146108a0578063fc0c546a146108e3575b6101b53361093a565b005b3480156101c357600080fd5b506101f8600480360381019080803573ffffffffffffffffffffffffffffffffffffffff169060200190929190505050610a5b565b005b34801561020657600080fd5b5061020f610def565b6040518082815260200191505060405180910390f35b34801561023157600080fd5b5061023a610df5565b6040518082815260200191505060405180910390f35b34801561025c57600080fd5b50610265610dfb565b6040518082815260200191505060405180910390f35b34801561028757600080fd5b50610290610e01565b6040518082815260200191505060405180910390f35b3480156102b257600080fd5b506102bb610e07565b005b3480156102c957600080fd5b506102fe600480360381019080803573ffffffffffffffffffffffffffffffffffffffff169060200190929190505050610f21565b6040518082815260200191505060405180910390f35b34801561032057600080fd5b50610329610f39565b6040518082815260200191505060405180910390f35b34801561034b57600080fd5b50610380600480360381019080803573ffffffffffffffffffffffffffffffffffffffff169060200190929190505050610f3f565b005b34801561038e57600080fd5b50610397611028565b005b3480156103a557600080fd5b506103ae6110c4565b604051808273ffffffffffffffffffffffffffffffffffffffff1673ffffffffffffffffffffffffffffffffffffffff16815260200191505060405180910390f35b3480156103fc57600080fd5b50610431600480360381019080803573ffffffffffffffffffffffffffffffffffffffff1690602001909291905050506110ea565b604051808215151515815260200191505060405180910390f35b34801561045757600080fd5b5061048c600480360381019080803573ffffffffffffffffffffffffffffffffffffffff16906020019092919050505061110a565b005b34801561049a57600080fd5b506104cf600480360381019080803573ffffffffffffffffffffffffffffffffffffffff169060200190929190505050611237565b604051808215151515815260200191505060405180910390f35b3480156104f557600080fd5b506104fe61128d565b6040518082815260200191505060405180910390f35b34801561052057600080fd5b5061053f60048036038101908080359060200190929190505050611293565b005b34801561054d57600080fd5b50610582600480360381019080803573ffffffffffffffffffffffffffffffffffffffff169060200190929190505050611314565b6040518082815260200191505060405180910390f35b3480156105a457600080fd5b506105ad61135d565b6040518082815260200191505060405180910390f35b3480156105cf57600080fd5b506105d8611363565b005b3480156105e657600080fd5b506105ef611465565b604051808215151515815260200191505060405180910390f35b34801561061557600080fd5b5061061e611478565b604051808273ffffffffffffffffffffffffffffffffffffffff1673ffffffffffffffffffffffffffffffffffffffff16815260200191505060405180910390f35b34801561066c57600080fd5b5061069960048036038101908080359060200190820180359060200191909192939192939050505061149d565b005b3480156106a757600080fd5b506106b0611577565b6040518082815260200191505060405180910390f35b3480156106d257600080fd5b506106db61157d565b6040518082815260200191505060405180910390f35b3480156106fd57600080fd5b506107066115a0565b005b34801561071457600080fd5b50610749600480360381019080803573ffffffffffffffffffffffffffffffffffffffff1690602001909291905050506118d8565b6040518082815260200191505060405180910390f35b34801561076b57600080fd5b5061078a600480360381019080803590602001909291905050506118f0565b005b34801561079857600080fd5b506107b760048036038101908080359060200190929190505050611971565b005b3480156107c557600080fd5b506107fa600480360381019080803573ffffffffffffffffffffffffffffffffffffffff1690602001909291905050506119f2565b604051808215151515815260200191505060405180910390f35b610848600480360381019080803573ffffffffffffffffffffffffffffffffffffffff16906020019092919050505061093a565b005b34801561085657600080fd5b5061085f611a12565b6040518082815260200191505060405180910390f35b34801561088157600080fd5b5061088a611a1c565b6040518082815260200191505060405180910390f35b3480156108ac57600080fd5b506108e1600480360381019080803573ffffffffffffffffffffffffffffffffffffffff169060200190929190505050611a22565b005b3480156108ef57600080fd5b506108f8611b77565b604051808273ffffffffffffffffffffffffffffffffffffffff1673ffffffffffffffffffffffffffffffffffffffff16815260200191505060405180910390f35b6000806000600160176000828254019250508190555060175490503492506109628484611b9d565b61096b83611da6565b91506109778483611eb4565b8373ffffffffffffffffffffffffffffffffffffffff163373ffffffffffffffffffffffffffffffffffffffff167fec26397d55afb0d1d41d8dbc288027ddb7880e323e629246dc0aecbe1c41709a600260008873ffffffffffffffffffffffffffffffffffffffff1673ffffffffffffffffffffffffffffffffffffffff16815260200190815260200160002060009054906101000a900460ff1686866040518084151515158152602001838152602001828152602001935050505060405180910390a3610a45846121ee565b60175481141515610a5557600080fd5b50505050565b6000806001601760008282540192505081905550601754905082600360008273ffffffffffffffffffffffffffffffffffffffff1673ffffffffffffffffffffffffffffffffffffffff16815260200190815260200160002060009054906101000a900460ff161515610acd57600080fd5b6000809054906101000a900473ffffffffffffffffffffffffffffffffffffffff1673ffffffffffffffffffffffffffffffffffffffff163373ffffffffffffffffffffffffffffffffffffffff16141515610b2857600080fd5b6000600460008673ffffffffffffffffffffffffffffffffffffffff1673ffffffffffffffffffffffffffffffffffffffff1681526020019081526020016000205414151515610b7757600080fd5b600460008573ffffffffffffffffffffffffffffffffffffffff1673ffffffffffffffffffffffffffffffffffffffff168152602001908152602001600020549250610c0d600460008673ffffffffffffffffffffffffffffffffffffffff1673ffffffffffffffffffffffffffffffffffffffff16815260200190815260200160002054600a5461233290919063ffffffff16565b600a81905550610c67600560008673ffffffffffffffffffffffffffffffffffffffff1673ffffffffffffffffffffffffffffffffffffffff1681526020019081526020016000205460095461233290919063ffffffff16565b6009819055506000600360008673ffffffffffffffffffffffffffffffffffffffff1673ffffffffffffffffffffffffffffffffffffffff16815260200190815260200160002060006101000a81548160ff0219169083151502179055506000600460008673ffffffffffffffffffffffffffffffffffffffff1673ffffffffffffffffffffffffffffffffffffffff168152602001908152602001600020819055506000600560008673ffffffffffffffffffffffffffffffffffffffff1673ffffffffffffffffffffffffffffffffffffffff168152602001908152602001600020819055508373ffffffffffffffffffffffffffffffffffffffff166108fc849081150290604051600060405180830381858888f19350505050158015610d95573d6000803e3d6000fd5b508373ffffffffffffffffffffffffffffffffffffffff167fdfd111cde119aaaf3e6ca7bc9aa3ef8526ec42bc6a05289c59410df8263b114560405160405180910390a25060175481141515610dea57600080fd5b505050565b600d5481565b600c5481565b600b5481565b60145481565b6000809054906101000a900473ffffffffffffffffffffffffffffffffffffffff1673ffffffffffffffffffffffffffffffffffffffff163373ffffffffffffffffffffffffffffffffffffffff16141515610e6257600080fd5b6000600c54111515610e7357600080fd5b601360009054906101000a900473ffffffffffffffffffffffffffffffffffffffff1673ffffffffffffffffffffffffffffffffffffffff166108fc600c549081150290604051600060405180830381858888f19350505050158015610edd573d6000803e3d6000fd5b507f4aaa918a6038190af8d4a166a2a7be78c04f9d0cc90aed882354d6933a9689b7600c546040518082815260200191505060405180910390a16000600c81905550565b60056020528060005260406000206000915090505481565b60155481565b60008060016017600082825401925050819055506017549050601260009054906101000a900460ff161515610f7357600080fd5b600660008473ffffffffffffffffffffffffffffffffffffffff1673ffffffffffffffffffffffffffffffffffffffff168152602001908152602001600020549150600082111515610fc457600080fd5b6000600660008573ffffffffffffffffffffffffffffffffffffffff1673ffffffffffffffffffffffffffffffffffffffff168152602001908152602001600020819055506110138383612353565b6017548114151561102357600080fd5b505050565b6000809054906101000a900473ffffffffffffffffffffffffffffffffffffffff1673ffffffffffffffffffffffffffffffffffffffff163373ffffffffffffffffffffffffffffffffffffffff1614151561108357600080fd5b601260009054906101000a900460ff1615151561109f57600080fd5b6110a76123bb565b6001601260006101000a81548160ff021916908315150217905550565b601360009054906101000a900473ffffffffffffffffffffffffffffffffffffffff1681565b60036020528060005260406000206000915054906101000a900460ff1681565b60006001601760008282540192505081905550601754905081600360008273ffffffffffffffffffffffffffffffffffffffff1673ffffffffffffffffffffffffffffffffffffffff16815260200190815260200160002060009054906101000a900460ff16151561117b57600080fd5b6000809054906101000a900473ffffffffffffffffffffffffffffffffffffffff1673ffffffffffffffffffffffffffffffffffffffff163373ffffffffffffffffffffffffffffffffffffffff161415156111d657600080fd5b8273ffffffffffffffffffffffffffffffffffffffff167f01857893712f549081848186fed1463c4d3880a5dd67ab6a47916bbc077cebce60405160405180910390a2611222836123e9565b506017548114151561123357600080fd5b5050565b6000600260008373ffffffffffffffffffffffffffffffffffffffff1673ffffffffffffffffffffffffffffffffffffffff16815260200190815260200160002060009054906101000a900460ff169050919050565b60095481565b6000809054906101000a900473ffffffffffffffffffffffffffffffffffffffff1673ffffffffffffffffffffffffffffffffffffffff163373ffffffffffffffffffffffffffffffffffffffff161415156112ee57600080fd5b601260009054906101000a900460ff1615151561130a57600080fd5b8060148190555050565b6000600660008373ffffffffffffffffffffffffffffffffffffffff1673ffffffffffffffffffffffffffffffffffffffff168152602001908152602001600020549050919050565b60165481565b6000809054906101000a900473ffffffffffffffffffffffffffffffffffffffff1673ffffffffffffffffffffffffffffffffffffffff163373ffffffffffffffffffffffffffffffffffffffff161415156113be57600080fd5b6000809054906101000a900473ffffffffffffffffffffffffffffffffffffffff1673ffffffffffffffffffffffffffffffffffffffff167ff8df31144d9c2f0f6b59d69b8b98abd5459d07f2742c4df920b25aae33c6482060405160405180910390a260008060006101000a81548173ffffffffffffffffffffffffffffffffffffffff021916908373ffffffffffffffffffffffffffffffffffffffff160217905550565b601260009054906101000a900460ff1681565b6000809054906101000a900473ffffffffffffffffffffffffffffffffffffffff1681565b600080600160176000828254019250508190555060175490506000809054906101000a900473ffffffffffffffffffffffffffffffffffffffff1673ffffffffffffffffffffffffffffffffffffffff163373ffffffffffffffffffffffffffffffffffffffff1614151561151157600080fd5b600091505b8383905082101561156157611554848484818110151561153257fe5b9050602002013573ffffffffffffffffffffffffffffffffffffffff1661110a565b8180600101925050611516565b6017548114151561157157600080fd5b50505050565b600a5481565b6000601060015481548110151561159057fe5b9060005260206000200154905090565b6000806001601760008282540192505081905550601754905033600360008273ffffffffffffffffffffffffffffffffffffffff1673ffffffffffffffffffffffffffffffffffffffff16815260200190815260200160002060009054906101000a900460ff16151561161257600080fd5b6000600460003373ffffffffffffffffffffffffffffffffffffffff1673ffffffffffffffffffffffffffffffffffffffff168152602001908152602001600020541415151561166157600080fd5b600460003373ffffffffffffffffffffffffffffffffffffffff1673ffffffffffffffffffffffffffffffffffffffff1681526020019081526020016000205492506116f7600460003373ffffffffffffffffffffffffffffffffffffffff1673ffffffffffffffffffffffffffffffffffffffff16815260200190815260200160002054600a5461233290919063ffffffff16565b600a81905550611751600560003373ffffffffffffffffffffffffffffffffffffffff1673ffffffffffffffffffffffffffffffffffffffff1681526020019081526020016000205460095461233290919063ffffffff16565b6009819055506000600360003373ffffffffffffffffffffffffffffffffffffffff1673ffffffffffffffffffffffffffffffffffffffff16815260200190815260200160002060006101000a81548160ff0219169083151502179055506000600460003373ffffffffffffffffffffffffffffffffffffffff1673ffffffffffffffffffffffffffffffffffffffff168152602001908152602001600020819055506000600560003373ffffffffffffffffffffffffffffffffffffffff1673ffffffffffffffffffffffffffffffffffffffff168152602001908152602001600020819055503373ffffffffffffffffffffffffffffffffffffffff166108fc849081150290604051600060405180830381858888f1935050505015801561187f573d6000803e3d6000fd5b503373ffffffffffffffffffffffffffffffffffffffff167fdfd111cde119aaaf3e6ca7bc9aa3ef8526ec42bc6a05289c59410df8263b114560405160405180910390a250601754811415156118d457600080fd5b5050565b60046020528060005260406000206000915090505481565b6000809054906101000a900473ffffffffffffffffffffffffffffffffffffffff1673ffffffffffffffffffffffffffffffffffffffff163373ffffffffffffffffffffffffffffffffffffffff1614151561194b57600080fd5b601260009054906101000a900460ff1615151561196757600080fd5b80600e8190555050565b6000809054906101000a900473ffffffffffffffffffffffffffffffffffffffff1673ffffffffffffffffffffffffffffffffffffffff163373ffffffffffffffffffffffffffffffffffffffff161415156119cc57600080fd5b601260009054906101000a900460ff161515156119e857600080fd5b8060168190555050565b60026020528060005260406000206000915054906101000a900460ff1681565b6000600154905090565b600e5481565b6000809054906101000a900473ffffffffffffffffffffffffffffffffffffffff1673ffffffffffffffffffffffffffffffffffffffff163373ffffffffffffffffffffffffffffffffffffffff16141515611a7d57600080fd5b600073ffffffffffffffffffffffffffffffffffffffff168173ffffffffffffffffffffffffffffffffffffffff1614151515611ab957600080fd5b8073ffffffffffffffffffffffffffffffffffffffff166000809054906101000a900473ffffffffffffffffffffffffffffffffffffffff1673ffffffffffffffffffffffffffffffffffffffff167f8be0079c531659141344cd1fd0a4f28419497f9722a3daafe3b4186f6b6457e060405160405180910390a3806000806101000a81548173ffffffffffffffffffffffffffffffffffffffff021916908373ffffffffffffffffffffffffffffffffffffffff16021790555050565b601260019054906101000a900473ffffffffffffffffffffffffffffffffffffffff1681565b6000611ba882611da6565b9050600073ffffffffffffffffffffffffffffffffffffffff168373ffffffffffffffffffffffffffffffffffffffff1614151515611be657600080fd5b601654611c8c83611c7e600460008873ffffffffffffffffffffffffffffffffffffffff1673ffffffffffffffffffffffffffffffffffffffff16815260200190815260200160002054600760008973ffffffffffffffffffffffffffffffffffffffff1673ffffffffffffffffffffffffffffffffffffffff1681526020019081526020016000205461295490919063ffffffff16565b61295490919063ffffffff16565b10151515611c9957600080fd5b601260009054906101000a900460ff16151515611cb557600080fd5b600e54611d5b82611d4d600560008873ffffffffffffffffffffffffffffffffffffffff1673ffffffffffffffffffffffffffffffffffffffff16815260200190815260200160002054600660008973ffffffffffffffffffffffffffffffffffffffff1673ffffffffffffffffffffffffffffffffffffffff1681526020019081526020016000205461295490919063ffffffff16565b61295490919063ffffffff16565b11151515611d6857600080fd5b600d54611d94600954611d86600b548561295490919063ffffffff16565b61295490919063ffffffff16565b11151515611da157600080fd5b505050565b6000611ead611e9c600860009054906101000a900473ffffffffffffffffffffffffffffffffffffffff1673ffffffffffffffffffffffffffffffffffffffff1663bd4a40db85600f5460126040518463ffffffff167c0100000000000000000000000000000000000000000000000000000000028152600401808481526020018381526020018281526020019350505050602060405180830381600087803b158015611e5257600080fd5b505af1158015611e66573d6000803e3d6000fd5b505050506040513d6020811015611e7c57600080fd5b81019080805190602001909291905050508461295490919063ffffffff16565b60145461297590919063ffffffff16565b9050919050565b600260008373ffffffffffffffffffffffffffffffffffffffff1673ffffffffffffffffffffffffffffffffffffffff16815260200190815260200160002060009054906101000a900460ff161561206b57611f1b3460155461295490919063ffffffff16565b601581905550611f7334600760008573ffffffffffffffffffffffffffffffffffffffff1673ffffffffffffffffffffffffffffffffffffffff1681526020019081526020016000205461295490919063ffffffff16565b600760008473ffffffffffffffffffffffffffffffffffffffff1673ffffffffffffffffffffffffffffffffffffffff1681526020019081526020016000208190555061200881600660008573ffffffffffffffffffffffffffffffffffffffff1673ffffffffffffffffffffffffffffffffffffffff1681526020019081526020016000205461295490919063ffffffff16565b600660008473ffffffffffffffffffffffffffffffffffffffff1673ffffffffffffffffffffffffffffffffffffffff1681526020019081526020016000208190555061206081600b5461295490919063ffffffff16565b600b819055506121ea565b6000600260008473ffffffffffffffffffffffffffffffffffffffff1673ffffffffffffffffffffffffffffffffffffffff16815260200190815260200160002060006101000a81548160ff0219169083151502179055506001600360008473ffffffffffffffffffffffffffffffffffffffff1673ffffffffffffffffffffffffffffffffffffffff16815260200190815260200160002060006101000a81548160ff02191690831515021790555061216d81600560008573ffffffffffffffffffffffffffffffffffffffff1673ffffffffffffffffffffffffffffffffffffffff1681526020019081526020016000205461295490919063ffffffff16565b600560008473ffffffffffffffffffffffffffffffffffffffff1673ffffffffffffffffffffffffffffffffffffffff168152602001908152602001600020819055506121c58160095461295490919063ffffffff16565b6009819055506121db6121d661157d565b6129b3565b156121e9576121e86129d6565b5b5b5050565b600260008273ffffffffffffffffffffffffffffffffffffffff1673ffffffffffffffffffffffffffffffffffffffff16815260200190815260200160002060009054906101000a900460ff161561227e5761225061224b61157d565b6129b3565b1561225e5761225d6129d6565b5b61227334600c5461295490919063ffffffff16565b600c8190555061232f565b6122d034600460008473ffffffffffffffffffffffffffffffffffffffff1673ffffffffffffffffffffffffffffffffffffffff1681526020019081526020016000205461295490919063ffffffff16565b600460008373ffffffffffffffffffffffffffffffffffffffff1673ffffffffffffffffffffffffffffffffffffffff1681526020019081526020016000208190555061232834600a5461295490919063ffffffff16565b600a819055505b50565b60008083831115151561234457600080fd5b82840390508091505092915050565b81600260008273ffffffffffffffffffffffffffffffffffffffff1673ffffffffffffffffffffffffffffffffffffffff16815260200190815260200160002060009054906101000a900460ff1615156123ac57600080fd5b6123b68383612a1c565b505050565b7f9270cc390c096600a1c17c44345a1ba689fafd99d97487b10cfccf86cf73183660405160405180910390a1565b61243d600460008373ffffffffffffffffffffffffffffffffffffffff1673ffffffffffffffffffffffffffffffffffffffff1681526020019081526020016000205460155461295490919063ffffffff16565b6015819055506124d4600460008373ffffffffffffffffffffffffffffffffffffffff1673ffffffffffffffffffffffffffffffffffffffff16815260200190815260200160002054600760008473ffffffffffffffffffffffffffffffffffffffff1673ffffffffffffffffffffffffffffffffffffffff1681526020019081526020016000205461295490919063ffffffff16565b600760008373ffffffffffffffffffffffffffffffffffffffff1673ffffffffffffffffffffffffffffffffffffffff1681526020019081526020016000208190555061256b600460008373ffffffffffffffffffffffffffffffffffffffff1673ffffffffffffffffffffffffffffffffffffffff16815260200190815260200160002054600a5461233290919063ffffffff16565b600a819055506125c5600560008373ffffffffffffffffffffffffffffffffffffffff1673ffffffffffffffffffffffffffffffffffffffff16815260200190815260200160002054600b5461295490919063ffffffff16565b600b8190555061261f600560008373ffffffffffffffffffffffffffffffffffffffff1673ffffffffffffffffffffffffffffffffffffffff1681526020019081526020016000205460095461233290919063ffffffff16565b6009819055506126b6600560008373ffffffffffffffffffffffffffffffffffffffff1673ffffffffffffffffffffffffffffffffffffffff16815260200190815260200160002054600660008473ffffffffffffffffffffffffffffffffffffffff1673ffffffffffffffffffffffffffffffffffffffff1681526020019081526020016000205461295490919063ffffffff16565b600660008373ffffffffffffffffffffffffffffffffffffffff1673ffffffffffffffffffffffffffffffffffffffff16815260200190815260200160002081905550601360009054906101000a900473ffffffffffffffffffffffffffffffffffffffff1673ffffffffffffffffffffffffffffffffffffffff166108fc600460008473ffffffffffffffffffffffffffffffffffffffff1673ffffffffffffffffffffffffffffffffffffffff168152602001908152602001600020549081150290604051600060405180830381858888f193505050501580156127a0573d6000803e3d6000fd5b507f4aaa918a6038190af8d4a166a2a7be78c04f9d0cc90aed882354d6933a9689b7600460008373ffffffffffffffffffffffffffffffffffffffff1673ffffffffffffffffffffffffffffffffffffffff168152602001908152602001600020546040518082815260200191505060405180910390a16000600460008373ffffffffffffffffffffffffffffffffffffffff1673ffffffffffffffffffffffffffffffffffffffff168152602001908152602001600020819055506000600560008373ffffffffffffffffffffffffffffffffffffffff1673ffffffffffffffffffffffffffffffffffffffff168152602001908152602001600020819055506001600260008373ffffffffffffffffffffffffffffffffffffffff1673ffffffffffffffffffffffffffffffffffffffff16815260200190815260200160002060006101000a81548160ff0219169083151502179055506000600360008373ffffffffffffffffffffffffffffffffffffffff1673ffffffffffffffffffffffffffffffffffffffff16815260200190815260200160002060006101000a81548160ff02191690831515021790555050565b600080828401905083811015151561296b57600080fd5b8091505092915050565b600080600084141561298a57600091506129ac565b828402905082848281151561299b57fe5b041415156129a857600080fd5b8091505b5092915050565b6000816129cd600954600b5461295490919063ffffffff16565b10159050919050565b60018054016001819055507f63f66204680e55f6232fbba109063e889b9fd1d4fec00117a4984145e71759726001546040518082815260200191505060405180910390a1565b60008273ffffffffffffffffffffffffffffffffffffffff1614151515612a4257600080fd5b601260009054906101000a900460ff161515612a5d57600080fd5b601260019054906101000a900473ffffffffffffffffffffffffffffffffffffffff1673ffffffffffffffffffffffffffffffffffffffff166340c10f1983836040518363ffffffff167c0100000000000000000000000000000000000000000000000000000000028152600401808373ffffffffffffffffffffffffffffffffffffffff1673ffffffffffffffffffffffffffffffffffffffff16815260200182815260200192505050602060405180830381600087803b158015612b2257600080fd5b505af1158015612b36573d6000803e3d6000fd5b505050506040513d6020811015612b4c57600080fd5b8101908080519060200190929190505050508173ffffffffffffffffffffffffffffffffffffffff167f36bf5aa3964be01dbd95a0154a8930793fe68353bdc580871ffb2c911366bbc7826040518082815260200191505060405180910390a250505600a165627a7a72305820d701d62d4817e08d456f9f24437572135e550d603ef7bee7b181a438489ca8690029608060405234801561001057600080fd5b50610160806100206000396000f30060806040526004361061004c576000357c0100000000000000000000000000000000000000000000000000000000900463ffffffff168063bd4a40db14610051578063c04f01fc146100a6575b600080fd5b34801561005d57600080fd5b506100906004803603810190808035906020019092919080359060200190929190803590602001909291905050506100f1565b6040518082815260200191505060405180910390f35b3480156100b257600080fd5b506100db6004803603810190808035906020019092919080359060200190929190505050610127565b6040518082815260200191505060405180910390f35b60006100fe600a83610127565b6103e802610110600a60018501610127565b8402850281151561011d57fe5b0490509392505050565b600081830a9050929150505600a165627a7a723058201cae4c5b2e3eeb7f6367f5cde534b75f07b62aea07fecc1024e966d029a8e206002960806040523480156200001157600080fd5b506040805190810160405280600a81526020017f507572706c65636f696e000000000000000000000000000000000000000000008152506040805190810160405280600381526020017f58505500000000000000000000000000000000000000000000000000000000008152506012826000908051906020019062000098929190620002b2565b508160019080519060200190620000b1929190620002b2565b5080600260006101000a81548160ff021916908360ff160217905550505050620000ea33620000f0640100000000026401000000009004565b62000361565b620001148160066200015a6401000000000262001c19179091906401000000009004565b8073ffffffffffffffffffffffffffffffffffffffff167f6ae172837ea30b801fbfcdd4108aa1d5bf8ff775444fd70256b44e6bf3dfc3f660405160405180910390a250565b600073ffffffffffffffffffffffffffffffffffffffff168173ffffffffffffffffffffffffffffffffffffffff16141515156200019757600080fd5b620001b282826200021d640100000000026401000000009004565b151515620001bf57600080fd5b60018260000160008373ffffffffffffffffffffffffffffffffffffffff1673ffffffffffffffffffffffffffffffffffffffff16815260200190815260200160002060006101000a81548160ff0219169083151502179055505050565b60008073ffffffffffffffffffffffffffffffffffffffff168273ffffffffffffffffffffffffffffffffffffffff16141515156200025b57600080fd5b8260000160008373ffffffffffffffffffffffffffffffffffffffff1673ffffffffffffffffffffffffffffffffffffffff16815260200190815260200160002060009054906101000a900460ff16905092915050565b828054600181600116156101000203166002900490600052602060002090601f016020900481019282601f10620002f557805160ff191683800117855562000326565b8280016001018555821562000326579182015b828111156200032557825182559160200191906001019062000308565b5b50905062000335919062000339565b5090565b6200035e91905b808211156200035a57600081600090555060010162000340565b5090565b90565b611da480620003716000396000f300608060405260043610610107576000357c0100000000000000000000000000000000000000000000000000000000900463ffffffff16806306fdde031461010c578063095ea7b31461019c57806318160ddd1461020157806323b872dd1461022c578063313ce567146102b157806339509351146102e257806340c10f191461034757806342966c68146103ac57806370a08231146103d95780637641e6f31461043057806379cc6790146104a357806395d89b41146104f0578063979430d214610580578063983b2d56146106135780639865027514610656578063a457c2d71461066d578063a9059cbb146106d2578063aa271e1a14610737578063dd62ed3e14610792575b600080fd5b34801561011857600080fd5b50610121610809565b6040518080602001828103825283818151815260200191508051906020019080838360005b83811015610161578082015181840152602081019050610146565b50505050905090810190601f16801561018e5780820380516001836020036101000a031916815260200191505b509250505060405180910390f35b3480156101a857600080fd5b506101e7600480360381019080803573ffffffffffffffffffffffffffffffffffffffff169060200190929190803590602001909291905050506108ab565b604051808215151515815260200191505060405180910390f35b34801561020d57600080fd5b506102166109d8565b6040518082815260200191505060405180910390f35b34801561023857600080fd5b50610297600480360381019080803573ffffffffffffffffffffffffffffffffffffffff169060200190929190803573ffffffffffffffffffffffffffffffffffffffff169060200190929190803590602001909291905050506109e2565b604051808215151515815260200191505060405180910390f35b3480156102bd57600080fd5b506102c6610b94565b604051808260ff1660ff16815260200191505060405180910390f35b3480156102ee57600080fd5b5061032d600480360381019080803573ffffffffffffffffffffffffffffffffffffffff16906020019092919080359060200190929190505050610bab565b604051808215151515815260200191505060405180910390f35b34801561035357600080fd5b50610392600480360381019080803573ffffffffffffffffffffffffffffffffffffffff16906020019092919080359060200190929190505050610de2565b604051808215151515815260200191505060405180910390f35b3480156103b857600080fd5b506103d760048036038101908080359060200190929190505050610e0c565b005b3480156103e557600080fd5b5061041a600480360381019080803573ffffffffffffffffffffffffffffffffffffffff169060200190929190505050610e19565b6040518082815260200191505060405180910390f35b34801561043c57600080fd5b506104a160048036038101908080359060200190929190803590602001908201803590602001908080601f0160208091040260200160405190810160405280939291908181526020018383808284378201915050505050509192919290505050610e62565b005b3480156104af57600080fd5b506104ee600480360381019080803573ffffffffffffffffffffffffffffffffffffffff16906020019092919080359060200190929190505050610f47565b005b3480156104fc57600080fd5b50610505610f55565b6040518080602001828103825283818151815260200191508051906020019080838360005b8381101561054557808201518184015260208101905061052a565b50505050905090810190601f1680156105725780820380516001836020036101000a031916815260200191505b509250505060405180910390f35b34801561058c57600080fd5b50610611600480360381019080803573ffffffffffffffffffffffffffffffffffffffff16906020019092919080359060200190929190803590602001908201803590602001908080601f0160208091040260200160405190810160405280939291908181526020018383808284378201915050505050509192919290505050610ff7565b005b34801561061f57600080fd5b50610654600480360381019080803573ffffffffffffffffffffffffffffffffffffffff1690602001909291905050506110de565b005b34801561066257600080fd5b5061066b6110fe565b005b34801561067957600080fd5b506106b8600480360381019080803573ffffffffffffffffffffffffffffffffffffffff16906020019092919080359060200190929190505050611109565b604051808215151515815260200191505060405180910390f35b3480156106de57600080fd5b5061071d600480360381019080803573ffffffffffffffffffffffffffffffffffffffff16906020019092919080359060200190929190505050611340565b604051808215151515815260200191505060405180910390f35b34801561074357600080fd5b50610778600480360381019080803573ffffffffffffffffffffffffffffffffffffffff169060200190929190505050611357565b604051808215151515815260200191505060405180910390f35b34801561079e57600080fd5b506107f3600480360381019080803573ffffffffffffffffffffffffffffffffffffffff169060200190929190803573ffffffffffffffffffffffffffffffffffffffff169060200190929190505050611374565b6040518082815260200191505060405180910390f35b606060008054600181600116156101000203166002900480601f0160208091040260200160405190810160405280929190818152602001828054600181600116156101000203166002900480156108a15780601f10610876576101008083540402835291602001916108a1565b820191906000526020600020905b81548152906001019060200180831161088457829003601f168201915b5050505050905090565b60008073ffffffffffffffffffffffffffffffffffffffff168373ffffffffffffffffffffffffffffffffffffffff16141515156108e857600080fd5b81600460003373ffffffffffffffffffffffffffffffffffffffff1673ffffffffffffffffffffffffffffffffffffffff16815260200190815260200160002060008573ffffffffffffffffffffffffffffffffffffffff1673ffffffffffffffffffffffffffffffffffffffff168152602001908152602001600020819055508273ffffffffffffffffffffffffffffffffffffffff163373ffffffffffffffffffffffffffffffffffffffff167f8c5be1e5ebec7d5bd14f71427d1e84f3dd0314c0f7b2291e5b200ac8c7c3b925846040518082815260200191505060405180910390a36001905092915050565b6000600554905090565b6000600460008573ffffffffffffffffffffffffffffffffffffffff1673ffffffffffffffffffffffffffffffffffffffff16815260200190815260200160002060003373ffffffffffffffffffffffffffffffffffffffff1673ffffffffffffffffffffffffffffffffffffffff168152602001908152602001600020548211151515610a6f57600080fd5b610afe82600460008773ffffffffffffffffffffffffffffffffffffffff1673ffffffffffffffffffffffffffffffffffffffff16815260200190815260200160002060003373ffffffffffffffffffffffffffffffffffffffff1673ffffffffffffffffffffffffffffffffffffffff168152602001908152602001600020546113fb90919063ffffffff16565b600460008673ffffffffffffffffffffffffffffffffffffffff1673ffffffffffffffffffffffffffffffffffffffff16815260200190815260200160002060003373ffffffffffffffffffffffffffffffffffffffff1673ffffffffffffffffffffffffffffffffffffffff16815260200190815260200160002081905550610b8984848461141c565b600190509392505050565b6000600260009054906101000a900460ff16905090565b60008073ffffffffffffffffffffffffffffffffffffffff168373ffffffffffffffffffffffffffffffffffffffff1614151515610be857600080fd5b610c7782600460003373ffffffffffffffffffffffffffffffffffffffff1673ffffffffffffffffffffffffffffffffffffffff16815260200190815260200160002060008673ffffffffffffffffffffffffffffffffffffffff1673ffffffffffffffffffffffffffffffffffffffff1681526020019081526020016000205461163a90919063ffffffff16565b600460003373ffffffffffffffffffffffffffffffffffffffff1673ffffffffffffffffffffffffffffffffffffffff16815260200190815260200160002060008573ffffffffffffffffffffffffffffffffffffffff1673ffffffffffffffffffffffffffffffffffffffff168152602001908152602001600020819055508273ffffffffffffffffffffffffffffffffffffffff163373ffffffffffffffffffffffffffffffffffffffff167f8c5be1e5ebec7d5bd14f71427d1e84f3dd0314c0f7b2291e5b200ac8c7c3b925600460003373ffffffffffffffffffffffffffffffffffffffff1673ffffffffffffffffffffffffffffffffffffffff16815260200190815260200160002060008773ffffffffffffffffffffffffffffffffffffffff1673ffffffffffffffffffffffffffffffffffffffff168152602001908152602001600020546040518082815260200191505060405180910390a36001905092915050565b6000610ded33611357565b1515610df857600080fd5b610e02838361165b565b6001905092915050565b610e16338261179b565b50565b6000600360008373ffffffffffffffffffffffffffffffffffffffff1673ffffffffffffffffffffffffffffffffffffffff168152602001908152602001600020549050919050565b610e6b82610e0c565b7f3a5b36f3638546a2abdfc3f256eb9e55ed5d264bc918d210d7ac8bb003876417338383604051808473ffffffffffffffffffffffffffffffffffffffff1673ffffffffffffffffffffffffffffffffffffffff16815260200183815260200180602001828103825283818151815260200191508051906020019080838360005b83811015610f07578082015181840152602081019050610eec565b50505050905090810190601f168015610f345780820380516001836020036101000a031916815260200191505b5094505050505060405180910390a15050565b610f518282611929565b5050565b606060018054600181600116156101000203166002900480601f016020809104026020016040519081016040528092919081815260200182805460018160011615610100020316600290048015610fed5780601f10610fc257610100808354040283529160200191610fed565b820191906000526020600020905b815481529060010190602001808311610fd057829003601f168201915b5050505050905090565b6110018383610f47565b7f3a5b36f3638546a2abdfc3f256eb9e55ed5d264bc918d210d7ac8bb003876417838383604051808473ffffffffffffffffffffffffffffffffffffffff1673ffffffffffffffffffffffffffffffffffffffff16815260200183815260200180602001828103825283818151815260200191508051906020019080838360005b8381101561109d578082015181840152602081019050611082565b50505050905090810190601f1680156110ca5780820380516001836020036101000a031916815260200191505b5094505050505060405180910390a1505050565b6110e733611357565b15156110f257600080fd5b6110fb81611ad1565b50565b61110733611b2b565b565b60008073ffffffffffffffffffffffffffffffffffffffff168373ffffffffffffffffffffffffffffffffffffffff161415151561114657600080fd5b6111d582600460003373ffffffffffffffffffffffffffffffffffffffff1673ffffffffffffffffffffffffffffffffffffffff16815260200190815260200160002060008673ffffffffffffffffffffffffffffffffffffffff1673ffffffffffffffffffffffffffffffffffffffff168152602001908152602001600020546113fb90919063ffffffff16565b600460003373ffffffffffffffffffffffffffffffffffffffff1673ffffffffffffffffffffffffffffffffffffffff16815260200190815260200160002060008573ffffffffffffffffffffffffffffffffffffffff1673ffffffffffffffffffffffffffffffffffffffff168152602001908152602001600020819055508273ffffffffffffffffffffffffffffffffffffffff163373ffffffffffffffffffffffffffffffffffffffff167f8c5be1e5ebec7d5bd14f71427d1e84f3dd0314c0f7b2291e5b200ac8c7c3b925600460003373ffffffffffffffffffffffffffffffffffffffff1673ffffffffffffffffffffffffffffffffffffffff16815260200190815260200160002060008773ffffffffffffffffffffffffffffffffffffffff1673ffffffffffffffffffffffffffffffffffffffff168152602001908152602001600020546040518082815260200191505060405180910390a36001905092915050565b600061134d33848461141c565b6001905092915050565b600061136d826006611b8590919063ffffffff16565b9050919050565b6000600460008473ffffffffffffffffffffffffffffffffffffffff1673ffffffffffffffffffffffffffffffffffffffff16815260200190815260200160002060008373ffffffffffffffffffffffffffffffffffffffff1673ffffffffffffffffffffffffffffffffffffffff16815260200190815260200160002054905092915050565b60008083831115151561140d57600080fd5b82840390508091505092915050565b600360008473ffffffffffffffffffffffffffffffffffffffff1673ffffffffffffffffffffffffffffffffffffffff16815260200190815260200160002054811115151561146a57600080fd5b600073ffffffffffffffffffffffffffffffffffffffff168273ffffffffffffffffffffffffffffffffffffffff16141515156114a657600080fd5b6114f881600360008673ffffffffffffffffffffffffffffffffffffffff1673ffffffffffffffffffffffffffffffffffffffff168152602001908152602001600020546113fb90919063ffffffff16565b600360008573ffffffffffffffffffffffffffffffffffffffff1673ffffffffffffffffffffffffffffffffffffffff1681526020019081526020016000208190555061158d81600360008573ffffffffffffffffffffffffffffffffffffffff1673ffffffffffffffffffffffffffffffffffffffff1681526020019081526020016000205461163a90919063ffffffff16565b600360008473ffffffffffffffffffffffffffffffffffffffff1673ffffffffffffffffffffffffffffffffffffffff168152602001908152602001600020819055508173ffffffffffffffffffffffffffffffffffffffff168373ffffffffffffffffffffffffffffffffffffffff167fddf252ad1be2c89b69c2b068fc378daa952ba7f163c4a11628f55a4df523b3ef836040518082815260200191505060405180910390a3505050565b600080828401905083811015151561165157600080fd5b8091505092915050565b60008273ffffffffffffffffffffffffffffffffffffffff161415151561168157600080fd5b6116968160055461163a90919063ffffffff16565b6005819055506116ee81600360008573ffffffffffffffffffffffffffffffffffffffff1673ffffffffffffffffffffffffffffffffffffffff1681526020019081526020016000205461163a90919063ffffffff16565b600360008473ffffffffffffffffffffffffffffffffffffffff1673ffffffffffffffffffffffffffffffffffffffff168152602001908152602001600020819055508173ffffffffffffffffffffffffffffffffffffffff16600073ffffffffffffffffffffffffffffffffffffffff167fddf252ad1be2c89b69c2b068fc378daa952ba7f163c4a11628f55a4df523b3ef836040518082815260200191505060405180910390a35050565b60008273ffffffffffffffffffffffffffffffffffffffff16141515156117c157600080fd5b600360008373ffffffffffffffffffffffffffffffffffffffff1673ffffffffffffffffffffffffffffffffffffffff16815260200190815260200160002054811115151561180f57600080fd5b611824816005546113fb90919063ffffffff16565b60058190555061187c81600360008573ffffffffffffffffffffffffffffffffffffffff1673ffffffffffffffffffffffffffffffffffffffff168152602001908152602001600020546113fb90919063ffffffff16565b600360008473ffffffffffffffffffffffffffffffffffffffff1673ffffffffffffffffffffffffffffffffffffffff16815260200190815260200160002081905550600073ffffffffffffffffffffffffffffffffffffffff168273ffffffffffffffffffffffffffffffffffffffff167fddf252ad1be2c89b69c2b068fc378daa952ba7f163c4a11628f55a4df523b3ef836040518082815260200191505060405180910390a35050565b600460008373ffffffffffffffffffffffffffffffffffffffff1673ffffffffffffffffffffffffffffffffffffffff16815260200190815260200160002060003373ffffffffffffffffffffffffffffffffffffffff1673ffffffffffffffffffffffffffffffffffffffff1681526020019081526020016000205481111515156119b457600080fd5b611a4381600460008573ffffffffffffffffffffffffffffffffffffffff1673ffffffffffffffffffffffffffffffffffffffff16815260200190815260200160002060003373ffffffffffffffffffffffffffffffffffffffff1673ffffffffffffffffffffffffffffffffffffffff168152602001908152602001600020546113fb90919063ffffffff16565b600460008473ffffffffffffffffffffffffffffffffffffffff1673ffffffffffffffffffffffffffffffffffffffff16815260200190815260200160002060003373ffffffffffffffffffffffffffffffffffffffff1673ffffffffffffffffffffffffffffffffffffffff16815260200190815260200160002081905550611acd828261179b565b5050565b611ae5816006611c1990919063ffffffff16565b8073ffffffffffffffffffffffffffffffffffffffff167f6ae172837ea30b801fbfcdd4108aa1d5bf8ff775444fd70256b44e6bf3dfc3f660405160405180910390a250565b611b3f816006611cc990919063ffffffff16565b8073ffffffffffffffffffffffffffffffffffffffff167fe94479a9f7e1952cc78f2d6baab678adc1b772d936c6583def489e524cb6669260405160405180910390a250565b60008073ffffffffffffffffffffffffffffffffffffffff168273ffffffffffffffffffffffffffffffffffffffff1614151515611bc257600080fd5b8260000160008373ffffffffffffffffffffffffffffffffffffffff1673ffffffffffffffffffffffffffffffffffffffff16815260200190815260200160002060009054906101000a900460ff16905092915050565b600073ffffffffffffffffffffffffffffffffffffffff168173ffffffffffffffffffffffffffffffffffffffff1614151515611c5557600080fd5b611c5f8282611b85565b151515611c6b57600080fd5b60018260000160008373ffffffffffffffffffffffffffffffffffffffff1673ffffffffffffffffffffffffffffffffffffffff16815260200190815260200160002060006101000a81548160ff0219169083151502179055505050565b600073ffffffffffffffffffffffffffffffffffffffff168173ffffffffffffffffffffffffffffffffffffffff1614151515611d0557600080fd5b611d0f8282611b85565b1515611d1a57600080fd5b60008260000160008373ffffffffffffffffffffffffffffffffffffffff1673ffffffffffffffffffffffffffffffffffffffff16815260200190815260200160002060006101000a81548160ff02191690831515021790555050505600a165627a7a7230582023427575a1ccd3c80063e9192f9a173ba78f27d7ccdcba3570e607f7046538320029",
  "source": "pragma solidity ^0.4.24;\n\n/// @custom:security-contact security@purpletech.io\n\nimport \"openzeppelin-solidity/contracts/token/ERC20/ERC20Detailed.sol\";\nimport \"openzeppelin-solidity/contracts/token/ERC20/ERC20Mintable.sol\";\nimport \"openzeppelin-solidity/contracts/token/ERC20/ERC20Burnable.sol\";\nimport \"openzeppelin-solidity/contracts/math/SafeMath.sol\";\nimport './MathHelp.sol';\nimport \"./Ownable.sol\";\n\ncontract Purplecoin is ERC20Detailed, ERC20Mintable, ERC20Burnable {\n    constructor() public ERC20Detailed(\"Purplecoin\", \"XPU\", 18) {}\n\n    /**\n     * Event for burning tokens\n     * @param burner The address burning the tokens\n     * @param value amount of tokens burnt\n     * @param message burn additional data\n     */\n    event TokenBurn(\n        address burner,\n        uint256 value,\n        string message\n    );\n\n    /**\n     * @dev Burn tokens with message. Used to transfer coins to the main chain when message is a Purplecoin address.\n     * @param value amount of tokens to be burnt\n     * @param message additional data\n     */\n    function burn(uint256 value, string message) public {\n        super.burn(value);\n        emit TokenBurn(msg.sender, value, message);\n    }\n\n    /**\n     * @dev Burn tokens from address with message. Used to transfer coins to the main chain when message is a Purplecoin address.\n     * @param account account to burn tokens from\n     * @param value amount of tokens to be burnt\n     * @param message additional data\n     */\n    function burnFrom(address account, uint256 value, string message) public {\n        super.burnFrom(account, value);\n        emit TokenBurn(account, value, message);\n    }\n}\n\ncontract PurplecoinCrowdsale is Ownable {\n    using SafeMath for uint256;\n\n    uint256 stage = 0;\n\n    // Mapping of KYC authorisations\n    mapping(address => bool) public kyc_authorised;\n\n    // Mapping of Pending purchases \n    mapping(address => bool) public pending;\n\n    // Mapping of pending Wei\n    mapping(address => uint256) public pending_wei;\n\n    // Mapping of pending psats \n    mapping(address => uint256) public pending_psats;\n\n    // Balances\n    mapping(address => uint256) private _balances;\n\n    // Wei raised per address\n    mapping(address => uint256) private _wei_raised_per_address;\n\n    MathHelp math = new MathHelp();\n\n    // Amount sold, refunded, and in escrow\n    // --------------------------\n    uint256 public totalPsatsInEscrow;\n    uint256 public totalWeiInEscrow;\n    uint256 public totalSoldPsats;\n    uint256 public totalWeiInSettledEscrow;\n\n    // -----------------------\n    uint256 public tokensCap;\n    uint256 public individualTokensCap;\n    uint256 private bonus;\n    uint256[] private WAVE_CAPS;\n    uint256[] private WAVE_BONUSES;\n    bool public isFinalized;\n    ERC20Mintable public token;\n\n    // Address where funds are collected\n    address public wallet;\n\n    // How many token units a buyer gets per wei\n    uint256 public rate;\n\n    // Amount of wei raised\n    uint256 public weiRaised;\n\n    // Minimum buy amount\n    uint256 public minBuy;\n\n    /// @dev counter to allow mutex lock with only one SSTORE operation\n    uint256 private _guardCounter;\n\n    constructor(uint256 _rate, uint256 _coins, uint256[] _waveCaps, uint256[] _waveBonuses, address _wallet) public {\n        wallet = _wallet;\n        uint256 decimals = 10 ** 18; // 18 decimal places\n        tokensCap = _coins * decimals;\n        _waveCaps[0] = 37999000000000000000000000;\n        _waveCaps[1] = 75998000000000000000000000;\n        _waveCaps[2] = 113997001000000000000000000;\n        individualTokensCap = 500000000000000000000000; // Max 500,000 XPU per person \n        minBuy = 10000000000000000; // 0.01 ETH min buy\n        rate = _rate;\n        token = createTokenContract();\n        WAVE_CAPS = _waveCaps;\n        WAVE_BONUSES = _waveBonuses;\n        setCrowdsaleStage(0); //set in pre Sale stage\n\n        // Init balances\n        _balances[0x25E320b95316bAA3d300155aD82A0aEBEE400E66] = 1821600000000000000000; // https://etherscan.io/tx/0x7ae5653adfdeb4f0ec8c7d1e3de11edbc84cac4c0a6fbf5141a9c49b5481497b\n\n        // Dev fund, 0.5% of the supply\n        _balances[0x130fCeAD624C57aB46EF073bd1a940ACF8Bf2c85] = 11399700000000000000000000;\n\n        // The counter starts at one to prevent changing it from zero to a non-zero\n        // value, which is a more expensive operation.\n        _guardCounter = 1;\n    }\n\n    // ==============================\n\n    // Events\n    // ---------------------\n    event EthTransferred(uint256 amount);\n    event PurchaseCancelled(address indexed beneficiary);\n    event KycAuthorised(address indexed beneficiary);\n    event IncrementWave(uint256 newWave);\n    event TokenMint(address indexed beneficiary, uint256 amount);\n    event CrowdsaleFinalized();\n\n    /**\n     * Event for token purchase logging\n     * @param purchaser who paid for the tokens\n     * @param beneficiary who got the tokens\n     * @param value weis paid for purchase\n     * @param amount amount of tokens purchased\n     */\n    event TokenPurchase(\n        address indexed purchaser,\n        address indexed beneficiary,\n        bool authorised,\n        uint256 value,\n        uint256 amount\n    );\n\n    /**\n     * @dev fallback function ***DO NOT OVERRIDE***\n     * Note that other contracts will transfer fund with a base gas stipend\n     * of 2300, which is not enough to call buyTokens. Consider calling\n     * buyTokens directly when purchasing tokens from a contract.\n     */\n    function () external payable {\n        buyTokens(msg.sender);\n    }\n\n    /**\n     * @dev Reverts if beneficiary is not authorized. Can be used when extending this contract.\n     * @param _beneficiary beneficiary address\n     */\n    modifier isAuthorised(address _beneficiary) {\n        require(kyc_authorised[_beneficiary]);\n        _;\n    }\n\n    /**\n     * @dev Reverts if beneficiary is not pending. Can be used when extending this contract.\n     */\n    modifier isPending(address _beneficiary) {\n        require(pending[_beneficiary]);\n        _;\n    }\n\n    // Reentrancy Guard\n    // -----------------------\n\n    /**\n     * @dev Prevents a contract from calling itself, directly or indirectly.\n     * Calling a `nonReentrant` function from another `nonReentrant`\n     * function is not supported. It is possible to prevent this from happening\n     * by making the `nonReentrant` function external, and make it call a\n     * `private` function that does the actual work.\n     */\n    modifier nonReentrant() {\n        _guardCounter += 1;\n        uint256 localCounter = _guardCounter;\n        _;\n        require(localCounter == _guardCounter);\n    }\n\n    // Post delivery\n    // -----------------------\n\n    /**\n     * @dev Withdraw tokens only after crowdsale ends.\n     * @param _beneficiary Whose tokens will be withdrawn.\n     */\n    function withdrawTokens(address _beneficiary) nonReentrant public {\n        require(isFinalized);\n        uint256 amount = _balances[_beneficiary];\n        require(amount > 0);\n        _balances[_beneficiary] = 0;\n        _deliverTokens(_beneficiary, amount);\n    }\n\n    /**\n     * @return the balance of an account.\n     */\n    function balanceOf(address account) public view returns(uint256) {\n        return _balances[account];\n    }\n\n    // Crowdsale Stages\n    // -----------------------\n\n    // Change Crowdsale Stage.\n    function setCrowdsaleStage(uint256 _stage) private {\n        setCurrentBonus(WAVE_BONUSES[_stage]);\n        stage = _stage;\n    }\n\n    function getCurrentStage() public constant returns (uint256){\n        return stage;\n    }\n\n\n    function currentWaveCap() public constant returns (uint256) {\n        return WAVE_CAPS[stage];\n    }\n\n    function incrementWave() private {\n        stage = stage + 1;\n        emit IncrementWave(stage);\n        return;\n    }\n\n    // Change the current bonus\n    function setCurrentBonus(uint256 _bonus) private {\n        bonus = _bonus;\n        return;\n    }\n\n    //---------------------------end stages----------------------------------\n\n    // creates the token to be sold.\n    // override this method to have crowdsale of a specific ERC20Mintable token.\n    function createTokenContract() internal returns (ERC20Mintable) {\n        return new Purplecoin();\n    }\n\n    function _shouldIncrementWave(uint256 _currentWaveCap) constant internal returns (bool){\n        return totalSoldPsats.add(totalPsatsInEscrow) >= _currentWaveCap;\n    }\n\n    // Override to execute any logic once the crowdsale finalizes\n    // Requires a call to the public finalize method\n    function finalization() internal {\n        // mint the rest of the tokens\n        // if (token.totalSupply() < tokensCap) {\n        //     mintTokens(remainingTokensWallet, tokensCap.sub(token.totalSupply()));\n        // }\n        //no more tokens from now on\n        //token.finishMinting();\n        emit CrowdsaleFinalized();\n    }\n\n    function finalize() public onlyOwner {\n        require(!isFinalized);\n        finalization();\n        isFinalized = true;\n    }\n\n    function clearWeiInSettledEscrow() public onlyOwner {\n        require(totalWeiInSettledEscrow > 0);\n        wallet.transfer(totalWeiInSettledEscrow);\n        emit EthTransferred(totalWeiInSettledEscrow);\n        totalWeiInSettledEscrow = 0;\n    }\n\n\n    function mintTokens(address _beneficiary, uint256 tokens) internal {\n        require(_beneficiary != 0x0);\n        // Cannot mint before sale is closed\n        require(isFinalized);\n        token.mint(_beneficiary, tokens);\n        emit TokenMint(_beneficiary, tokens);\n    }\n\n    /**\n     * @dev Update the rate\n     * @param _rate new rate\n     */\n    function updateRate(uint256 _rate) public onlyOwner {\n        require(!isFinalized);\n        rate = _rate;\n    }\n\n    /**\n     * @dev Update the minBuy\n     * @param _minBuy new minBuy\n     */\n    function updateMinBuy(uint256 _minBuy) public onlyOwner {\n        require(!isFinalized);\n        minBuy = _minBuy;\n    }\n\n    /**\n     * @dev Update the individualTokensCap\n     * @param _individualTokensCap new individualTokensCap\n     */\n    function updateIndividualTokensCap(uint256 _individualTokensCap) public onlyOwner {\n        require(!isFinalized);\n        individualTokensCap = _individualTokensCap;\n    }\n\n    // KYC\n    // -----------------------\n\n    /**\n     * @dev Authorise token transfer for address.\n     * @param _beneficiary beneficiary address\n     */\n    function authorise(address _beneficiary) public nonReentrant isPending(_beneficiary) onlyOwner {\n        emit KycAuthorised(_beneficiary);\n        _forwardPendingFunds(_beneficiary);\n    }\n\n    /**\n     * @dev Authorise token transfers for a batch of addresses.\n     * @param _beneficiaries Beneficiaries array\n     */\n    function authoriseMany(address[] _beneficiaries) external nonReentrant onlyOwner {\n        for(uint256 i=0; i < _beneficiaries.length; i++) {\n            authorise(_beneficiaries[i]);\n        }\n    }\n\n    function withdrawalAllowed(address _beneficiary) public view returns(bool) {\n        return kyc_authorised[_beneficiary];\n    }\n\n    // Crowdsale overrides\n    // -----------------------\n\n    // Override this method to have a way to add business logic to your crowdsale when buying\n    // Returns weiAmount times rate by default\n    function _getTokenAmount(uint256 weiAmount) internal view returns (uint256) {\n        return rate.mul(weiAmount.add(math.getPercentAmount(weiAmount, bonus, 18)));\n    }\n\n    function cancelPurchase() public nonReentrant isPending(msg.sender) {\n        require(pending_wei[msg.sender] != 0);\n        uint256 to_refund = pending_wei[msg.sender];\n        totalWeiInEscrow = totalWeiInEscrow.sub(pending_wei[msg.sender]);\n        totalPsatsInEscrow = totalPsatsInEscrow.sub(pending_psats[msg.sender]);\n        pending[msg.sender] = false;\n        pending_wei[msg.sender] = 0;\n        pending_psats[msg.sender] = 0;\n        msg.sender.transfer(to_refund);\n        emit PurchaseCancelled(msg.sender);\n    }\n\n    function cancelPurchaseFor(address _beneficiary) public nonReentrant isPending(_beneficiary) onlyOwner {\n        require(pending_wei[_beneficiary] != 0);\n        uint256 to_refund = pending_wei[_beneficiary];\n        totalWeiInEscrow = totalWeiInEscrow.sub(pending_wei[_beneficiary]);\n        totalPsatsInEscrow = totalPsatsInEscrow.sub(pending_psats[_beneficiary]);\n        pending[_beneficiary] = false;\n        pending_wei[_beneficiary] = 0;\n        pending_psats[_beneficiary] = 0;\n        _beneficiary.transfer(to_refund);\n        emit PurchaseCancelled(_beneficiary);\n    }\n\n    /**\n     * @dev low level token purchase ***DO NOT OVERRIDE***\n     * @param _beneficiary Address performing the token purchase\n     */\n    function buyTokens(address _beneficiary) public nonReentrant payable {\n        uint256 weiAmount = msg.value;\n        _preValidatePurchase(_beneficiary, weiAmount);\n\n        // calculate token amount to be created\n        uint256 tokens = _getTokenAmount(weiAmount);\n\n        _processPurchase(_beneficiary, tokens);\n        emit TokenPurchase(msg.sender, _beneficiary, kyc_authorised[_beneficiary], weiAmount, tokens);\n\n        _forwardFunds(_beneficiary);\n    }\n\n    /**\n     * @dev Validation of an incoming purchase. Use require statements to revert state when conditions are not met. Use `super` in contracts that inherit from Crowdsale to extend their validations.\n     * Example from CappedCrowdsale.sol's _preValidatePurchase method:\n     *   super._preValidatePurchase(beneficiary, weiAmount);\n     *   require(weiRaised().add(weiAmount) <= cap);\n     * @param beneficiary Address performing the token purchase\n     * @param weiAmount Value in wei involved in the purchase\n    */\n    function _preValidatePurchase(\n        address beneficiary,\n        uint256 weiAmount\n    )\n        internal\n        view\n    {\n        uint256 tokenAmount = _getTokenAmount(weiAmount);\n        require(beneficiary != address(0));\n        require(_wei_raised_per_address[beneficiary].add(pending_wei[beneficiary]).add(weiAmount) >= minBuy);    // Min buy\n        require(!isFinalized);\n        require(_balances[beneficiary].add(pending_psats[beneficiary]).add(tokenAmount) <= individualTokensCap); // Individual cap\n        require(tokenAmount.add(totalSoldPsats).add(totalPsatsInEscrow) <= tokensCap);                           // Sale cap\n    }\n\n    /**\n     * @dev Source of tokens. Override this method to modify the way in which the crowdsale ultimately gets and sends its tokens.\n     * @param _beneficiary Address performing the token purchase\n     * @param _tokenAmount Number of tokens to be emitted\n     */\n    function _deliverTokens(address _beneficiary, uint256 _tokenAmount) \n        internal \n        isAuthorised(_beneficiary) \n    {\n        mintTokens(_beneficiary, _tokenAmount);\n    }\n\n    /**\n     * @dev Executed when a purchase has been validated and is ready to be executed. Not necessarily emits/sends tokens.\n     * @param _beneficiary Address receiving the tokens\n     * @param _tokenAmount Number of tokens to be purchased\n     */\n    function _processPurchase(address _beneficiary, uint256 _tokenAmount)\n        internal\n    {\n        if (kyc_authorised[_beneficiary]) {\n            weiRaised = weiRaised.add(msg.value);\n            _wei_raised_per_address[_beneficiary] = _wei_raised_per_address[_beneficiary].add(msg.value);\n            _balances[_beneficiary] = _balances[_beneficiary].add(_tokenAmount);\n            totalSoldPsats = totalSoldPsats.add(_tokenAmount);\n        } else {\n            kyc_authorised[_beneficiary] = false;\n            pending[_beneficiary] = true;\n            pending_psats[_beneficiary] = pending_psats[_beneficiary].add(_tokenAmount);\n            totalPsatsInEscrow = totalPsatsInEscrow.add(_tokenAmount);\n            if (_shouldIncrementWave(currentWaveCap())) {\n                incrementWave();\n            }\n        }\n    }\n\n    // Override to create custom fund forwarding mechanisms\n    // Forwards funds to the specified wallet by default\n    function _forwardFunds(address _beneficiary) internal {\n        if (kyc_authorised[_beneficiary]) {\n            if (_shouldIncrementWave(currentWaveCap())) {\n                incrementWave();\n            }\n            totalWeiInSettledEscrow = totalWeiInSettledEscrow.add(msg.value);\n        } else {\n            pending_wei[_beneficiary] = pending_wei[_beneficiary].add(msg.value);\n            totalWeiInEscrow = totalWeiInEscrow.add(msg.value);\n        }\n    }\n\n    // Override to create custom pending fund forwarding mechanisms\n    // Forwards funds to the specified wallet by default\n    function _forwardPendingFunds(address _beneficiary) internal {\n        weiRaised = weiRaised.add(pending_wei[_beneficiary]);\n        _wei_raised_per_address[_beneficiary] = _wei_raised_per_address[_beneficiary].add(pending_wei[_beneficiary]);\n        totalWeiInEscrow = totalWeiInEscrow.sub(pending_wei[_beneficiary]);\n        totalSoldPsats = totalSoldPsats.add(pending_psats[_beneficiary]);\n        totalPsatsInEscrow = totalPsatsInEscrow.sub(pending_psats[_beneficiary]);\n        \n        _balances[_beneficiary] = _balances[_beneficiary].add(pending_psats[_beneficiary]);\n        wallet.transfer(pending_wei[_beneficiary]);\n        emit EthTransferred(pending_wei[_beneficiary]);\n\n        pending_wei[_beneficiary] = 0;\n        pending_psats[_beneficiary] = 0;\n        kyc_authorised[_beneficiary] = true;\n        pending[_beneficiary] = false;\n    }\n}",
  "sourcePath": "/Users/octavonce/Projects/purplecoin_crowdsale/contracts/PurplecoinCrowdsale.sol",
  "compiler": {
    "name": "solc",
    "version": "0.4.24+commit.e67f0147.Emscripten.clang"
  },
  "schemaVersion": "3.4.11",
  "updatedAt": "2023-05-18T20:31:55.597Z",
  "devdoc": {
    "methods": {
      "authorise(address)": {
        "details": "Authorise token transfer for address.",
        "params": {
          "_beneficiary": "beneficiary address"
        }
      },
      "authoriseMany(address[])": {
        "details": "Authorise token transfers for a batch of addresses.",
        "params": {
          "_beneficiaries": "Beneficiaries array"
        }
      },
      "balanceOf(address)": {
        "return": "the balance of an account."
      },
      "buyTokens(address)": {
        "details": "low level token purchase ***DO NOT OVERRIDE***",
        "params": {
          "_beneficiary": "Address performing the token purchase"
        }
      },
      "renounceOwnership()": {
        "details": "Allows the current owner to relinquish control of the contract."
      },
      "transferOwnership(address)": {
        "details": "Allows the current owner to transfer control of the contract to a newOwner.",
        "params": {
          "newOwner": "The address to transfer ownership to."
        }
      },
      "updateIndividualTokensCap(uint256)": {
        "details": "Update the individualTokensCap",
        "params": {
          "_individualTokensCap": "new individualTokensCap"
        }
      },
      "updateMinBuy(uint256)": {
        "details": "Update the minBuy",
        "params": {
          "_minBuy": "new minBuy"
        }
      },
      "updateRate(uint256)": {
        "details": "Update the rate",
        "params": {
          "_rate": "new rate"
        }
      },
      "withdrawTokens(address)": {
        "details": "Withdraw tokens only after crowdsale ends.",
        "params": {
          "_beneficiary": "Whose tokens will be withdrawn."
        }
      }
    }
  },
  "userdoc": {
    "methods": {}
  }
}